{"abi":[{"type":"constructor","inputs":[],"stateMutability":"nonpayable"},{"type":"function","name":"MAX_ORDER_LIFETIME","inputs":[],"outputs":[{"name":"","type":"uint256","internalType":"uint256"}],"stateMutability":"view"},{"type":"function","name":"MIN_ORDER_LIFETIME","inputs":[],"outputs":[{"name":"","type":"uint256","internalType":"uint256"}],"stateMutability":"view"},{"type":"function","name":"activeOrderIds","inputs":[{"name":"","type":"uint256","internalType":"uint256"}],"outputs":[{"name":"","type":"bytes32","internalType":"bytes32"}],"stateMutability":"view"},{"type":"function","name":"authorizeHook","inputs":[{"name":"hook","type":"address","internalType":"address"}],"outputs":[],"stateMutability":"nonpayable"},{"type":"function","name":"authorizeOperator","inputs":[{"name":"operator","type":"address","internalType":"address"}],"outputs":[],"stateMutability":"nonpayable"},{"type":"function","name":"authorizedHooks","inputs":[{"name":"","type":"address","internalType":"address"}],"outputs":[{"name":"","type":"bool","internalType":"bool"}],"stateMutability":"view"},{"type":"function","name":"authorizedOperators","inputs":[{"name":"","type":"address","internalType":"address"}],"outputs":[{"name":"","type":"bool","internalType":"bool"}],"stateMutability":"view"},{"type":"function","name":"batchAuthorizeOperators","inputs":[{"name":"operators","type":"address[]","internalType":"address[]"}],"outputs":[],"stateMutability":"nonpayable"},{"type":"function","name":"batchExpireOrders","inputs":[{"name":"orderIds","type":"bytes32[]","internalType":"bytes32[]"}],"outputs":[],"stateMutability":"nonpayable"},{"type":"function","name":"cleanupExpiredOrders","inputs":[{"name":"maxOrders","type":"uint256","internalType":"uint256"}],"outputs":[],"stateMutability":"nonpayable"},{"type":"function","name":"emergencyPause","inputs":[],"outputs":[],"stateMutability":"nonpayable"},{"type":"function","name":"emergencyUnpause","inputs":[],"outputs":[],"stateMutability":"nonpayable"},{"type":"function","name":"expireOrder","inputs":[{"name":"orderId","type":"bytes32","internalType":"bytes32"}],"outputs":[],"stateMutability":"nonpayable"},{"type":"function","name":"getActiveOrderCount","inputs":[],"outputs":[{"name":"count","type":"uint256","internalType":"uint256"}],"stateMutability":"view"},{"type":"function","name":"getActiveOrderId","inputs":[{"name":"index","type":"uint256","internalType":"uint256"}],"outputs":[{"name":"orderId","type":"bytes32","internalType":"bytes32"}],"stateMutability":"view"},{"type":"function","name":"getActiveOrderIds","inputs":[{"name":"startIndex","type":"uint256","internalType":"uint256"},{"name":"count","type":"uint256","internalType":"uint256"}],"outputs":[{"name":"orderIds","type":"bytes32[]","internalType":"bytes32[]"}],"stateMutability":"view"},{"type":"function","name":"getOrdersByTrader","inputs":[{"name":"trader","type":"address","internalType":"address"},{"name":"includeExpired","type":"bool","internalType":"bool"}],"outputs":[{"name":"orderIds","type":"bytes32[]","internalType":"bytes32[]"}],"stateMutability":"view"},{"type":"function","name":"getVaultOrder","inputs":[{"name":"orderId","type":"bytes32","internalType":"bytes32"}],"outputs":[{"name":"vaultOrder","type":"tuple","internalType":"struct IOrderVault.VaultOrder","components":[{"name":"orderId","type":"bytes32","internalType":"bytes32"},{"name":"trader","type":"address","internalType":"address"},{"name":"encryptedOrder","type":"bytes","internalType":"bytes"},{"name":"deadline","type":"uint256","internalType":"uint256"},{"name":"timestamp","type":"uint256","internalType":"uint256"},{"name":"retrieved","type":"bool","internalType":"bool"},{"name":"expired","type":"bool","internalType":"bool"}]}],"stateMutability":"view"},{"type":"function","name":"getVaultStats","inputs":[],"outputs":[{"name":"totalStored","type":"uint256","internalType":"uint256"},{"name":"totalRetrieved","type":"uint256","internalType":"uint256"},{"name":"totalExpired","type":"uint256","internalType":"uint256"},{"name":"currentlyActive","type":"uint256","internalType":"uint256"}],"stateMutability":"view"},{"type":"function","name":"isAuthorizedHook","inputs":[{"name":"hook","type":"address","internalType":"address"}],"outputs":[{"name":"authorized","type":"bool","internalType":"bool"}],"stateMutability":"view"},{"type":"function","name":"isAuthorizedOperator","inputs":[{"name":"operator","type":"address","internalType":"address"}],"outputs":[{"name":"authorized","type":"bool","internalType":"bool"}],"stateMutability":"view"},{"type":"function","name":"isValidOrder","inputs":[{"name":"orderId","type":"bytes32","internalType":"bytes32"}],"outputs":[{"name":"exists","type":"bool","internalType":"bool"},{"name":"valid","type":"bool","internalType":"bool"}],"stateMutability":"view"},{"type":"function","name":"orderIdToIndex","inputs":[{"name":"","type":"bytes32","internalType":"bytes32"}],"outputs":[{"name":"","type":"uint256","internalType":"uint256"}],"stateMutability":"view"},{"type":"function","name":"owner","inputs":[],"outputs":[{"name":"","type":"address","internalType":"address"}],"stateMutability":"view"},{"type":"function","name":"retrieveOrder","inputs":[{"name":"orderId","type":"bytes32","internalType":"bytes32"}],"outputs":[{"name":"encryptedOrder","type":"bytes","internalType":"bytes"}],"stateMutability":"nonpayable"},{"type":"function","name":"revokeHookAuthorization","inputs":[{"name":"hook","type":"address","internalType":"address"}],"outputs":[],"stateMutability":"nonpayable"},{"type":"function","name":"revokeOperatorAuthorization","inputs":[{"name":"operator","type":"address","internalType":"address"}],"outputs":[],"stateMutability":"nonpayable"},{"type":"function","name":"storeOrder","inputs":[{"name":"orderId","type":"bytes32","internalType":"bytes32"},{"name":"trader","type":"address","internalType":"address"},{"name":"encryptedOrder","type":"bytes","internalType":"bytes"},{"name":"deadline","type":"uint256","internalType":"uint256"}],"outputs":[],"stateMutability":"nonpayable"},{"type":"function","name":"totalOrdersExpired","inputs":[],"outputs":[{"name":"","type":"uint256","internalType":"uint256"}],"stateMutability":"view"},{"type":"function","name":"totalOrdersRetrieved","inputs":[],"outputs":[{"name":"","type":"uint256","internalType":"uint256"}],"stateMutability":"view"},{"type":"function","name":"totalOrdersStored","inputs":[],"outputs":[{"name":"","type":"uint256","internalType":"uint256"}],"stateMutability":"view"},{"type":"function","name":"transferOwnership","inputs":[{"name":"newOwner","type":"address","internalType":"address"}],"outputs":[],"stateMutability":"nonpayable"},{"type":"function","name":"vaultOrders","inputs":[{"name":"","type":"bytes32","internalType":"bytes32"}],"outputs":[{"name":"orderId","type":"bytes32","internalType":"bytes32"},{"name":"trader","type":"address","internalType":"address"},{"name":"encryptedOrder","type":"bytes","internalType":"bytes"},{"name":"deadline","type":"uint256","internalType":"uint256"},{"name":"timestamp","type":"uint256","internalType":"uint256"},{"name":"retrieved","type":"bool","internalType":"bool"},{"name":"expired","type":"bool","internalType":"bool"}],"stateMutability":"view"},{"type":"event","name":"OrderExpired","inputs":[{"name":"orderId","type":"bytes32","indexed":true,"internalType":"bytes32"},{"name":"trader","type":"address","indexed":true,"internalType":"address"},{"name":"timestamp","type":"uint256","indexed":false,"internalType":"uint256"}],"anonymous":false},{"type":"event","name":"OrderRetrieved","inputs":[{"name":"orderId","type":"bytes32","indexed":true,"internalType":"bytes32"},{"name":"operator","type":"address","indexed":true,"internalType":"address"},{"name":"timestamp","type":"uint256","indexed":false,"internalType":"uint256"}],"anonymous":false},{"type":"event","name":"OrderStored","inputs":[{"name":"orderId","type":"bytes32","indexed":true,"internalType":"bytes32"},{"name":"trader","type":"address","indexed":true,"internalType":"address"},{"name":"encryptedOrder","type":"bytes","indexed":false,"internalType":"bytes"},{"name":"timestamp","type":"uint256","indexed":false,"internalType":"uint256"}],"anonymous":false}],"bytecode":{"object":"0x6080604052348015600e575f80fd5b50600580546001600160a01b031916331790556122b78061002e5f395ff3fe608060405234801561000f575f80fd5b5060043610610201575f3560e01c806386c2acb711610123578063bc21a346116100b8578063e6c2a8f811610088578063ec546d451161006e578063ec546d45146104f0578063f2fde38b146104f9578063f4b91bb11461050c575f80fd5b8063e6c2a8f8146104ca578063eabc1bb7146104dd575f80fd5b8063bc21a34614610492578063cf405077146104a5578063d1c4649a146104b8578063d3446648146104c1575f80fd5b8063a59aa5a6116100f3578063a59aa5a614610420578063aac965931461044c578063aea0553d1461045f578063b6e0338b1461047f575f80fd5b806386c2acb7146103b65780638da5cb5b146103d85780638db7b5bc14610403578063959b8c3f1461040d575f80fd5b80634842fc0f1161019957806357d89d591161016957806357d89d591461035d5780636e4ca4ab14610370578063815395fc1461038357806382d52c1e1461038b575f80fd5b80634842fc0f146103155780634a4e3bd51461033557806351858e271461033557806352fe54371461033d575f80fd5b806334c9d5db116101d457806334c9d5db146102a857806338d7c350146102b15780633b131024146102c457806343e30d24146102ea575f80fd5b8063181d989b146102055780631c977cf91461023c57806324fc4fbd146102695780632eb2567a14610293575b5f80fd5b610227610213366004611da1565b60016020525f908152604090205460ff1681565b60405190151581526020015b60405180910390f35b61025b61024a366004611dc1565b60046020525f908152604090205481565b604051908152602001610233565b61027c610277366004611dc1565b61051f565b604080519215158352901515602083015201610233565b6102a66102a1366004611da1565b610660565b005b61025b60085481565b6102a66102bf366004611e20565b610724565b6102d76102d2366004611dc1565b610851565b6040516102339796959493929190611e8d565b6102276102f8366004611da1565b6001600160a01b03165f9081526002602052604090205460ff1690565b610328610323366004611dc1565b610923565b6040516102339190611edc565b6102a6610aaa565b61035061034b366004611f4d565b610af2565b6040516102339190611f6d565b6102a661036b366004611e20565b610c13565b61025b61037e366004611dc1565b610d3e565b60035461025b565b610227610399366004611da1565b6001600160a01b03165f9081526001602052604090205460ff1690565b6102276103c4366004611da1565b60026020525f908152604090205460ff1681565b6005546103eb906001600160a01b031681565b6040516001600160a01b039091168152602001610233565b61025b6201518081565b6102a661041b366004611da1565b610db4565b600654600754600854600354604080519485526020850193909352918301526060820152608001610233565b6102a661045a366004611da1565b610e76565b61047261046d366004611dc1565b610edc565b6040516102339190611faf565b6102a661048d366004611da1565b611189565b6102a66104a0366004611dc1565b6111ef565b6103506104b3366004611fc1565b6112f6565b61025b60065481565b61025b60075481565b6102a66104d8366004611ffa565b611654565b61025b6104eb366004611dc1565b611a35565b61025b61012c81565b6102a6610507366004611da1565b611a54565b6102a661051a366004611dc1565b611b1f565b5f81815260208181526040808320815160e0810183528154815260018201546001600160a01b031693810193909352600281018054859485949093929084019161056890612084565b80601f016020809104026020016040519081016040528092919081815260200182805461059490612084565b80156105df5780601f106105b6576101008083540402835291602001916105df565b820191905f5260205f20905b8154815290600101906020018083116105c257829003601f168201915b5050509183525050600382015460208201526004820154604082015260059091015460ff8082161515606084015261010090910416151560809091015280511515935090508261063457505f93849350915050565b8060a0015115801561064857508060c00151155b8015610658575080606001514211155b915050915091565b6005546001600160a01b031633146106ab5760405162461bcd60e51b81526020600482015260096024820152682737ba1037bbb732b960b91b60448201526064015b60405180910390fd5b6001600160a01b0381166107015760405162461bcd60e51b815260206004820152601460248201527f496e76616c696420686f6f6b206164647265737300000000000000000000000060448201526064016106a2565b6001600160a01b03165f908152600260205260409020805460ff19166001179055565b6005546001600160a01b0316331461076a5760405162461bcd60e51b81526020600482015260096024820152682737ba1037bbb732b960b91b60448201526064016106a2565b5f5b8181101561084c575f838383818110610787576107876120b6565b905060200201602081019061079c9190611da1565b6001600160a01b0316036107f25760405162461bcd60e51b815260206004820152601860248201527f496e76616c6964206f70657261746f722061646472657373000000000000000060448201526064016106a2565b6001805f858585818110610808576108086120b6565b905060200201602081019061081d9190611da1565b6001600160a01b0316815260208101919091526040015f20805460ff191691151591909117905560010161076c565b505050565b5f6020819052908152604090208054600182015460028301805492936001600160a01b039092169261088290612084565b80601f01602080910402602001604051908101604052809291908181526020018280546108ae90612084565b80156108f95780601f106108d0576101008083540402835291602001916108f9565b820191905f5260205f20905b8154815290600101906020018083116108dc57829003601f168201915b50505050600383015460048401546005909401549293909290915060ff8082169161010090041687565b6040805160e0810182525f8082526020808301829052606083850181905283018290526080830182905260a0830182905260c08301829052848252819052919091205482906109a65760405162461bcd60e51b815260206004820152600f60248201526e13dc99195c881b9bdd08199bdd5b99608a1b60448201526064016106a2565b5f8381526020818152604091829020825160e0810184528154815260018201546001600160a01b03169281019290925260028101805492939192918401916109ed90612084565b80601f0160208091040260200160405190810160405280929190818152602001828054610a1990612084565b8015610a645780601f10610a3b57610100808354040283529160200191610a64565b820191905f5260205f20905b815481529060010190602001808311610a4757829003601f168201915b5050509183525050600382015460208201526004820154604082015260059091015460ff8082161515606084015261010090910416151560809091015291505b50919050565b6005546001600160a01b03163314610af05760405162461bcd60e51b81526020600482015260096024820152682737ba1037bbb732b960b91b60448201526064016106a2565b565b6003546060908310610b465760405162461bcd60e51b815260206004820152601960248201527f537461727420696e646578206f7574206f6620626f756e64730000000000000060448201526064016106a2565b5f610b5183856120de565b600354909150811115610b6357506003545b5f610b6e85836120f1565b90508067ffffffffffffffff811115610b8957610b89612104565b604051908082528060200260200182016040528015610bb2578160200160208202803683370190505b5092505f5b81811015610c09576003610bcb82886120de565b81548110610bdb57610bdb6120b6565b905f5260205f200154848281518110610bf657610bf66120b6565b6020908102919091010152600101610bb7565b5050505b92915050565b5f5b8181101561084c575f838383818110610c3057610c306120b6565b602090810292909201355f81815292839052604090922054919250610c5790505750610d36565b5f8181526020819052604090206005810154610100900460ff1615610c7d575050610d36565b5f8160030154421180610c9c575060018201546001600160a01b031633145b80610cb55750335f9081526002602052604090205460ff165b90508015610d325760058201805461ff00191661010017905560088054905f610cdd83612118565b9190505550610ceb83611cd0565b60018201546040514281526001600160a01b039091169084907f3dc2fc6adfbcdcebd682d59653ad61dba606e5b7989ed891d6c97ab276d5477c9060200160405180910390a35b5050505b600101610c15565b6003545f908210610d915760405162461bcd60e51b815260206004820152601360248201527f496e646578206f7574206f6620626f756e64730000000000000000000000000060448201526064016106a2565b60038281548110610da457610da46120b6565b905f5260205f2001549050919050565b6005546001600160a01b03163314610dfa5760405162461bcd60e51b81526020600482015260096024820152682737ba1037bbb732b960b91b60448201526064016106a2565b6001600160a01b038116610e505760405162461bcd60e51b815260206004820152601860248201527f496e76616c6964206f70657261746f722061646472657373000000000000000060448201526064016106a2565b6001600160a01b03165f908152600160208190526040909120805460ff19169091179055565b6005546001600160a01b03163314610ebc5760405162461bcd60e51b81526020600482015260096024820152682737ba1037bbb732b960b91b60448201526064016106a2565b6001600160a01b03165f908152600260205260409020805460ff19169055565b335f9081526001602052604090205460609060ff16610f3d5760405162461bcd60e51b815260206004820152601760248201527f4f70657261746f72206e6f7420617574686f72697a656400000000000000000060448201526064016106a2565b5f828152602081905260409020548290610f8b5760405162461bcd60e51b815260206004820152600f60248201526e13dc99195c881b9bdd08199bdd5b99608a1b60448201526064016106a2565b5f838152602081905260409020600581015460ff1615610fed5760405162461bcd60e51b815260206004820152601760248201527f4f7264657220616c72656164792072657472696576656400000000000000000060448201526064016106a2565b6005810154610100900460ff16156110475760405162461bcd60e51b815260206004820152600d60248201527f4f7264657220657870697265640000000000000000000000000000000000000060448201526064016106a2565b806003015442111561109b5760405162461bcd60e51b815260206004820152601560248201527f4f7264657220646561646c696e6520706173736564000000000000000000000060448201526064016106a2565b60058101805460ff1916600117905560078054905f6110b983612118565b9091555050604051428152339085907f45d2b9500c21c19b5d7837474bfe8b539ae8361ce66a1ab1d4f3e1011cbf733d9060200160405180910390a380600201805461110490612084565b80601f016020809104026020016040519081016040528092919081815260200182805461113090612084565b801561117b5780601f106111525761010080835404028352916020019161117b565b820191905f5260205f20905b81548152906001019060200180831161115e57829003601f168201915b505050505092505050919050565b6005546001600160a01b031633146111cf5760405162461bcd60e51b81526020600482015260096024820152682737ba1037bbb732b960b91b60448201526064016106a2565b6001600160a01b03165f908152600160205260409020805460ff19169055565b5f805b6003548110801561120257508282105b1561084c575f6003828154811061121b5761121b6120b6565b905f5260205f20015490505f805f8381526020019081526020015f20905080600301544211801561125657506005810154610100900460ff16155b156112e15760058101805461ff00191661010017905560088054905f61127b83612118565b919050555061128982611cd0565b60018101546040514281526001600160a01b039091169083907f3dc2fc6adfbcdcebd682d59653ad61dba606e5b7989ed891d6c97ab276d5477c9060200160405180910390a3836112d981612118565b9450506112ef565b826112eb81612118565b9350505b50506111f2565b60605f805b600354811015611474575f60038281548110611319576113196120b6565b5f9182526020808320909101548083528282526040808420815160e0810183528154815260018201546001600160a01b03169481019490945260028101805493965090929184019161136a90612084565b80601f016020809104026020016040519081016040528092919081815260200182805461139690612084565b80156113e15780601f106113b8576101008083540402835291602001916113e1565b820191905f5260205f20905b8154815290600101906020018083116113c457829003601f168201915b505050918352505060038201546020808301919091526004830154604083015260059092015460ff808216151560608401526101009091041615156080909101528101519091506001600160a01b0380891691160361146a57858061145757508060c00151158015611457575080606001514211155b1561146a578361146681612118565b9450505b50506001016112fb565b508067ffffffffffffffff81111561148e5761148e612104565b6040519080825280602002602001820160405280156114b7578160200160208202803683370190505b5091505f805b600354811015610c09575f600382815481106114db576114db6120b6565b5f9182526020808320909101548083528282526040808420815160e0810183528154815260018201546001600160a01b03169481019490945260028101805493965090929184019161152c90612084565b80601f016020809104026020016040519081016040528092919081815260200182805461155890612084565b80156115a35780601f1061157a576101008083540402835291602001916115a3565b820191905f5260205f20905b81548152906001019060200180831161158657829003601f168201915b505050918352505060038201546020808301919091526004830154604083015260059092015460ff808216151560608401526101009091041615156080909101528101519091506001600160a01b03808a1691160361164a57868061161957508060c00151158015611619575080606001514211155b1561164a5781868581518110611631576116316120b6565b60209081029190910101528361164681612118565b9450505b50506001016114bd565b335f9081526002602052604090205460ff166116b25760405162461bcd60e51b815260206004820152601360248201527f486f6f6b206e6f7420617574686f72697a65640000000000000000000000000060448201526064016106a2565b846116ff5760405162461bcd60e51b815260206004820152601060248201527f496e76616c6964206f726465722049440000000000000000000000000000000060448201526064016106a2565b6001600160a01b0384166117555760405162461bcd60e51b815260206004820152601660248201527f496e76616c69642074726164657220616464726573730000000000000000000060448201526064016106a2565b816117a25760405162461bcd60e51b815260206004820152601560248201527f456d70747920656e63727970746564206f72646572000000000000000000000060448201526064016106a2565b6117ae61012c426120de565b811180156117c857506117c462015180426120de565b8111155b6118145760405162461bcd60e51b815260206004820152601060248201527f496e76616c696420646561646c696e650000000000000000000000000000000060448201526064016106a2565b5f858152602081905260409020541561186f5760405162461bcd60e51b815260206004820152601460248201527f4f7264657220616c72656164792065786973747300000000000000000000000060448201526064016106a2565b5f6040518060e00160405280878152602001866001600160a01b0316815260200185858080601f0160208091040260200160405190810160405280939291908181526020018383808284375f92018290525093855250505060208083018690524260408085019190915260608401839052608090930182905289825281815290829020835181559083015160018201805473ffffffffffffffffffffffffffffffffffffffff19166001600160a01b039092169190911790559082015191925082916002820190611940908261217b565b506060820151600382810191909155608083015160048084019190915560a08401516005909301805460c09095015161ffff1990951693151561ff00191693909317610100941515949094029390931790915580545f898152602093909352604083208190556001810182559082527fc2575a0e9e593c00f959f8c92f12db2869c3395a3b0502d05e2516446f71f85b0187905560068054916119e283612118565b9190505550846001600160a01b0316867fb75136b7070bf907a54bb5de32dd6b209aa95c9b55776cf41bcf4ddc4431c2de868642604051611a2593929190612236565b60405180910390a3505050505050565b60038181548110611a44575f80fd5b5f91825260209091200154905081565b6005546001600160a01b03163314611a9a5760405162461bcd60e51b81526020600482015260096024820152682737ba1037bbb732b960b91b60448201526064016106a2565b6001600160a01b038116611af05760405162461bcd60e51b815260206004820152600f60248201527f496e76616c69642061646472657373000000000000000000000000000000000060448201526064016106a2565b6005805473ffffffffffffffffffffffffffffffffffffffff19166001600160a01b0392909216919091179055565b5f818152602081905260409020548190611b6d5760405162461bcd60e51b815260206004820152600f60248201526e13dc99195c881b9bdd08199bdd5b99608a1b60448201526064016106a2565b5f8281526020819052604090206005810154610100900460ff1615611bd45760405162461bcd60e51b815260206004820152601560248201527f4f7264657220616c72656164792065787069726564000000000000000000000060448201526064016106a2565b8060030154421180611bf2575060018101546001600160a01b031633145b80611c0b5750335f9081526002602052604090205460ff165b611c575760405162461bcd60e51b815260206004820152601760248201527f43616e6e6f7420657870697265206f726465722079657400000000000000000060448201526064016106a2565b60058101805461ff00191661010017905560088054905f611c7783612118565b9190505550611c8583611cd0565b60018101546040514281526001600160a01b039091169084907f3dc2fc6adfbcdcebd682d59653ad61dba606e5b7989ed891d6c97ab276d5477c9060200160405180910390a3505050565b5f81815260046020526040812054600354909190611cf0906001906120f1565b9050808214611d4b575f60038281548110611d0d57611d0d6120b6565b905f5260205f20015490508060038481548110611d2c57611d2c6120b6565b5f91825260208083209091019290925591825260049052604090208290555b6003805480611d5c57611d5c61226d565b5f828152602080822083015f19908101839055909201909255938152600490935250506040812055565b80356001600160a01b0381168114611d9c575f80fd5b919050565b5f60208284031215611db1575f80fd5b611dba82611d86565b9392505050565b5f60208284031215611dd1575f80fd5b5035919050565b5f8083601f840112611de8575f80fd5b50813567ffffffffffffffff811115611dff575f80fd5b6020830191508360208260051b8501011115611e19575f80fd5b9250929050565b5f8060208385031215611e31575f80fd5b823567ffffffffffffffff811115611e47575f80fd5b611e5385828601611dd8565b90969095509350505050565b5f81518084528060208401602086015e5f602082860101526020601f19601f83011685010191505092915050565b8781526001600160a01b038716602082015260e060408201525f611eb460e0830188611e5f565b606083019690965250608081019390935290151560a0830152151560c0909101529392505050565b60208152815160208201526001600160a01b0360208301511660408201525f604083015160e06060840152611f15610100840182611e5f565b905060608401516080840152608084015160a084015260a0840151151560c084015260c0840151151560e08401528091505092915050565b5f8060408385031215611f5e575f80fd5b50508035926020909101359150565b602080825282518282018190525f918401906040840190835b81811015611fa4578351835260209384019390920191600101611f86565b509095945050505050565b602081525f611dba6020830184611e5f565b5f8060408385031215611fd2575f80fd5b611fdb83611d86565b915060208301358015158114611fef575f80fd5b809150509250929050565b5f805f805f6080868803121561200e575f80fd5b8535945061201e60208701611d86565b9350604086013567ffffffffffffffff811115612039575f80fd5b8601601f81018813612049575f80fd5b803567ffffffffffffffff81111561205f575f80fd5b886020828401011115612070575f80fd5b959894975060200195606001359392505050565b600181811c9082168061209857607f821691505b602082108103610aa457634e487b7160e01b5f52602260045260245ffd5b634e487b7160e01b5f52603260045260245ffd5b634e487b7160e01b5f52601160045260245ffd5b80820180821115610c0d57610c0d6120ca565b81810381811115610c0d57610c0d6120ca565b634e487b7160e01b5f52604160045260245ffd5b5f60018201612129576121296120ca565b5060010190565b601f82111561084c57805f5260205f20601f840160051c810160208510156121555750805b601f840160051c820191505b81811015612174575f8155600101612161565b5050505050565b815167ffffffffffffffff81111561219557612195612104565b6121a9816121a38454612084565b84612130565b6020601f8211600181146121db575f83156121c45750848201515b5f19600385901b1c1916600184901b178455612174565b5f84815260208120601f198516915b8281101561220a57878501518255602094850194600190920191016121ea565b508482101561222757868401515f19600387901b60f8161c191681555b50505050600190811b01905550565b60408152826040820152828460608301375f606084830101525f6060601f19601f8601168301019050826020830152949350505050565b634e487b7160e01b5f52603160045260245ffdfea26469706673582212201efc3e3e5cc55e94f71d5f4ea5033a8dd033414330cbfe42935b0efb209ce51c64736f6c634300081a0033","linkReferences":{}},"methodIdentifiers":{"MAX_ORDER_LIFETIME()":"8db7b5bc","MIN_ORDER_LIFETIME()":"ec546d45","activeOrderIds(uint256)":"eabc1bb7","authorizeHook(address)":"2eb2567a","authorizeOperator(address)":"959b8c3f","authorizedHooks(address)":"86c2acb7","authorizedOperators(address)":"181d989b","batchAuthorizeOperators(address[])":"38d7c350","batchExpireOrders(bytes32[])":"57d89d59","cleanupExpiredOrders(uint256)":"bc21a346","emergencyPause()":"51858e27","emergencyUnpause()":"4a4e3bd5","expireOrder(bytes32)":"f4b91bb1","getActiveOrderCount()":"815395fc","getActiveOrderId(uint256)":"6e4ca4ab","getActiveOrderIds(uint256,uint256)":"52fe5437","getOrdersByTrader(address,bool)":"cf405077","getVaultOrder(bytes32)":"4842fc0f","getVaultStats()":"a59aa5a6","isAuthorizedHook(address)":"43e30d24","isAuthorizedOperator(address)":"82d52c1e","isValidOrder(bytes32)":"24fc4fbd","orderIdToIndex(bytes32)":"1c977cf9","owner()":"8da5cb5b","retrieveOrder(bytes32)":"aea0553d","revokeHookAuthorization(address)":"aac96593","revokeOperatorAuthorization(address)":"b6e0338b","storeOrder(bytes32,address,bytes,uint256)":"e6c2a8f8","totalOrdersExpired()":"34c9d5db","totalOrdersRetrieved()":"d3446648","totalOrdersStored()":"d1c4649a","transferOwnership(address)":"f2fde38b","vaultOrders(bytes32)":"3b131024"},"id":0}