{"abi":[{"type":"constructor","inputs":[{"name":"_poolManager","type":"address","internalType":"contract IPoolManager"},{"name":"_orderVault","type":"address","internalType":"address"},{"name":"_serviceManager","type":"address","internalType":"address"}],"stateMutability":"nonpayable"},{"type":"function","name":"afterAddLiquidity","inputs":[{"name":"","type":"address","internalType":"address"},{"name":"","type":"tuple","internalType":"struct PoolKey","components":[{"name":"currency0","type":"address","internalType":"Currency"},{"name":"currency1","type":"address","internalType":"Currency"},{"name":"fee","type":"uint24","internalType":"uint24"},{"name":"tickSpacing","type":"int24","internalType":"int24"},{"name":"hooks","type":"address","internalType":"contract IHooks"}]},{"name":"","type":"tuple","internalType":"struct ModifyLiquidityParams","components":[{"name":"tickLower","type":"int24","internalType":"int24"},{"name":"tickUpper","type":"int24","internalType":"int24"},{"name":"liquidityDelta","type":"int256","internalType":"int256"},{"name":"salt","type":"bytes32","internalType":"bytes32"}]},{"name":"","type":"int256","internalType":"BalanceDelta"},{"name":"","type":"int256","internalType":"BalanceDelta"},{"name":"","type":"bytes","internalType":"bytes"}],"outputs":[{"name":"","type":"bytes4","internalType":"bytes4"},{"name":"","type":"int256","internalType":"BalanceDelta"}],"stateMutability":"pure"},{"type":"function","name":"afterDonate","inputs":[{"name":"","type":"address","internalType":"address"},{"name":"","type":"tuple","internalType":"struct PoolKey","components":[{"name":"currency0","type":"address","internalType":"Currency"},{"name":"currency1","type":"address","internalType":"Currency"},{"name":"fee","type":"uint24","internalType":"uint24"},{"name":"tickSpacing","type":"int24","internalType":"int24"},{"name":"hooks","type":"address","internalType":"contract IHooks"}]},{"name":"","type":"uint256","internalType":"uint256"},{"name":"","type":"uint256","internalType":"uint256"},{"name":"","type":"bytes","internalType":"bytes"}],"outputs":[{"name":"","type":"bytes4","internalType":"bytes4"}],"stateMutability":"pure"},{"type":"function","name":"afterInitialize","inputs":[{"name":"","type":"address","internalType":"address"},{"name":"","type":"tuple","internalType":"struct PoolKey","components":[{"name":"currency0","type":"address","internalType":"Currency"},{"name":"currency1","type":"address","internalType":"Currency"},{"name":"fee","type":"uint24","internalType":"uint24"},{"name":"tickSpacing","type":"int24","internalType":"int24"},{"name":"hooks","type":"address","internalType":"contract IHooks"}]},{"name":"","type":"uint160","internalType":"uint160"},{"name":"","type":"int24","internalType":"int24"}],"outputs":[{"name":"","type":"bytes4","internalType":"bytes4"}],"stateMutability":"pure"},{"type":"function","name":"afterRemoveLiquidity","inputs":[{"name":"","type":"address","internalType":"address"},{"name":"","type":"tuple","internalType":"struct PoolKey","components":[{"name":"currency0","type":"address","internalType":"Currency"},{"name":"currency1","type":"address","internalType":"Currency"},{"name":"fee","type":"uint24","internalType":"uint24"},{"name":"tickSpacing","type":"int24","internalType":"int24"},{"name":"hooks","type":"address","internalType":"contract IHooks"}]},{"name":"","type":"tuple","internalType":"struct ModifyLiquidityParams","components":[{"name":"tickLower","type":"int24","internalType":"int24"},{"name":"tickUpper","type":"int24","internalType":"int24"},{"name":"liquidityDelta","type":"int256","internalType":"int256"},{"name":"salt","type":"bytes32","internalType":"bytes32"}]},{"name":"","type":"int256","internalType":"BalanceDelta"},{"name":"","type":"int256","internalType":"BalanceDelta"},{"name":"","type":"bytes","internalType":"bytes"}],"outputs":[{"name":"","type":"bytes4","internalType":"bytes4"},{"name":"","type":"int256","internalType":"BalanceDelta"}],"stateMutability":"pure"},{"type":"function","name":"afterSwap","inputs":[{"name":"","type":"address","internalType":"address"},{"name":"key","type":"tuple","internalType":"struct PoolKey","components":[{"name":"currency0","type":"address","internalType":"Currency"},{"name":"currency1","type":"address","internalType":"Currency"},{"name":"fee","type":"uint24","internalType":"uint24"},{"name":"tickSpacing","type":"int24","internalType":"int24"},{"name":"hooks","type":"address","internalType":"contract IHooks"}]},{"name":"","type":"tuple","internalType":"struct SwapParams","components":[{"name":"zeroForOne","type":"bool","internalType":"bool"},{"name":"amountSpecified","type":"int256","internalType":"int256"},{"name":"sqrtPriceLimitX96","type":"uint160","internalType":"uint160"}]},{"name":"delta","type":"int256","internalType":"BalanceDelta"},{"name":"","type":"bytes","internalType":"bytes"}],"outputs":[{"name":"","type":"bytes4","internalType":"bytes4"},{"name":"","type":"int128","internalType":"int128"}],"stateMutability":"nonpayable"},{"type":"function","name":"authorizedServiceManagers","inputs":[{"name":"","type":"address","internalType":"address"}],"outputs":[{"name":"","type":"bool","internalType":"bool"}],"stateMutability":"view"},{"type":"function","name":"beforeAddLiquidity","inputs":[{"name":"","type":"address","internalType":"address"},{"name":"","type":"tuple","internalType":"struct PoolKey","components":[{"name":"currency0","type":"address","internalType":"Currency"},{"name":"currency1","type":"address","internalType":"Currency"},{"name":"fee","type":"uint24","internalType":"uint24"},{"name":"tickSpacing","type":"int24","internalType":"int24"},{"name":"hooks","type":"address","internalType":"contract IHooks"}]},{"name":"","type":"tuple","internalType":"struct ModifyLiquidityParams","components":[{"name":"tickLower","type":"int24","internalType":"int24"},{"name":"tickUpper","type":"int24","internalType":"int24"},{"name":"liquidityDelta","type":"int256","internalType":"int256"},{"name":"salt","type":"bytes32","internalType":"bytes32"}]},{"name":"","type":"bytes","internalType":"bytes"}],"outputs":[{"name":"","type":"bytes4","internalType":"bytes4"}],"stateMutability":"pure"},{"type":"function","name":"beforeDonate","inputs":[{"name":"","type":"address","internalType":"address"},{"name":"","type":"tuple","internalType":"struct PoolKey","components":[{"name":"currency0","type":"address","internalType":"Currency"},{"name":"currency1","type":"address","internalType":"Currency"},{"name":"fee","type":"uint24","internalType":"uint24"},{"name":"tickSpacing","type":"int24","internalType":"int24"},{"name":"hooks","type":"address","internalType":"contract IHooks"}]},{"name":"","type":"uint256","internalType":"uint256"},{"name":"","type":"uint256","internalType":"uint256"},{"name":"","type":"bytes","internalType":"bytes"}],"outputs":[{"name":"","type":"bytes4","internalType":"bytes4"}],"stateMutability":"pure"},{"type":"function","name":"beforeInitialize","inputs":[{"name":"","type":"address","internalType":"address"},{"name":"","type":"tuple","internalType":"struct PoolKey","components":[{"name":"currency0","type":"address","internalType":"Currency"},{"name":"currency1","type":"address","internalType":"Currency"},{"name":"fee","type":"uint24","internalType":"uint24"},{"name":"tickSpacing","type":"int24","internalType":"int24"},{"name":"hooks","type":"address","internalType":"contract IHooks"}]},{"name":"","type":"uint160","internalType":"uint160"}],"outputs":[{"name":"","type":"bytes4","internalType":"bytes4"}],"stateMutability":"pure"},{"type":"function","name":"beforeRemoveLiquidity","inputs":[{"name":"","type":"address","internalType":"address"},{"name":"","type":"tuple","internalType":"struct PoolKey","components":[{"name":"currency0","type":"address","internalType":"Currency"},{"name":"currency1","type":"address","internalType":"Currency"},{"name":"fee","type":"uint24","internalType":"uint24"},{"name":"tickSpacing","type":"int24","internalType":"int24"},{"name":"hooks","type":"address","internalType":"contract IHooks"}]},{"name":"","type":"tuple","internalType":"struct ModifyLiquidityParams","components":[{"name":"tickLower","type":"int24","internalType":"int24"},{"name":"tickUpper","type":"int24","internalType":"int24"},{"name":"liquidityDelta","type":"int256","internalType":"int256"},{"name":"salt","type":"bytes32","internalType":"bytes32"}]},{"name":"","type":"bytes","internalType":"bytes"}],"outputs":[{"name":"","type":"bytes4","internalType":"bytes4"}],"stateMutability":"pure"},{"type":"function","name":"beforeSwap","inputs":[{"name":"sender","type":"address","internalType":"address"},{"name":"key","type":"tuple","internalType":"struct PoolKey","components":[{"name":"currency0","type":"address","internalType":"Currency"},{"name":"currency1","type":"address","internalType":"Currency"},{"name":"fee","type":"uint24","internalType":"uint24"},{"name":"tickSpacing","type":"int24","internalType":"int24"},{"name":"hooks","type":"address","internalType":"contract IHooks"}]},{"name":"params","type":"tuple","internalType":"struct SwapParams","components":[{"name":"zeroForOne","type":"bool","internalType":"bool"},{"name":"amountSpecified","type":"int256","internalType":"int256"},{"name":"sqrtPriceLimitX96","type":"uint160","internalType":"uint160"}]},{"name":"hookData","type":"bytes","internalType":"bytes"}],"outputs":[{"name":"","type":"bytes4","internalType":"bytes4"},{"name":"","type":"int256","internalType":"BeforeSwapDelta"},{"name":"","type":"uint24","internalType":"uint24"}],"stateMutability":"nonpayable"},{"type":"function","name":"executeVaultOrder","inputs":[{"name":"orderId","type":"bytes32","internalType":"bytes32"},{"name":"proof","type":"bytes","internalType":"bytes"},{"name":"signatures","type":"bytes","internalType":"bytes"}],"outputs":[],"stateMutability":"nonpayable"},{"type":"function","name":"fallbackToAMM","inputs":[{"name":"orderId","type":"bytes32","internalType":"bytes32"}],"outputs":[],"stateMutability":"nonpayable"},{"type":"function","name":"getHookPermissions","inputs":[],"outputs":[{"name":"","type":"tuple","internalType":"struct Hooks.Permissions","components":[{"name":"beforeInitialize","type":"bool","internalType":"bool"},{"name":"afterInitialize","type":"bool","internalType":"bool"},{"name":"beforeAddLiquidity","type":"bool","internalType":"bool"},{"name":"afterAddLiquidity","type":"bool","internalType":"bool"},{"name":"beforeRemoveLiquidity","type":"bool","internalType":"bool"},{"name":"afterRemoveLiquidity","type":"bool","internalType":"bool"},{"name":"beforeSwap","type":"bool","internalType":"bool"},{"name":"afterSwap","type":"bool","internalType":"bool"},{"name":"beforeDonate","type":"bool","internalType":"bool"},{"name":"afterDonate","type":"bool","internalType":"bool"},{"name":"beforeSwapReturnDelta","type":"bool","internalType":"bool"},{"name":"afterSwapReturnDelta","type":"bool","internalType":"bool"},{"name":"afterAddLiquidityReturnDelta","type":"bool","internalType":"bool"},{"name":"afterRemoveLiquidityReturnDelta","type":"bool","internalType":"bool"}]}],"stateMutability":"pure"},{"type":"function","name":"getOrder","inputs":[{"name":"orderId","type":"bytes32","internalType":"bytes32"}],"outputs":[{"name":"order","type":"tuple","internalType":"struct IEigenVaultHook.PrivateOrder","components":[{"name":"trader","type":"address","internalType":"address"},{"name":"poolKey","type":"tuple","internalType":"struct PoolKey","components":[{"name":"currency0","type":"address","internalType":"Currency"},{"name":"currency1","type":"address","internalType":"Currency"},{"name":"fee","type":"uint24","internalType":"uint24"},{"name":"tickSpacing","type":"int24","internalType":"int24"},{"name":"hooks","type":"address","internalType":"contract IHooks"}]},{"name":"zeroForOne","type":"bool","internalType":"bool"},{"name":"amountSpecified","type":"int256","internalType":"int256"},{"name":"commitment","type":"bytes32","internalType":"bytes32"},{"name":"deadline","type":"uint256","internalType":"uint256"},{"name":"timestamp","type":"uint256","internalType":"uint256"},{"name":"executed","type":"bool","internalType":"bool"}]}],"stateMutability":"view"},{"type":"function","name":"getPoolExecutionStats","inputs":[{"name":"key","type":"tuple","internalType":"struct PoolKey","components":[{"name":"currency0","type":"address","internalType":"Currency"},{"name":"currency1","type":"address","internalType":"Currency"},{"name":"fee","type":"uint24","internalType":"uint24"},{"name":"tickSpacing","type":"int24","internalType":"int24"},{"name":"hooks","type":"address","internalType":"contract IHooks"}]}],"outputs":[{"name":"stats","type":"tuple","internalType":"struct EigenVaultHook.ExecutionStats","components":[{"name":"totalOrders","type":"uint256","internalType":"uint256"},{"name":"successfulMatches","type":"uint256","internalType":"uint256"},{"name":"fallbackExecutions","type":"uint256","internalType":"uint256"},{"name":"totalVolume","type":"uint256","internalType":"uint256"},{"name":"averageExecutionTime","type":"uint256","internalType":"uint256"}]}],"stateMutability":"view"},{"type":"function","name":"getPoolId","inputs":[{"name":"key","type":"tuple","internalType":"struct PoolKey","components":[{"name":"currency0","type":"address","internalType":"Currency"},{"name":"currency1","type":"address","internalType":"Currency"},{"name":"fee","type":"uint24","internalType":"uint24"},{"name":"tickSpacing","type":"int24","internalType":"int24"},{"name":"hooks","type":"address","internalType":"contract IHooks"}]}],"outputs":[{"name":"","type":"bytes32","internalType":"bytes32"}],"stateMutability":"pure"},{"type":"function","name":"getTraderOrderCount","inputs":[{"name":"trader","type":"address","internalType":"address"}],"outputs":[{"name":"count","type":"uint256","internalType":"uint256"}],"stateMutability":"view"},{"type":"function","name":"getVaultThreshold","inputs":[{"name":"key","type":"tuple","internalType":"struct PoolKey","components":[{"name":"currency0","type":"address","internalType":"Currency"},{"name":"currency1","type":"address","internalType":"Currency"},{"name":"fee","type":"uint24","internalType":"uint24"},{"name":"tickSpacing","type":"int24","internalType":"int24"},{"name":"hooks","type":"address","internalType":"contract IHooks"}]}],"outputs":[{"name":"threshold","type":"uint256","internalType":"uint256"}],"stateMutability":"view"},{"type":"function","name":"isLargeOrder","inputs":[{"name":"amountSpecified","type":"int256","internalType":"int256"},{"name":"key","type":"tuple","internalType":"struct PoolKey","components":[{"name":"currency0","type":"address","internalType":"Currency"},{"name":"currency1","type":"address","internalType":"Currency"},{"name":"fee","type":"uint24","internalType":"uint24"},{"name":"tickSpacing","type":"int24","internalType":"int24"},{"name":"hooks","type":"address","internalType":"contract IHooks"}]}],"outputs":[{"name":"","type":"bool","internalType":"bool"}],"stateMutability":"view"},{"type":"function","name":"isOrderExecutable","inputs":[{"name":"orderId","type":"bytes32","internalType":"bytes32"}],"outputs":[{"name":"executable","type":"bool","internalType":"bool"}],"stateMutability":"view"},{"type":"function","name":"orderNonce","inputs":[],"outputs":[{"name":"","type":"uint256","internalType":"uint256"}],"stateMutability":"view"},{"type":"function","name":"orderVault","inputs":[],"outputs":[{"name":"","type":"address","internalType":"address"}],"stateMutability":"view"},{"type":"function","name":"orders","inputs":[{"name":"","type":"bytes32","internalType":"bytes32"}],"outputs":[{"name":"trader","type":"address","internalType":"address"},{"name":"poolKey","type":"tuple","internalType":"struct PoolKey","components":[{"name":"currency0","type":"address","internalType":"Currency"},{"name":"currency1","type":"address","internalType":"Currency"},{"name":"fee","type":"uint24","internalType":"uint24"},{"name":"tickSpacing","type":"int24","internalType":"int24"},{"name":"hooks","type":"address","internalType":"contract IHooks"}]},{"name":"zeroForOne","type":"bool","internalType":"bool"},{"name":"amountSpecified","type":"int256","internalType":"int256"},{"name":"commitment","type":"bytes32","internalType":"bytes32"},{"name":"deadline","type":"uint256","internalType":"uint256"},{"name":"timestamp","type":"uint256","internalType":"uint256"},{"name":"executed","type":"bool","internalType":"bool"}],"stateMutability":"view"},{"type":"function","name":"owner","inputs":[],"outputs":[{"name":"","type":"address","internalType":"address"}],"stateMutability":"view"},{"type":"function","name":"paused","inputs":[],"outputs":[{"name":"","type":"bool","internalType":"bool"}],"stateMutability":"view"},{"type":"function","name":"poolManager","inputs":[],"outputs":[{"name":"","type":"address","internalType":"contract IPoolManager"}],"stateMutability":"view"},{"type":"function","name":"poolStats","inputs":[{"name":"","type":"bytes32","internalType":"bytes32"}],"outputs":[{"name":"totalOrders","type":"uint256","internalType":"uint256"},{"name":"successfulMatches","type":"uint256","internalType":"uint256"},{"name":"fallbackExecutions","type":"uint256","internalType":"uint256"},{"name":"totalVolume","type":"uint256","internalType":"uint256"},{"name":"averageExecutionTime","type":"uint256","internalType":"uint256"}],"stateMutability":"view"},{"type":"function","name":"poolThresholds","inputs":[{"name":"","type":"bytes32","internalType":"bytes32"}],"outputs":[{"name":"","type":"uint256","internalType":"uint256"}],"stateMutability":"view"},{"type":"function","name":"routeToVault","inputs":[{"name":"trader","type":"address","internalType":"address"},{"name":"key","type":"tuple","internalType":"struct PoolKey","components":[{"name":"currency0","type":"address","internalType":"Currency"},{"name":"currency1","type":"address","internalType":"Currency"},{"name":"fee","type":"uint24","internalType":"uint24"},{"name":"tickSpacing","type":"int24","internalType":"int24"},{"name":"hooks","type":"address","internalType":"contract IHooks"}]},{"name":"params","type":"tuple","internalType":"struct SwapParams","components":[{"name":"zeroForOne","type":"bool","internalType":"bool"},{"name":"amountSpecified","type":"int256","internalType":"int256"},{"name":"sqrtPriceLimitX96","type":"uint160","internalType":"uint160"}]},{"name":"hookData","type":"bytes","internalType":"bytes"}],"outputs":[{"name":"orderId","type":"bytes32","internalType":"bytes32"}],"stateMutability":"nonpayable"},{"type":"function","name":"serviceManager","inputs":[],"outputs":[{"name":"","type":"address","internalType":"address"}],"stateMutability":"view"},{"type":"function","name":"setPaused","inputs":[{"name":"_paused","type":"bool","internalType":"bool"}],"outputs":[],"stateMutability":"nonpayable"},{"type":"function","name":"setPoolThreshold","inputs":[{"name":"key","type":"tuple","internalType":"struct PoolKey","components":[{"name":"currency0","type":"address","internalType":"Currency"},{"name":"currency1","type":"address","internalType":"Currency"},{"name":"fee","type":"uint24","internalType":"uint24"},{"name":"tickSpacing","type":"int24","internalType":"int24"},{"name":"hooks","type":"address","internalType":"contract IHooks"}]},{"name":"threshold","type":"uint256","internalType":"uint256"}],"outputs":[],"stateMutability":"nonpayable"},{"type":"function","name":"setServiceManagerAuthorization","inputs":[{"name":"serviceManagerAddr","type":"address","internalType":"address"},{"name":"authorized","type":"bool","internalType":"bool"}],"outputs":[],"stateMutability":"nonpayable"},{"type":"function","name":"transferOwnership","inputs":[{"name":"newOwner","type":"address","internalType":"address"}],"outputs":[],"stateMutability":"nonpayable"},{"type":"function","name":"updateVaultThreshold","inputs":[{"name":"newThreshold","type":"uint256","internalType":"uint256"}],"outputs":[],"stateMutability":"nonpayable"},{"type":"function","name":"usedCommitments","inputs":[{"name":"","type":"bytes32","internalType":"bytes32"}],"outputs":[{"name":"","type":"bool","internalType":"bool"}],"stateMutability":"view"},{"type":"function","name":"vaultThresholdBps","inputs":[],"outputs":[{"name":"","type":"uint256","internalType":"uint256"}],"stateMutability":"view"},{"type":"event","name":"OrderExecuted","inputs":[{"name":"trader","type":"address","indexed":true,"internalType":"address"},{"name":"poolKey","type":"tuple","indexed":true,"internalType":"struct PoolKey","components":[{"name":"currency0","type":"address","internalType":"Currency"},{"name":"currency1","type":"address","internalType":"Currency"},{"name":"fee","type":"uint24","internalType":"uint24"},{"name":"tickSpacing","type":"int24","internalType":"int24"},{"name":"hooks","type":"address","internalType":"contract IHooks"}]},{"name":"zeroForOne","type":"bool","indexed":false,"internalType":"bool"},{"name":"amountSpecified","type":"int256","indexed":false,"internalType":"int256"},{"name":"matchHash","type":"bytes32","indexed":false,"internalType":"bytes32"}],"anonymous":false},{"type":"event","name":"OrderFallbackToAMM","inputs":[{"name":"orderId","type":"bytes32","indexed":true,"internalType":"bytes32"},{"name":"trader","type":"address","indexed":true,"internalType":"address"},{"name":"reason","type":"string","indexed":false,"internalType":"string"}],"anonymous":false},{"type":"event","name":"OrderRoutedToVault","inputs":[{"name":"trader","type":"address","indexed":true,"internalType":"address"},{"name":"orderId","type":"bytes32","indexed":true,"internalType":"bytes32"},{"name":"poolKey","type":"tuple","indexed":true,"internalType":"struct PoolKey","components":[{"name":"currency0","type":"address","internalType":"Currency"},{"name":"currency1","type":"address","internalType":"Currency"},{"name":"fee","type":"uint24","internalType":"uint24"},{"name":"tickSpacing","type":"int24","internalType":"int24"},{"name":"hooks","type":"address","internalType":"contract IHooks"}]},{"name":"zeroForOne","type":"bool","indexed":false,"internalType":"bool"},{"name":"amountSpecified","type":"uint256","indexed":false,"internalType":"uint256"},{"name":"commitment","type":"bytes32","indexed":false,"internalType":"bytes32"}],"anonymous":false},{"type":"event","name":"OwnershipTransferred","inputs":[{"name":"previousOwner","type":"address","indexed":true,"internalType":"address"},{"name":"newOwner","type":"address","indexed":true,"internalType":"address"}],"anonymous":false},{"type":"event","name":"PoolThresholdUpdated","inputs":[{"name":"poolId","type":"bytes32","indexed":true,"internalType":"bytes32"},{"name":"oldThreshold","type":"uint256","indexed":false,"internalType":"uint256"},{"name":"newThreshold","type":"uint256","indexed":false,"internalType":"uint256"}],"anonymous":false},{"type":"event","name":"ServiceManagerAuthorized","inputs":[{"name":"serviceManager","type":"address","indexed":true,"internalType":"address"},{"name":"authorized","type":"bool","indexed":false,"internalType":"bool"}],"anonymous":false},{"type":"event","name":"VaultOrderExecuted","inputs":[{"name":"orderId","type":"bytes32","indexed":true,"internalType":"bytes32"},{"name":"trader","type":"address","indexed":true,"internalType":"address"},{"name":"amountIn","type":"uint256","indexed":false,"internalType":"uint256"},{"name":"matchHash","type":"bytes32","indexed":false,"internalType":"bytes32"},{"name":"operators","type":"address[]","indexed":false,"internalType":"address[]"}],"anonymous":false},{"type":"event","name":"VaultThresholdUpdated","inputs":[{"name":"oldThreshold","type":"uint256","indexed":false,"internalType":"uint256"},{"name":"newThreshold","type":"uint256","indexed":false,"internalType":"uint256"}],"anonymous":false}],"bytecode":{"object":"0x60e06040526064600155348015610014575f80fd5b506040516159fd3803806159fd8339818101604052810190610036919061020b565b82828173ffffffffffffffffffffffffffffffffffffffff1660808173ffffffffffffffffffffffffffffffffffffffff16815250508073ffffffffffffffffffffffffffffffffffffffff1660a08173ffffffffffffffffffffffffffffffffffffffff1681525050335f806101000a81548173ffffffffffffffffffffffffffffffffffffffff021916908373ffffffffffffffffffffffffffffffffffffffff16021790555050508073ffffffffffffffffffffffffffffffffffffffff1660c08173ffffffffffffffffffffffffffffffffffffffff1681525050600160075f8373ffffffffffffffffffffffffffffffffffffffff1673ffffffffffffffffffffffffffffffffffffffff1681526020019081526020015f205f6101000a81548160ff02191690831515021790555050505061025b565b5f80fd5b5f73ffffffffffffffffffffffffffffffffffffffff82169050919050565b5f61019f82610176565b9050919050565b5f6101b082610195565b9050919050565b6101c0816101a6565b81146101ca575f80fd5b50565b5f815190506101db816101b7565b92915050565b6101ea81610195565b81146101f4575f80fd5b50565b5f81519050610205816101e1565b92915050565b5f805f6060848603121561022257610221610172565b5b5f61022f868287016101cd565b9350506020610240868287016101f7565b9250506040610251868287016101f7565b9150509250925092565b60805160a05160c05161576a6102935f395f6113ab01525f81816112750152611cd401525f81816118890152612288015261576a5ff3fe608060405234801561000f575f80fd5b506004361061022f575f3560e01c806393845e461161012e578063cd9a56e8116100b6578063f2fde38b1161007a578063f2fde38b1461077b578063f3539e8a14610797578063f3a6cffa146107c7578063f57f9a7d146107f7578063f9dcaaf3146108135761022f565b8063cd9a56e8146106b1578063d76b022b146106e1578063dc4c90d3146106fd578063dc98354e1461071b578063e1b4af691461074b5761022f565b80639f660175116100fd5780639f660175146105e4578063b47b2fb114610602578063b6a8b0fa14610633578063c478302d14610663578063c4e833ce146106935761022f565b806393845e461461052e5780639c3f1e901461054c5780639c6b88a8146105835780639f063efc146105b35761022f565b80635004194e116101bc5780636c2bbe7e116101805780636c2bbe7e1461044f5780636fe7e6eb146104805780638da5cb5b146104b05780638f9316a5146104ce57806391402039146104fe5761022f565b80635004194e14610383578063575e24b41461039f5780635778472a146103d15780635c975abb146104015780636181fd0f1461041f5761022f565b806321d0ee701161020357806321d0ee70146102a5578063259982e5146102d557806328a001191461030557806328cd016b146103355780633998fdd3146103655761022f565b8062e4fe011461023357806302d9c7081461024f57806316c38b3c1461026b57806316f8de8914610287575b5f80fd5b61024d60048036038101906102489190612f49565b610847565b005b61026960048036038101906102649190612fa7565b610c0d565b005b61028560048036038101906102809190613007565b610d34565b005b61028f610ddd565b60405161029c9190613041565b60405180910390f35b6102bf60048036038101906102ba9190613155565b610de3565b6040516102cc9190613215565b60405180910390f35b6102ef60048036038101906102ea9190613155565b610e1f565b6040516102fc9190613215565b60405180910390f35b61031f600480360381019061031a919061322e565b610e5b565b60405161032c9190613268565b60405180910390f35b61034f600480360381019061034a919061329f565b610e78565b60405161035c9190613334565b60405180910390f35b61036d6113a9565b60405161037a919061335c565b60405180910390f35b61039d60048036038101906103989190613375565b6113cd565b005b6103b960048036038101906103b4919061329f565b611884565b6040516103c893929190613465565b60405180910390f35b6103eb60048036038101906103e69190612f49565b61199f565b6040516103f8919061368b565b60405180910390f35b610409611bcd565b6040516104169190613268565b60405180910390f35b6104396004803603810190610434919061322e565b611bdf565b6040516104469190613041565b60405180910390f35b610469600480360381019061046491906136cf565b611be5565b60405161047792919061378c565b60405180910390f35b61049a60048036038101906104959190613807565b611c22565b6040516104a79190613215565b60405180910390f35b6104b8611c5e565b6040516104c5919061335c565b60405180910390f35b6104e860048036038101906104e3919061386c565b611c81565b6040516104f59190613041565b60405180910390f35b61051860048036038101906105139190612f49565b611cb5565b6040516105259190613268565b60405180910390f35b610536611cd2565b604051610543919061335c565b60405180910390f35b61056660048036038101906105619190612f49565b611cf6565b60405161057a98979695949392919061390c565b60405180910390f35b61059d6004803603810190610598919061386c565b611eb9565b6040516105aa9190613334565b60405180910390f35b6105cd60048036038101906105c891906136cf565b611ee8565b6040516105db92919061378c565b60405180910390f35b6105ec611f25565b6040516105f99190613041565b60405180910390f35b61061c6004803603810190610617919061398c565b611f2b565b60405161062a929190613a40565b60405180910390f35b61064d60048036038101906106489190613a67565b611fa2565b60405161065a9190613215565b60405180910390f35b61067d6004803603810190610678919061386c565b611fde565b60405161068a9190613b65565b60405180910390f35b61069b612047565b6040516106a89190613c9c565b60405180910390f35b6106cb60048036038101906106c69190612f49565b6120d0565b6040516106d89190613041565b60405180910390f35b6106fb60048036038101906106f69190613cb6565b6120e5565b005b610705612286565b6040516107129190613d14565b60405180910390f35b61073560048036038101906107309190613d2d565b6122aa565b6040516107429190613215565b60405180910390f35b61076560048036038101906107609190613a67565b6122e6565b6040516107729190613215565b60405180910390f35b6107956004803603810190610790919061322e565b612322565b005b6107b160048036038101906107ac9190613da7565b6124de565b6040516107be9190613268565b60405180910390f35b6107e160048036038101906107dc9190612f49565b612559565b6040516107ee9190613268565b60405180910390f35b610811600480360381019061080c9190613de5565b6127d5565b005b61082d60048036038101906108289190612f49565b61291e565b60405161083e959493929190613e23565b60405180910390f35b5f60035f8381526020019081526020015f2090505f73ffffffffffffffffffffffffffffffffffffffff16815f015f9054906101000a900473ffffffffffffffffffffffffffffffffffffffff1673ffffffffffffffffffffffffffffffffffffffff16036108eb576040517f08c379a00000000000000000000000000000000000000000000000000000000081526004016108e290613ece565b60405180910390fd5b806009015f9054906101000a900460ff161561093c576040517f08c379a000000000000000000000000000000000000000000000000000000000815260040161093390613f36565b60405180910390fd5b806007015442118061099b5750805f015f9054906101000a900473ffffffffffffffffffffffffffffffffffffffff1673ffffffffffffffffffffffffffffffffffffffff163373ffffffffffffffffffffffffffffffffffffffff16145b806109ec575060075f3373ffffffffffffffffffffffffffffffffffffffff1673ffffffffffffffffffffffffffffffffffffffff1681526020019081526020015f205f9054906101000a900460ff165b610a2b576040517f08c379a0000000000000000000000000000000000000000000000000000000008152600401610a2290613f9e565b60405180910390fd5b6001816009015f6101000a81548160ff0219169083151502179055505f610af0826001015f015f9054906101000a900473ffffffffffffffffffffffffffffffffffffffff16836001016001015f9054906101000a900473ffffffffffffffffffffffffffffffffffffffff168460010160010160149054906101000a900462ffffff168560010160010160179054906101000a900460020b866001016002015f9054906101000a900473ffffffffffffffffffffffffffffffffffffffff16612950565b905060065f8281526020019081526020015f206002015f815480929190610b1690613fe9565b9190505550815f015f9054906101000a900473ffffffffffffffffffffffffffffffffffffffff1673ffffffffffffffffffffffffffffffffffffffff16837faf3e26e641eb50ac4b7b95141c3a0592d0d8c104214a1309c355ed68836b4e3184600701544211610bbc576040518060400160405280600f81526020017f4d616e75616c2066616c6c6261636b0000000000000000000000000000000000815250610bf3565b6040518060400160405280601181526020017f446561646c696e652065786365656465640000000000000000000000000000008152505b604051610c009190614090565b60405180910390a3505050565b5f8054906101000a900473ffffffffffffffffffffffffffffffffffffffff1673ffffffffffffffffffffffffffffffffffffffff163373ffffffffffffffffffffffffffffffffffffffff1614610c9a576040517f08c379a0000000000000000000000000000000000000000000000000000000008152600401610c91906140fa565b60405180910390fd5b5f81118015610cab57506103e88111155b610cea576040517f08c379a0000000000000000000000000000000000000000000000000000000008152600401610ce190614162565b60405180910390fd5b5f6001549050816001819055507f5c09043b34023bb9c9c41465d990a9d64199df3969bf28f4b23c1a3e5f3ff8868183604051610d28929190614180565b60405180910390a15050565b5f8054906101000a900473ffffffffffffffffffffffffffffffffffffffff1673ffffffffffffffffffffffffffffffffffffffff163373ffffffffffffffffffffffffffffffffffffffff1614610dc1576040517f08c379a0000000000000000000000000000000000000000000000000000000008152600401610db8906140fa565b60405180910390fd5b8060085f6101000a81548160ff02191690831515021790555050565b60055481565b5f6040517f08c379a0000000000000000000000000000000000000000000000000000000008152600401610e16906141f1565b60405180910390fd5b5f6040517f08c379a0000000000000000000000000000000000000000000000000000000008152600401610e52906141f1565b60405180910390fd5b6007602052805f5260405f205f915054906101000a900460ff1681565b5f8073ffffffffffffffffffffffffffffffffffffffff168673ffffffffffffffffffffffffffffffffffffffff1603610ee7576040517f08c379a0000000000000000000000000000000000000000000000000000000008152600401610ede90614259565b60405180910390fd5b5f805f8585810190610ef9919061439f565b92509250925061012c42610f0d919061440b565b82118015610f2957506201518042610f25919061440b565b8211155b610f68576040517f08c379a0000000000000000000000000000000000000000000000000000000008152600401610f5f90614488565b60405180910390fd5b60045f8481526020019081526020015f205f9054906101000a900460ff1615610fc6576040517f08c379a0000000000000000000000000000000000000000000000000000000008152600401610fbd906144f0565b60405180910390fd5b600160045f8581526020019081526020015f205f6101000a81548160ff02191690831515021790555061100e89898960055f815461100390613fe9565b91905081905561298b565b93505f6040518061010001604052808b73ffffffffffffffffffffffffffffffffffffffff1681526020018a80360381019061104a919061462e565b8152602001895f0160208101906110619190613007565b15158152602001896020013581526020018581526020018481526020014281526020015f151581525090508060035f8781526020019081526020015f205f820151815f015f6101000a81548173ffffffffffffffffffffffffffffffffffffffff021916908373ffffffffffffffffffffffffffffffffffffffff1602179055506020820151816001015f820151815f015f6101000a81548173ffffffffffffffffffffffffffffffffffffffff021916908373ffffffffffffffffffffffffffffffffffffffff1602179055506020820151816001015f6101000a81548173ffffffffffffffffffffffffffffffffffffffff021916908373ffffffffffffffffffffffffffffffffffffffff16021790555060408201518160010160146101000a81548162ffffff021916908362ffffff16021790555060608201518160010160176101000a81548162ffffff021916908360020b62ffffff1602179055506080820151816002015f6101000a81548173ffffffffffffffffffffffffffffffffffffffff021916908373ffffffffffffffffffffffffffffffffffffffff16021790555050506040820151816004015f6101000a81548160ff021916908315150217905550606082015181600501556080820151816006015560a0820151816007015560c0820151816008015560e0820151816009015f6101000a81548160ff0219169083151502179055509050507f000000000000000000000000000000000000000000000000000000000000000073ffffffffffffffffffffffffffffffffffffffff1663e6c2a8f8868c85876040518563ffffffff1660e01b81526004016112d294939291906146ab565b5f604051808303815f87803b1580156112e9575f80fd5b505af11580156112fb573d5f803e3d5ffd5b505050508860405161130d919061486e565b6040518091039020858b73ffffffffffffffffffffffffffffffffffffffff167f7a58014263307c9f8bbcf46b5f9c4fa91cbb8f9abbf080a1b94d0864427b4bfa8b5f0160208101906113609190613007565b5f8d602001351361137e578c6020013561137990614888565b611384565b8c602001355b89604051611394939291906148ce565b60405180910390a45050505095945050505050565b7f000000000000000000000000000000000000000000000000000000000000000081565b60075f3373ffffffffffffffffffffffffffffffffffffffff1673ffffffffffffffffffffffffffffffffffffffff1681526020019081526020015f205f9054906101000a900460ff16611456576040517f08c379a000000000000000000000000000000000000000000000000000000000815260040161144d9061494d565b60405180910390fd5b5f60035f8781526020019081526020015f2090505f73ffffffffffffffffffffffffffffffffffffffff16815f015f9054906101000a900473ffffffffffffffffffffffffffffffffffffffff1673ffffffffffffffffffffffffffffffffffffffff16036114fa576040517f08c379a00000000000000000000000000000000000000000000000000000000081526004016114f190613ece565b60405180910390fd5b806009015f9054906101000a900460ff161561154b576040517f08c379a000000000000000000000000000000000000000000000000000000000815260040161154290613f36565b60405180910390fd5b8060070154421115611592576040517f08c379a0000000000000000000000000000000000000000000000000000000008152600401611589906149b5565b60405180910390fd5b5f85858101906115a29190614c8a565b90505f826001016040516020016115b99190614e41565b6040516020818303038152906040528051906020012090505f806115dd8484612a15565b915091505f60068111156115f4576115f3614e5a565b5b81600681111561160757611606614e5a565b5b14611647576040517f08c379a000000000000000000000000000000000000000000000000000000000815260040161163e90614ed1565b60405180910390fd5b815f015161168a576040517f08c379a000000000000000000000000000000000000000000000000000000000815260040161168190614f39565b60405180910390fd5b6001856009015f6101000a81548160ff0219169083151502179055506116b08583612b47565b5f611759866001015f015f9054906101000a900473ffffffffffffffffffffffffffffffffffffffff16876001016001015f9054906101000a900473ffffffffffffffffffffffffffffffffffffffff168860010160010160149054906101000a900462ffffff168960010160010160179054906101000a900460020b8a6001016002015f9054906101000a900473ffffffffffffffffffffffffffffffffffffffff16612950565b905060065f8281526020019081526020015f206001015f81548092919061177f90613fe9565b919050555060028660080154426117969190614f57565b60065f8481526020019081526020015f20600401546117b5919061440b565b6117bf9190614fb7565b60065f8381526020019081526020015f2060040181905550855f015f9054906101000a900473ffffffffffffffffffffffffffffffffffffffff1673ffffffffffffffffffffffffffffffffffffffff168b7f35d61f4852724dc7870bd03e343ed0ebb18221b5fe9fb1ec36c5da1565240a3c5f89600501541361185057886005015461184b90614888565b611856565b88600501545b8660200151876080015160405161186f9392919061508f565b60405180910390a35050505050505050505050565b5f805f7f000000000000000000000000000000000000000000000000000000000000000073ffffffffffffffffffffffffffffffffffffffff163373ffffffffffffffffffffffffffffffffffffffff1614611915576040517f08c379a000000000000000000000000000000000000000000000000000000000815260040161190c90615115565b60405180910390fd5b6119238660200135886124de565b15611983575f6119368989898989610e78565b90505f61194289611eb9565b905060065f8281526020019081526020015f205f015f81548092919061196790613fe9565b919050555063575e24b460e01b5f809450945094505050611994565b63575e24b460e01b5f809250925092505b955095509592505050565b6119a7612d53565b60035f8381526020019081526020015f20604051806101000160405290815f82015f9054906101000a900473ffffffffffffffffffffffffffffffffffffffff1673ffffffffffffffffffffffffffffffffffffffff1673ffffffffffffffffffffffffffffffffffffffff168152602001600182016040518060a00160405290815f82015f9054906101000a900473ffffffffffffffffffffffffffffffffffffffff1673ffffffffffffffffffffffffffffffffffffffff1673ffffffffffffffffffffffffffffffffffffffff168152602001600182015f9054906101000a900473ffffffffffffffffffffffffffffffffffffffff1673ffffffffffffffffffffffffffffffffffffffff1673ffffffffffffffffffffffffffffffffffffffff1681526020016001820160149054906101000a900462ffffff1662ffffff1662ffffff1681526020016001820160179054906101000a900460020b60020b60020b8152602001600282015f9054906101000a900473ffffffffffffffffffffffffffffffffffffffff1673ffffffffffffffffffffffffffffffffffffffff1673ffffffffffffffffffffffffffffffffffffffff16815250508152602001600482015f9054906101000a900460ff1615151515815260200160058201548152602001600682015481526020016007820154815260200160088201548152602001600982015f9054906101000a900460ff1615151515815250509050919050565b60085f9054906101000a900460ff1681565b5f919050565b5f806040517f08c379a0000000000000000000000000000000000000000000000000000000008152600401611c19906141f1565b60405180910390fd5b5f6040517f08c379a0000000000000000000000000000000000000000000000000000000008152600401611c55906141f1565b60405180910390fd5b5f8054906101000a900473ffffffffffffffffffffffffffffffffffffffff1681565b5f80611c8c83611eb9565b905060025f8281526020019081526020015f205491505f8203611caf5760015491505b50919050565b6004602052805f5260405f205f915054906101000a900460ff1681565b7f000000000000000000000000000000000000000000000000000000000000000081565b6003602052805f5260405f205f91509050805f015f9054906101000a900473ffffffffffffffffffffffffffffffffffffffff1690806001016040518060a00160405290815f82015f9054906101000a900473ffffffffffffffffffffffffffffffffffffffff1673ffffffffffffffffffffffffffffffffffffffff1673ffffffffffffffffffffffffffffffffffffffff168152602001600182015f9054906101000a900473ffffffffffffffffffffffffffffffffffffffff1673ffffffffffffffffffffffffffffffffffffffff1673ffffffffffffffffffffffffffffffffffffffff1681526020016001820160149054906101000a900462ffffff1662ffffff1662ffffff1681526020016001820160179054906101000a900460020b60020b60020b8152602001600282015f9054906101000a900473ffffffffffffffffffffffffffffffffffffffff1673ffffffffffffffffffffffffffffffffffffffff1673ffffffffffffffffffffffffffffffffffffffff168152505090806004015f9054906101000a900460ff1690806005015490806006015490806007015490806008015490806009015f9054906101000a900460ff16905088565b5f81604051602001611ecb91906151c1565b604051602081830303815290604052805190602001209050919050565b5f806040517f08c379a0000000000000000000000000000000000000000000000000000000008152600401611f1c906141f1565b60405180910390fd5b60015481565b5f805f611f3788611eb9565b90505f611f4387612c3f565b600f0b611f4f88612c4b565b600f0b611f5c919061440b565b90508060065f8481526020019081526020015f206003015f828254611f81919061440b565b9250508190555063b47b2fb160e01b5f935093505050965096945050505050565b5f6040517f08c379a0000000000000000000000000000000000000000000000000000000008152600401611fd5906141f1565b60405180910390fd5b611fe6612db4565b5f611ff083611eb9565b905060065f8281526020019081526020015f206040518060a00160405290815f8201548152602001600182015481526020016002820154815260200160038201548152602001600482015481525050915050919050565b61204f612dde565b604051806101c001604052805f151581526020015f151581526020015f151581526020015f151581526020015f151581526020015f151581526020016001151581526020016001151581526020015f151581526020015f151581526020015f151581526020015f151581526020015f151581526020015f1515815250905090565b6002602052805f5260405f205f915090505481565b5f8054906101000a900473ffffffffffffffffffffffffffffffffffffffff1673ffffffffffffffffffffffffffffffffffffffff163373ffffffffffffffffffffffffffffffffffffffff1614612172576040517f08c379a0000000000000000000000000000000000000000000000000000000008152600401612169906140fa565b60405180910390fd5b5f73ffffffffffffffffffffffffffffffffffffffff168273ffffffffffffffffffffffffffffffffffffffff16036121e0576040517f08c379a00000000000000000000000000000000000000000000000000000000081526004016121d790615224565b60405180910390fd5b8060075f8473ffffffffffffffffffffffffffffffffffffffff1673ffffffffffffffffffffffffffffffffffffffff1681526020019081526020015f205f6101000a81548160ff0219169083151502179055508173ffffffffffffffffffffffffffffffffffffffff167f0e26f8963600cd8571c482b10c03f9da63b0b18493c2f0ded77d0b102ec118c48260405161227a9190613268565b60405180910390a25050565b7f000000000000000000000000000000000000000000000000000000000000000081565b5f6040517f08c379a00000000000000000000000000000000000000000000000000000000081526004016122dd906141f1565b60405180910390fd5b5f6040517f08c379a0000000000000000000000000000000000000000000000000000000008152600401612319906141f1565b60405180910390fd5b5f8054906101000a900473ffffffffffffffffffffffffffffffffffffffff1673ffffffffffffffffffffffffffffffffffffffff163373ffffffffffffffffffffffffffffffffffffffff16146123af576040517f08c379a00000000000000000000000000000000000000000000000000000000081526004016123a6906140fa565b60405180910390fd5b5f73ffffffffffffffffffffffffffffffffffffffff168173ffffffffffffffffffffffffffffffffffffffff160361241d576040517f08c379a00000000000000000000000000000000000000000000000000000000081526004016124149061528c565b60405180910390fd5b5f805f9054906101000a900473ffffffffffffffffffffffffffffffffffffffff169050815f806101000a81548173ffffffffffffffffffffffffffffffffffffffff021916908373ffffffffffffffffffffffffffffffffffffffff1602179055508173ffffffffffffffffffffffffffffffffffffffff168173ffffffffffffffffffffffffffffffffffffffff167f8be0079c531659141344cd1fd0a4f28419497f9722a3daafe3b4186f6b6457e060405160405180910390a35050565b5f8060025f6124ec85611eb9565b81526020019081526020015f205490505f81036125095760015490505b5f8085126125175784612522565b8461252190614888565b5b90505f69d3c21bcecceda1000000905082816127108461254291906152aa565b61254c9190614fb7565b1015935050505092915050565b5f8060035f8481526020019081526020015f20604051806101000160405290815f82015f9054906101000a900473ffffffffffffffffffffffffffffffffffffffff1673ffffffffffffffffffffffffffffffffffffffff1673ffffffffffffffffffffffffffffffffffffffff168152602001600182016040518060a00160405290815f82015f9054906101000a900473ffffffffffffffffffffffffffffffffffffffff1673ffffffffffffffffffffffffffffffffffffffff1673ffffffffffffffffffffffffffffffffffffffff168152602001600182015f9054906101000a900473ffffffffffffffffffffffffffffffffffffffff1673ffffffffffffffffffffffffffffffffffffffff1673ffffffffffffffffffffffffffffffffffffffff1681526020016001820160149054906101000a900462ffffff1662ffffff1662ffffff1681526020016001820160179054906101000a900460020b60020b60020b8152602001600282015f9054906101000a900473ffffffffffffffffffffffffffffffffffffffff1673ffffffffffffffffffffffffffffffffffffffff1673ffffffffffffffffffffffffffffffffffffffff16815250508152602001600482015f9054906101000a900460ff1615151515815260200160058201548152602001600682015481526020016007820154815260200160088201548152602001600982015f9054906101000a900460ff16151515158152505090505f73ffffffffffffffffffffffffffffffffffffffff16815f015173ffffffffffffffffffffffffffffffffffffffff16141580156127bd57508060e00151155b80156127cd57508060a001514211155b915050919050565b5f8054906101000a900473ffffffffffffffffffffffffffffffffffffffff1673ffffffffffffffffffffffffffffffffffffffff163373ffffffffffffffffffffffffffffffffffffffff1614612862576040517f08c379a0000000000000000000000000000000000000000000000000000000008152600401612859906140fa565b60405180910390fd5b6103e88111156128a7576040517f08c379a000000000000000000000000000000000000000000000000000000000815260040161289e90614162565b60405180910390fd5b5f6128b183611eb9565b90505f60025f8381526020019081526020015f205490508260025f8481526020019081526020015f2081905550817fbb41a0feaa891aa52d6513e467af600551ca1f9192ca7bdba7bbf5999f17fa108285604051612910929190614180565b60405180910390a250505050565b6006602052805f5260405f205f91509050805f0154908060010154908060020154908060030154908060040154905085565b5f858585858560405160200161296a959493929190615318565b60405160208183030381529060405280519060200120905095945050505050565b5f84845f01602081019061299f9190615369565b8560200160208101906129b29190615369565b8660400160208101906129c59190615394565b865f0160208101906129d79190613007565b876020013587426040516020016129f59897969594939291906154d4565b604051602081830303815290604052805190602001209050949350505050565b612a1d612e5b565b5f6040518060c001604052805f151581526020015f801b81526020015f81526020015f81526020018560a001518152602001856080015181525091505f84602001515103612a715781600191509150612b40565b828460c0015114612a885781600291509150612b40565b42610e108560800151612a9b919061440b565b1015612aad5781600491509150612b40565b5f8460a001515103612ac55781600591509150612b40565b5f612add856020015186604001518760600151612c57565b905080612af1578260019250925050612b40565b5f805f612b018860400151612cca565b9250925092506001865f019015159081151581525050828660400181815250508186606001818152505080866020018181525050855f95509550505050505b9250929050565b5f6040518060600160405280846004015f9054906101000a900460ff161515815260200184600501548152602001836040015173ffffffffffffffffffffffffffffffffffffffff16815250905082600101604051612ba691906155f1565b6040518091039020835f015f9054906101000a900473ffffffffffffffffffffffffffffffffffffffff1673ffffffffffffffffffffffffffffffffffffffff167f228f7e9899a6ffb8a4f871e52fc91a1e1316faf4538e63e2b265409fa4424db1856004015f9054906101000a900460ff1686600501548660200151604051612c329392919061560b565b60405180910390a3505050565b5f81600f0b9050919050565b5f8160801d9050919050565b5f602084511080612c6857505f8351145b15612c75575f9050612cc3565b5f848051906020012090505f84604051602001612c9291906156f1565b6040516020818303038152906040528051906020012090505f801b8214158015612cbe57505f801b8114155b925050505b9392505050565b5f805f6003845110612d4c578360028551612ce59190614f57565b81518110612cf657612cf5615707565b5b60200260200101515f1c92508360018551612d119190614f57565b81518110612d2257612d21615707565b5b60200260200101515f1c9150835f81518110612d4157612d40615707565b5b602002602001015190505b9193909250565b6040518061010001604052805f73ffffffffffffffffffffffffffffffffffffffff168152602001612d83612e91565b81526020015f151581526020015f81526020015f80191681526020015f81526020015f81526020015f151581525090565b6040518060a001604052805f81526020015f81526020015f81526020015f81526020015f81525090565b604051806101c001604052805f151581526020015f151581526020015f151581526020015f151581526020015f151581526020015f151581526020015f151581526020015f151581526020015f151581526020015f151581526020015f151581526020015f151581526020015f151581526020015f151581525090565b6040518060c001604052805f151581526020015f80191681526020015f81526020015f8152602001606081526020015f81525090565b6040518060a001604052805f73ffffffffffffffffffffffffffffffffffffffff1681526020015f73ffffffffffffffffffffffffffffffffffffffff1681526020015f62ffffff1681526020015f60020b81526020015f73ffffffffffffffffffffffffffffffffffffffff1681525090565b5f604051905090565b5f80fd5b5f80fd5b5f819050919050565b612f2881612f16565b8114612f32575f80fd5b50565b5f81359050612f4381612f1f565b92915050565b5f60208284031215612f5e57612f5d612f0e565b5b5f612f6b84828501612f35565b91505092915050565b5f819050919050565b612f8681612f74565b8114612f90575f80fd5b50565b5f81359050612fa181612f7d565b92915050565b5f60208284031215612fbc57612fbb612f0e565b5b5f612fc984828501612f93565b91505092915050565b5f8115159050919050565b612fe681612fd2565b8114612ff0575f80fd5b50565b5f8135905061300181612fdd565b92915050565b5f6020828403121561301c5761301b612f0e565b5b5f61302984828501612ff3565b91505092915050565b61303b81612f74565b82525050565b5f6020820190506130545f830184613032565b92915050565b5f73ffffffffffffffffffffffffffffffffffffffff82169050919050565b5f6130838261305a565b9050919050565b61309381613079565b811461309d575f80fd5b50565b5f813590506130ae8161308a565b92915050565b5f80fd5b5f60a082840312156130cd576130cc6130b4565b5b81905092915050565b5f608082840312156130eb576130ea6130b4565b5b81905092915050565b5f80fd5b5f80fd5b5f80fd5b5f8083601f840112613115576131146130f4565b5b8235905067ffffffffffffffff811115613132576131316130f8565b5b60208301915083600182028301111561314e5761314d6130fc565b5b9250929050565b5f805f805f610160868803121561316f5761316e612f0e565b5b5f61317c888289016130a0565b955050602061318d888289016130b8565b94505060c061319e888289016130d6565b93505061014086013567ffffffffffffffff8111156131c0576131bf612f12565b5b6131cc88828901613100565b92509250509295509295909350565b5f7fffffffff0000000000000000000000000000000000000000000000000000000082169050919050565b61320f816131db565b82525050565b5f6020820190506132285f830184613206565b92915050565b5f6020828403121561324357613242612f0e565b5b5f613250848285016130a0565b91505092915050565b61326281612fd2565b82525050565b5f60208201905061327b5f830184613259565b92915050565b5f60608284031215613296576132956130b4565b5b81905092915050565b5f805f805f61014086880312156132b9576132b8612f0e565b5b5f6132c6888289016130a0565b95505060206132d7888289016130b8565b94505060c06132e888828901613281565b93505061012086013567ffffffffffffffff81111561330a57613309612f12565b5b61331688828901613100565b92509250509295509295909350565b61332e81612f16565b82525050565b5f6020820190506133475f830184613325565b92915050565b61335681613079565b82525050565b5f60208201905061336f5f83018461334d565b92915050565b5f805f805f6060868803121561338e5761338d612f0e565b5b5f61339b88828901612f35565b955050602086013567ffffffffffffffff8111156133bc576133bb612f12565b5b6133c888828901613100565b9450945050604086013567ffffffffffffffff8111156133eb576133ea612f12565b5b6133f788828901613100565b92509250509295509295909350565b5f819050919050565b5f819050919050565b5f61343261342d61342884613406565b61340f565b613406565b9050919050565b61344281613418565b82525050565b5f62ffffff82169050919050565b61345f81613448565b82525050565b5f6060820190506134785f830186613206565b6134856020830185613439565b6134926040830184613456565b949350505050565b6134a381613079565b82525050565b5f6134c36134be6134b98461305a565b61340f565b61305a565b9050919050565b5f6134d4826134a9565b9050919050565b5f6134e5826134ca565b9050919050565b6134f5816134db565b82525050565b61350481613448565b82525050565b5f8160020b9050919050565b61351f8161350a565b82525050565b5f61352f826134ca565b9050919050565b61353f81613525565b82525050565b60a082015f8201516135595f8501826134ec565b50602082015161356c60208501826134ec565b50604082015161357f60408501826134fb565b5060608201516135926060850182613516565b5060808201516135a56080850182613536565b50505050565b6135b481612fd2565b82525050565b6135c381613406565b82525050565b6135d281612f16565b82525050565b6135e181612f74565b82525050565b61018082015f8201516135fc5f85018261349a565b50602082015161360f6020850182613545565b50604082015161362260c08501826135ab565b50606082015161363560e08501826135ba565b5060808201516136496101008501826135c9565b5060a082015161365d6101208501826135d8565b5060c08201516136716101408501826135d8565b5060e08201516136856101608501826135ab565b50505050565b5f6101808201905061369f5f8301846135e7565b92915050565b6136ae81613406565b81146136b8575f80fd5b50565b5f813590506136c9816136a5565b92915050565b5f805f805f805f6101a0888a0312156136eb576136ea612f0e565b5b5f6136f88a828b016130a0565b97505060206137098a828b016130b8565b96505060c061371a8a828b016130d6565b95505061014061372c8a828b016136bb565b94505061016061373e8a828b016136bb565b93505061018088013567ffffffffffffffff8111156137605761375f612f12565b5b61376c8a828b01613100565b925092505092959891949750929550565b61378681613418565b82525050565b5f60408201905061379f5f830185613206565b6137ac602083018461377d565b9392505050565b6137bc8161305a565b81146137c6575f80fd5b50565b5f813590506137d7816137b3565b92915050565b6137e68161350a565b81146137f0575f80fd5b50565b5f81359050613801816137dd565b92915050565b5f805f8061010085870312156138205761381f612f0e565b5b5f61382d878288016130a0565b945050602061383e878288016130b8565b93505060c061384f878288016137c9565b92505060e0613860878288016137f3565b91505092959194509250565b5f60a0828403121561388157613880612f0e565b5b5f61388e848285016130b8565b91505092915050565b60a082015f8201516138ab5f8501826134ec565b5060208201516138be60208501826134ec565b5060408201516138d160408501826134fb565b5060608201516138e46060850182613516565b5060808201516138f76080850182613536565b50505050565b61390681613406565b82525050565b5f610180820190506139205f83018b61334d565b61392d602083018a613897565b61393a60c0830189613259565b61394760e08301886138fd565b613955610100830187613325565b613963610120830186613032565b613971610140830185613032565b61397f610160830184613259565b9998505050505050505050565b5f805f805f8061016087890312156139a7576139a6612f0e565b5b5f6139b489828a016130a0565b96505060206139c589828a016130b8565b95505060c06139d689828a01613281565b9450506101206139e889828a016136bb565b93505061014087013567ffffffffffffffff811115613a0a57613a09612f12565b5b613a1689828a01613100565b92509250509295509295509295565b5f81600f0b9050919050565b613a3a81613a25565b82525050565b5f604082019050613a535f830185613206565b613a606020830184613a31565b9392505050565b5f805f805f806101208789031215613a8257613a81612f0e565b5b5f613a8f89828a016130a0565b9650506020613aa089828a016130b8565b95505060c0613ab189828a01612f93565b94505060e0613ac289828a01612f93565b93505061010087013567ffffffffffffffff811115613ae457613ae3612f12565b5b613af089828a01613100565b92509250509295509295509295565b60a082015f820151613b135f8501826135d8565b506020820151613b2660208501826135d8565b506040820151613b3960408501826135d8565b506060820151613b4c60608501826135d8565b506080820151613b5f60808501826135d8565b50505050565b5f60a082019050613b785f830184613aff565b92915050565b6101c082015f820151613b935f8501826135ab565b506020820151613ba660208501826135ab565b506040820151613bb960408501826135ab565b506060820151613bcc60608501826135ab565b506080820151613bdf60808501826135ab565b5060a0820151613bf260a08501826135ab565b5060c0820151613c0560c08501826135ab565b5060e0820151613c1860e08501826135ab565b50610100820151613c2d6101008501826135ab565b50610120820151613c426101208501826135ab565b50610140820151613c576101408501826135ab565b50610160820151613c6c6101608501826135ab565b50610180820151613c816101808501826135ab565b506101a0820151613c966101a08501826135ab565b50505050565b5f6101c082019050613cb05f830184613b7e565b92915050565b5f8060408385031215613ccc57613ccb612f0e565b5b5f613cd9858286016130a0565b9250506020613cea85828601612ff3565b9150509250929050565b5f613cfe826134ca565b9050919050565b613d0e81613cf4565b82525050565b5f602082019050613d275f830184613d05565b92915050565b5f805f60e08486031215613d4457613d43612f0e565b5b5f613d51868287016130a0565b9350506020613d62868287016130b8565b92505060c0613d73868287016137c9565b9150509250925092565b613d8681613406565b8114613d90575f80fd5b50565b5f81359050613da181613d7d565b92915050565b5f8060c08385031215613dbd57613dbc612f0e565b5b5f613dca85828601613d93565b9250506020613ddb858286016130b8565b9150509250929050565b5f8060c08385031215613dfb57613dfa612f0e565b5b5f613e08858286016130b8565b92505060a0613e1985828601612f93565b9150509250929050565b5f60a082019050613e365f830188613032565b613e436020830187613032565b613e506040830186613032565b613e5d6060830185613032565b613e6a6080830184613032565b9695505050505050565b5f82825260208201905092915050565b7f4f72646572206e6f7420666f756e6400000000000000000000000000000000005f82015250565b5f613eb8600f83613e74565b9150613ec382613e84565b602082019050919050565b5f6020820190508181035f830152613ee581613eac565b9050919050565b7f4f7264657220616c7265616479206578656375746564000000000000000000005f82015250565b5f613f20601683613e74565b9150613f2b82613eec565b602082019050919050565b5f6020820190508181035f830152613f4d81613f14565b9050919050565b7f43616e6e6f742066616c6c6261636b20796574000000000000000000000000005f82015250565b5f613f88601383613e74565b9150613f9382613f54565b602082019050919050565b5f6020820190508181035f830152613fb581613f7c565b9050919050565b7f4e487b71000000000000000000000000000000000000000000000000000000005f52601160045260245ffd5b5f613ff382612f74565b91507fffffffffffffffffffffffffffffffffffffffffffffffffffffffffffffffff820361402557614024613fbc565b5b600182019050919050565b5f81519050919050565b8281835e5f83830152505050565b5f601f19601f8301169050919050565b5f61406282614030565b61406c8185613e74565b935061407c81856020860161403a565b61408581614048565b840191505092915050565b5f6020820190508181035f8301526140a88184614058565b905092915050565b7f4f6e6c79206f776e6572000000000000000000000000000000000000000000005f82015250565b5f6140e4600a83613e74565b91506140ef826140b0565b602082019050919050565b5f6020820190508181035f830152614111816140d8565b9050919050565b7f496e76616c6964207468726573686f6c640000000000000000000000000000005f82015250565b5f61414c601183613e74565b915061415782614118565b602082019050919050565b5f6020820190508181035f83015261417981614140565b9050919050565b5f6040820190506141935f830185613032565b6141a06020830184613032565b9392505050565b7f486f6f6b206e6f7420696d706c656d656e7465640000000000000000000000005f82015250565b5f6141db601483613e74565b91506141e6826141a7565b602082019050919050565b5f6020820190508181035f830152614208816141cf565b9050919050565b7f496e76616c6964207472616465720000000000000000000000000000000000005f82015250565b5f614243600e83613e74565b915061424e8261420f565b602082019050919050565b5f6020820190508181035f83015261427081614237565b9050919050565b5f80fd5b7f4e487b71000000000000000000000000000000000000000000000000000000005f52604160045260245ffd5b6142b182614048565b810181811067ffffffffffffffff821117156142d0576142cf61427b565b5b80604052505050565b5f6142e2612f05565b90506142ee82826142a8565b919050565b5f67ffffffffffffffff82111561430d5761430c61427b565b5b61431682614048565b9050602081019050919050565b828183375f83830152505050565b5f61434361433e846142f3565b6142d9565b90508281526020810184848401111561435f5761435e614277565b5b61436a848285614323565b509392505050565b5f82601f830112614386576143856130f4565b5b8135614396848260208601614331565b91505092915050565b5f805f606084860312156143b6576143b5612f0e565b5b5f6143c386828701612f35565b93505060206143d486828701612f93565b925050604084013567ffffffffffffffff8111156143f5576143f4612f12565b5b61440186828701614372565b9150509250925092565b5f61441582612f74565b915061442083612f74565b925082820190508082111561443857614437613fbc565b5b92915050565b7f496e76616c696420646561646c696e65000000000000000000000000000000005f82015250565b5f614472601083613e74565b915061447d8261443e565b602082019050919050565b5f6020820190508181035f83015261449f81614466565b9050919050565b7f436f6d6d69746d656e7420616c726561647920757365640000000000000000005f82015250565b5f6144da601783613e74565b91506144e5826144a6565b602082019050919050565b5f6020820190508181035f830152614507816144ce565b9050919050565b5f80fd5b5f80fd5b61451f81613079565b8114614529575f80fd5b50565b5f8135905061453a81614516565b92915050565b61454981613448565b8114614553575f80fd5b50565b5f8135905061456481614540565b92915050565b5f61457482613079565b9050919050565b6145848161456a565b811461458e575f80fd5b50565b5f8135905061459f8161457b565b92915050565b5f60a082840312156145ba576145b961450e565b5b6145c460a06142d9565b90505f6145d38482850161452c565b5f8301525060206145e68482850161452c565b60208301525060406145fa84828501614556565b604083015250606061460e848285016137f3565b606083015250608061462284828501614591565b60808301525092915050565b5f60a0828403121561464357614642612f0e565b5b5f614650848285016145a5565b91505092915050565b5f81519050919050565b5f82825260208201905092915050565b5f61467d82614659565b6146878185614663565b935061469781856020860161403a565b6146a081614048565b840191505092915050565b5f6080820190506146be5f830187613325565b6146cb602083018661334d565b81810360408301526146dd8185614673565b90506146ec6060830184613032565b95945050505050565b5f614703602084018461452c565b905092915050565b614714816134db565b82525050565b5f614725838361470b565b60208301905092915050565b5f61473f6020840184614556565b905092915050565b61475081613448565b82525050565b5f6147618383614747565b60208301905092915050565b5f61477b60208401846137f3565b905092915050565b61478c8161350a565b82525050565b5f61479d8383614783565b60208301905092915050565b5f6147b76020840184614591565b905092915050565b6147c881613525565b82525050565b5f6147d983836147bf565b60208301905092915050565b5f82016147f45f8301836146f5565b6147fe848261471a565b93505061480e60208301836146f5565b614818848261471a565b9350506148286040830183614731565b6148328482614756565b935050614842606083018361476d565b61484c8482614792565b93505061485c60808301836147a9565b61486684826147ce565b935050505050565b5f61487982846147e5565b60a08201915081905092915050565b5f61489282613406565b91507f800000000000000000000000000000000000000000000000000000000000000082036148c4576148c3613fbc565b5b815f039050919050565b5f6060820190506148e15f830186613259565b6148ee6020830185613032565b6148fb6040830184613325565b949350505050565b7f556e617574686f72697a65642073657276696365206d616e61676572000000005f82015250565b5f614937601c83613e74565b915061494282614903565b602082019050919050565b5f6020820190508181035f8301526149648161492b565b9050919050565b7f4f726465722065787069726564000000000000000000000000000000000000005f82015250565b5f61499f600d83613e74565b91506149aa8261496b565b602082019050919050565b5f6020820190508181035f8301526149cc81614993565b9050919050565b5f67ffffffffffffffff8211156149ed576149ec61427b565b5b602082029050602081019050919050565b5f614a10614a0b846149d3565b6142d9565b90508083825260208201905060208402830185811115614a3357614a326130fc565b5b835b81811015614a5c5780614a488882612f35565b845260208401935050602081019050614a35565b5050509392505050565b5f82601f830112614a7a57614a796130f4565b5b8135614a8a8482602086016149fe565b91505092915050565b5f67ffffffffffffffff821115614aad57614aac61427b565b5b602082029050602081019050919050565b5f614ad0614acb84614a93565b6142d9565b90508083825260208201905060208402830185811115614af357614af26130fc565b5b835b81811015614b1c5780614b0888826130a0565b845260208401935050602081019050614af5565b5050509392505050565b5f82601f830112614b3a57614b396130f4565b5b8135614b4a848260208601614abe565b91505092915050565b5f6101008284031215614b6957614b6861450e565b5b614b746101006142d9565b90505f614b8384828501612f35565b5f83015250602082013567ffffffffffffffff811115614ba657614ba5614512565b5b614bb284828501614372565b602083015250604082013567ffffffffffffffff811115614bd657614bd5614512565b5b614be284828501614a66565b604083015250606082013567ffffffffffffffff811115614c0657614c05614512565b5b614c1284828501614372565b6060830152506080614c2684828501612f93565b60808301525060a082013567ffffffffffffffff811115614c4a57614c49614512565b5b614c5684828501614b26565b60a08301525060c0614c6a84828501612f35565b60c08301525060e0614c7e84828501612f93565b60e08301525092915050565b5f60208284031215614c9f57614c9e612f0e565b5b5f82013567ffffffffffffffff811115614cbc57614cbb612f12565b5b614cc884828501614b53565b91505092915050565b5f815f1c9050919050565b5f73ffffffffffffffffffffffffffffffffffffffff82169050919050565b5f614d0d614d0883614cd1565b614cdc565b9050919050565b5f8160a01c9050919050565b5f62ffffff82169050919050565b5f614d40614d3b83614d14565b614d20565b9050919050565b5f8160b81c9050919050565b5f8160020b9050919050565b5f614d71614d6c83614d47565b614d53565b9050919050565b5f73ffffffffffffffffffffffffffffffffffffffff82169050919050565b5f614da9614da483614cd1565b614d78565b9050919050565b60a082015f808301549050614dc481614cfb565b614dd05f8601826134ec565b5060018301549050614de181614cfb565b614dee60208601826134ec565b50614df881614d2e565b614e0560408601826134fb565b50614e0f81614d5f565b614e1c6060860182613516565b5060028301549050614e2d81614d97565b614e3a6080860182613536565b5050505050565b5f60a082019050614e545f830184614db0565b92915050565b7f4e487b71000000000000000000000000000000000000000000000000000000005f52602160045260245ffd5b7f496e76616c69642070726f6f66000000000000000000000000000000000000005f82015250565b5f614ebb600d83613e74565b9150614ec682614e87565b602082019050919050565b5f6020820190508181035f830152614ee881614eaf565b9050919050565b7f50726f6f6620766572696669636174696f6e206661696c6564000000000000005f82015250565b5f614f23601983613e74565b9150614f2e82614eef565b602082019050919050565b5f6020820190508181035f830152614f5081614f17565b9050919050565b5f614f6182612f74565b9150614f6c83612f74565b9250828203905081811115614f8457614f83613fbc565b5b92915050565b7f4e487b71000000000000000000000000000000000000000000000000000000005f52601260045260245ffd5b5f614fc182612f74565b9150614fcc83612f74565b925082614fdc57614fdb614f8a565b5b828204905092915050565b5f81519050919050565b5f82825260208201905092915050565b5f819050602082019050919050565b5f61501b838361349a565b60208301905092915050565b5f602082019050919050565b5f61503d82614fe7565b6150478185614ff1565b935061505283615001565b805f5b838110156150825781516150698882615010565b975061507483615027565b925050600181019050615055565b5085935050505092915050565b5f6060820190506150a25f830186613032565b6150af6020830185613325565b81810360408301526150c18184615033565b9050949350505050565b7f4f6e6c7920506f6f6c4d616e61676572000000000000000000000000000000005f82015250565b5f6150ff601083613e74565b915061510a826150cb565b602082019050919050565b5f6020820190508181035f83015261512c816150f3565b9050919050565b60a082016151435f8301836146f5565b61514f5f8501826134ec565b5061515d60208301836146f5565b61516a60208501826134ec565b506151786040830183614731565b61518560408501826134fb565b50615193606083018361476d565b6151a06060850182613516565b506151ae60808301836147a9565b6151bb6080850182613536565b50505050565b5f60a0820190506151d45f830184615133565b92915050565b7f496e76616c69642073657276696365206d616e616765720000000000000000005f82015250565b5f61520e601783613e74565b9150615219826151da565b602082019050919050565b5f6020820190508181035f83015261523b81615202565b9050919050565b7f4e6577206f776e65722063616e6e6f74206265207a65726f20616464726573735f82015250565b5f615276602083613e74565b915061528182615242565b602082019050919050565b5f6020820190508181035f8301526152a38161526a565b9050919050565b5f6152b482612f74565b91506152bf83612f74565b92508282026152cd81612f74565b915082820484148315176152e4576152e3613fbc565b5b5092915050565b6152f4816134db565b82525050565b6153038161350a565b82525050565b61531281613525565b82525050565b5f60a08201905061532b5f8301886152eb565b61533860208301876152eb565b6153456040830186613456565b61535260608301856152fa565b61535f6080830184615309565b9695505050505050565b5f6020828403121561537e5761537d612f0e565b5b5f61538b8482850161452c565b91505092915050565b5f602082840312156153a9576153a8612f0e565b5b5f6153b684828501614556565b91505092915050565b5f8160601b9050919050565b5f6153d5826153bf565b9050919050565b5f6153e6826153cb565b9050919050565b6153fe6153f982613079565b6153dc565b82525050565b615415615410826134db565b6153dc565b82525050565b5f8160e81b9050919050565b5f6154318261541b565b9050919050565b61544961544482613448565b615427565b82525050565b5f8160f81b9050919050565b5f6154658261544f565b9050919050565b5f6154768261545b565b9050919050565b61548e61548982612fd2565b61546c565b82525050565b5f819050919050565b6154ae6154a982613406565b615494565b82525050565b5f819050919050565b6154ce6154c982612f74565b6154b4565b82525050565b5f6154df828b6153ed565b6014820191506154ef828a615404565b6014820191506154ff8289615404565b60148201915061550f8288615438565b60038201915061551f828761547d565b60018201915061552f828661549d565b60208201915061553f82856154bd565b60208201915061554f82846154bd565b6020820191508190509998505050505050505050565b5f82015f80830154905061557881614cfb565b615582858261471a565b9450506001830154905061559581614cfb565b61559f858261471a565b9450506155ab81614d2e565b6155b58582614756565b9450506155c181614d5f565b6155cb8582614792565b945050600283015490506155de81614d97565b6155e885826147ce565b94505050505050565b5f6155fc8284615565565b60a08201915081905092915050565b5f60608201905061561e5f830186613259565b61562b60208301856138fd565b6156386040830184613325565b949350505050565b5f81519050919050565b5f81905092915050565b5f819050602082019050919050565b61566c81612f16565b82525050565b5f61567d8383615663565b60208301905092915050565b5f602082019050919050565b5f61569f82615640565b6156a9818561564a565b93506156b483615654565b805f5b838110156156e45781516156cb8882615672565b97506156d683615689565b9250506001810190506156b7565b5085935050505092915050565b5f6156fc8284615695565b915081905092915050565b7f4e487b71000000000000000000000000000000000000000000000000000000005f52603260045260245ffdfea2646970667358221220c152a7dccdcc395824a998bef9f7c1f726674f566d37adb7f474799bfe5d49e664736f6c634300081a0033","linkReferences":{}},"methodIdentifiers":{"afterAddLiquidity(address,(address,address,uint24,int24,address),(int24,int24,int256,bytes32),int256,int256,bytes)":"9f063efc","afterDonate(address,(address,address,uint24,int24,address),uint256,uint256,bytes)":"e1b4af69","afterInitialize(address,(address,address,uint24,int24,address),uint160,int24)":"6fe7e6eb","afterRemoveLiquidity(address,(address,address,uint24,int24,address),(int24,int24,int256,bytes32),int256,int256,bytes)":"6c2bbe7e","afterSwap(address,(address,address,uint24,int24,address),(bool,int256,uint160),int256,bytes)":"b47b2fb1","authorizedServiceManagers(address)":"28a00119","beforeAddLiquidity(address,(address,address,uint24,int24,address),(int24,int24,int256,bytes32),bytes)":"259982e5","beforeDonate(address,(address,address,uint24,int24,address),uint256,uint256,bytes)":"b6a8b0fa","beforeInitialize(address,(address,address,uint24,int24,address),uint160)":"dc98354e","beforeRemoveLiquidity(address,(address,address,uint24,int24,address),(int24,int24,int256,bytes32),bytes)":"21d0ee70","beforeSwap(address,(address,address,uint24,int24,address),(bool,int256,uint160),bytes)":"575e24b4","executeVaultOrder(bytes32,bytes,bytes)":"5004194e","fallbackToAMM(bytes32)":"00e4fe01","getHookPermissions()":"c4e833ce","getOrder(bytes32)":"5778472a","getPoolExecutionStats((address,address,uint24,int24,address))":"c478302d","getPoolId((address,address,uint24,int24,address))":"9c6b88a8","getTraderOrderCount(address)":"6181fd0f","getVaultThreshold((address,address,uint24,int24,address))":"8f9316a5","isLargeOrder(int256,(address,address,uint24,int24,address))":"f3539e8a","isOrderExecutable(bytes32)":"f3a6cffa","orderNonce()":"16f8de89","orderVault()":"93845e46","orders(bytes32)":"9c3f1e90","owner()":"8da5cb5b","paused()":"5c975abb","poolManager()":"dc4c90d3","poolStats(bytes32)":"f9dcaaf3","poolThresholds(bytes32)":"cd9a56e8","routeToVault(address,(address,address,uint24,int24,address),(bool,int256,uint160),bytes)":"28cd016b","serviceManager()":"3998fdd3","setPaused(bool)":"16c38b3c","setPoolThreshold((address,address,uint24,int24,address),uint256)":"f57f9a7d","setServiceManagerAuthorization(address,bool)":"d76b022b","transferOwnership(address)":"f2fde38b","updateVaultThreshold(uint256)":"02d9c708","usedCommitments(bytes32)":"91402039","vaultThresholdBps()":"9f660175"},"id":1}