{"abi":[{"type":"constructor","inputs":[{"name":"_eigenVaultHook","type":"address","internalType":"contract IEigenVaultHook"}],"stateMutability":"nonpayable"},{"type":"function","name":"BASE_TASK_REWARD","inputs":[],"outputs":[{"name":"","type":"uint256","internalType":"uint256"}],"stateMutability":"view"},{"type":"function","name":"activeOperators","inputs":[{"name":"","type":"uint256","internalType":"uint256"}],"outputs":[{"name":"","type":"address","internalType":"address"}],"stateMutability":"view"},{"type":"function","name":"createMatchingTask","inputs":[{"name":"ordersSetHash","type":"bytes32","internalType":"bytes32"},{"name":"deadline","type":"uint256","internalType":"uint256"}],"outputs":[{"name":"taskId","type":"bytes32","internalType":"bytes32"}],"stateMutability":"nonpayable"},{"type":"function","name":"deregisterOperator","inputs":[],"outputs":[],"stateMutability":"nonpayable"},{"type":"function","name":"eigenVaultHook","inputs":[],"outputs":[{"name":"","type":"address","internalType":"contract IEigenVaultHook"}],"stateMutability":"view"},{"type":"function","name":"getActiveOperatorsCount","inputs":[],"outputs":[{"name":"count","type":"uint256","internalType":"uint256"}],"stateMutability":"view"},{"type":"function","name":"getOperatorMetrics","inputs":[{"name":"operator","type":"address","internalType":"address"}],"outputs":[{"name":"metrics","type":"tuple","internalType":"struct SimplifiedServiceManager.OperatorMetrics","components":[{"name":"tasksCompleted","type":"uint256","internalType":"uint256"},{"name":"totalRewards","type":"uint256","internalType":"uint256"},{"name":"lastActiveTime","type":"uint256","internalType":"uint256"},{"name":"isActive","type":"bool","internalType":"bool"}]}],"stateMutability":"view"},{"type":"function","name":"getTask","inputs":[{"name":"taskId","type":"bytes32","internalType":"bytes32"}],"outputs":[{"name":"task","type":"tuple","internalType":"struct SimplifiedServiceManager.MatchingTask","components":[{"name":"taskId","type":"bytes32","internalType":"bytes32"},{"name":"ordersSetHash","type":"bytes32","internalType":"bytes32"},{"name":"deadline","type":"uint256","internalType":"uint256"},{"name":"status","type":"uint8","internalType":"enum SimplifiedServiceManager.TaskStatus"},{"name":"resultHash","type":"bytes32","internalType":"bytes32"},{"name":"createdAt","type":"uint256","internalType":"uint256"},{"name":"completedAt","type":"uint256","internalType":"uint256"},{"name":"assignedOperators","type":"address[]","internalType":"address[]"}]}],"stateMutability":"view"},{"type":"function","name":"operatorMetrics","inputs":[{"name":"","type":"address","internalType":"address"}],"outputs":[{"name":"tasksCompleted","type":"uint256","internalType":"uint256"},{"name":"totalRewards","type":"uint256","internalType":"uint256"},{"name":"lastActiveTime","type":"uint256","internalType":"uint256"},{"name":"isActive","type":"bool","internalType":"bool"}],"stateMutability":"view"},{"type":"function","name":"owner","inputs":[],"outputs":[{"name":"","type":"address","internalType":"address"}],"stateMutability":"view"},{"type":"function","name":"registerOperator","inputs":[],"outputs":[],"stateMutability":"nonpayable"},{"type":"function","name":"registeredOperators","inputs":[{"name":"","type":"address","internalType":"address"}],"outputs":[{"name":"","type":"bool","internalType":"bool"}],"stateMutability":"view"},{"type":"function","name":"submitTaskResponse","inputs":[{"name":"taskId","type":"bytes32","internalType":"bytes32"},{"name":"resultHash","type":"bytes32","internalType":"bytes32"},{"name":"zkProof","type":"bytes","internalType":"bytes"},{"name":"operatorSignatures","type":"bytes","internalType":"bytes"}],"outputs":[],"stateMutability":"nonpayable"},{"type":"function","name":"taskCounter","inputs":[],"outputs":[{"name":"","type":"uint256","internalType":"uint256"}],"stateMutability":"view"},{"type":"function","name":"tasks","inputs":[{"name":"","type":"bytes32","internalType":"bytes32"}],"outputs":[{"name":"taskId","type":"bytes32","internalType":"bytes32"},{"name":"ordersSetHash","type":"bytes32","internalType":"bytes32"},{"name":"deadline","type":"uint256","internalType":"uint256"},{"name":"status","type":"uint8","internalType":"enum SimplifiedServiceManager.TaskStatus"},{"name":"resultHash","type":"bytes32","internalType":"bytes32"},{"name":"createdAt","type":"uint256","internalType":"uint256"},{"name":"completedAt","type":"uint256","internalType":"uint256"}],"stateMutability":"view"},{"type":"function","name":"transferOwnership","inputs":[{"name":"newOwner","type":"address","internalType":"address"}],"outputs":[],"stateMutability":"nonpayable"},{"type":"event","name":"OperatorRegistered","inputs":[{"name":"operator","type":"address","indexed":true,"internalType":"address"}],"anonymous":false},{"type":"event","name":"RewardsDistributed","inputs":[{"name":"taskId","type":"bytes32","indexed":true,"internalType":"bytes32"},{"name":"operators","type":"address[]","indexed":false,"internalType":"address[]"},{"name":"rewards","type":"uint256[]","indexed":false,"internalType":"uint256[]"}],"anonymous":false},{"type":"event","name":"TaskCompleted","inputs":[{"name":"taskId","type":"bytes32","indexed":true,"internalType":"bytes32"},{"name":"resultHash","type":"bytes32","indexed":false,"internalType":"bytes32"},{"name":"respondingOperators","type":"address[]","indexed":false,"internalType":"address[]"},{"name":"completedAt","type":"uint256","indexed":false,"internalType":"uint256"}],"anonymous":false},{"type":"event","name":"TaskCreated","inputs":[{"name":"taskId","type":"bytes32","indexed":true,"internalType":"bytes32"},{"name":"ordersSetHash","type":"bytes32","indexed":true,"internalType":"bytes32"},{"name":"deadline","type":"uint256","indexed":false,"internalType":"uint256"},{"name":"assignedOperators","type":"address[]","indexed":false,"internalType":"address[]"}],"anonymous":false}],"bytecode":{"object":"0x60a0604052348015600e575f80fd5b506040516114cf3803806114cf833981016040819052602b91604d565b6001600160a01b0316608052600580546001600160a01b031916331790556078565b5f60208284031215605c575f80fd5b81516001600160a01b03811681146071575f80fd5b9392505050565b6080516114386100975f395f8181610180015261092c01526114385ff3fe608060405234801561000f575f80fd5b50600436106100fb575f3560e01c80639f00d79111610093578063e579f50011610063578063e579f5001461026b578063f2fde38b146102cb578063f3da22fa146102de578063fc50a7a714610326575f80fd5b80639f00d791146101bd578063afebf403146101cb578063c320a526146101fd578063dcc310f614610210575f80fd5b8063857dc190116100ce578063857dc190146101735780638ab3ed931461017b5780638da5cb5b146101a25780639241aa54146101b5575f80fd5b806315a29035146100ff5780632acde098146101285780634562711914610132578063586717301461015d575b5f80fd5b61011261010d366004610fc4565b610339565b60405161011f919061100f565b60405180910390f35b610130610477565b005b610145610140366004610fc4565b6105b1565b6040516001600160a01b03909116815260200161011f565b6101655f5481565b60405190815260200161011f565b6101306105d9565b6101457f000000000000000000000000000000000000000000000000000000000000000081565b600554610145906001600160a01b031681565b600454610165565b610165662386f26fc1000081565b6101ed6101d93660046110be565b60036020525f908152604090205460ff1681565b604051901515815260200161011f565b61013061020b366004611130565b61075a565b61024961021e3660046110be565b600260208190525f918252604090912080546001820154928201546003909201549092919060ff1684565b604080519485526020850193909352918301521515606082015260800161011f565b6102b8610279366004610fc4565b600160208190525f918252604090912080549181015460028201546003830154600484015460058501546006909501549394929360ff90921692909187565b60405161011f97969594939291906111b2565b6101306102d93660046110be565b610a58565b6102f16102ec3660046110be565b610b2a565b60405161011f919081518152602080830151908201526040808301519082015260609182015115159181019190915260800190565b6101656103343660046111f2565b610ba2565b61038060408051610100810182525f8082526020820181905291810182905290606082019081526020015f80191681526020015f81526020015f8152602001606081525090565b60015f8381526020019081526020015f20604051806101000160405290815f82015481526020016001820154815260200160028201548152602001600382015f9054906101000a900460ff1660038111156103dd576103dd610fdb565b60038111156103ee576103ee610fdb565b81526020016004820154815260200160058201548152602001600682015481526020016007820180548060200260200160405190810160405280929190818152602001828054801561046757602002820191905f5260205f20905b81546001600160a01b03168152600190910190602001808311610449575b5050505050815250509050919050565b335f9081526003602052604090205460ff16156104db5760405162461bcd60e51b815260206004820152601260248201527f416c72656164792072656769737465726564000000000000000000000000000060448201526064015b60405180910390fd5b335f8181526003602081815260408084208054600160ff199182168117909255825160808101845286815280850187815242828601908152606083018581528a8a52600297889052868a2093518455915183860155519582019590955593519390940180549094169215159290921790925560048054918201815583527f8a35acfbc15ff81a39ae7d344fd709f28e8600b4aa8c65c6b64bfe7fe36bd19b0180546001600160a01b03191684179055517f4d0eb1f4bac8744fd2be119845e23b3befc88094b42bcda1204c65694a00f9e59190a2565b600481815481106105c0575f80fd5b5f918252602090912001546001600160a01b0316905081565b335f9081526003602052604090205460ff166106375760405162461bcd60e51b815260206004820152601760248201527f4f70657261746f72206e6f74207265676973746572656400000000000000000060448201526064016104d2565b335f908152600360208181526040808420805460ff1990811690915560029092528320909101805490911690555b60045481101561075757336001600160a01b03166004828154811061068c5761068c611212565b5f918252602090912001546001600160a01b03160361074f57600480546106b59060019061123a565b815481106106c5576106c5611212565b5f91825260209091200154600480546001600160a01b0390921691839081106106f0576106f0611212565b905f5260205f20015f6101000a8154816001600160a01b0302191690836001600160a01b03160217905550600480548061072c5761072c61124d565b5f8281526020902081015f1990810180546001600160a01b031916905501905550565b600101610665565b50565b335f9081526003602052604090205460ff166107b85760405162461bcd60e51b815260206004820152601760248201527f4f70657261746f72206e6f74207265676973746572656400000000000000000060448201526064016104d2565b5f86815260016020526040902080546108135760405162461bcd60e51b815260206004820152600e60248201527f5461736b206e6f7420666f756e6400000000000000000000000000000000000060448201526064016104d2565b5f60038083015460ff169081111561082d5761082d610fdb565b1461087a5760405162461bcd60e51b815260206004820152601060248201527f5461736b206e6f742070656e64696e670000000000000000000000000000000060448201526064016104d2565b80600201544211156108ce5760405162461bcd60e51b815260206004820152601460248201527f5461736b20646561646c696e652070617373656400000000000000000000000060448201526064016104d2565b60038101805460ff1916600117905560048101869055426006820155335f90815260026020526040812080549161090483611261565b9091555050335f9081526002602081905260409182902042910155516328020ca760e11b81527f00000000000000000000000000000000000000000000000000000000000000006001600160a01b031690635004194e90610971908a9089908990899089906004016112a1565b5f604051808303815f87803b158015610988575f80fd5b505af115801561099a573d5f803e3d5ffd5b505f9250600191506109a99050565b6040519080825280602002602001820160405280156109d2578160200160208202803683370190505b50905033815f815181106109e8576109e8611212565b60200260200101906001600160a01b031690816001600160a01b031681525050610a128882610e26565b877fa7a006b894db9956dfa269d169d58d63ab26cf56377fada5ed46281e93868a53888342604051610a4693929190611330565b60405180910390a25050505050505050565b6005546001600160a01b03163314610ab25760405162461bcd60e51b815260206004820152600960248201527f4e6f74206f776e6572000000000000000000000000000000000000000000000060448201526064016104d2565b6001600160a01b038116610b085760405162461bcd60e51b815260206004820152600f60248201527f496e76616c69642061646472657373000000000000000000000000000000000060448201526064016104d2565b600580546001600160a01b0319166001600160a01b0392909216919091179055565b610b5360405180608001604052805f81526020015f81526020015f81526020015f151581525090565b506001600160a01b03165f9081526002602081815260409283902083516080810185528154815260018201549281019290925291820154928101929092526003015460ff161515606082015290565b5f610baf42610258611358565b8211610bfd5760405162461bcd60e51b815260206004820152601060248201527f496e76616c696420646561646c696e650000000000000000000000000000000060448201526064016104d2565b5f808154610c0a90611261565b91829055506040517f4d41544348494e475f5441534b000000000000000000000000000000000000006020820152602d810191909152604d810184905242606d820152608d016040516020818303038152906040528051906020012090505f60048054905067ffffffffffffffff811115610c8757610c876112d9565b604051908082528060200260200182016040528015610cb0578160200160208202803683370190505b5090505f5b600454811015610d1f5760048181548110610cd257610cd2611212565b905f5260205f20015f9054906101000a90046001600160a01b0316828281518110610cff57610cff611212565b6001600160a01b0390921660209283029190910190910152600101610cb5565b50604080516101008101825283815260208082018781528284018781525f60608501818152608086018290524260a087015260c0860182905260e08601889052888252600194859052959020845181559151828401555160028201559251600380850180549495949293909260ff1916918490811115610da157610da1610fdb565b02179055506080820151600482015560a0820151600582015560c0820151600682015560e08201518051610ddf916007840191602090910190610f4d565b5090505083827f41b4db3a8508c4ef9020da6634d5731202d7a506835518a2555774a4c430a67e8584604051610e1692919061136b565b60405180910390a3505b92915050565b8051662386f26fc10000905f90610e3d908361138b565b90505f835167ffffffffffffffff811115610e5a57610e5a6112d9565b604051908082528060200260200182016040528015610e83578160200160208202803683370190505b5090505f5b8451811015610f0b5782828281518110610ea457610ea4611212565b6020026020010181815250508260025f878481518110610ec657610ec6611212565b60200260200101516001600160a01b03166001600160a01b031681526020019081526020015f206001015f828254610efe9190611358565b9091555050600101610e88565b50847fdbebdbe908829865101570a5f02a7ed584c2554aeadaca77fda519ba07e7c2788583604051610f3e9291906113aa565b60405180910390a25050505050565b828054828255905f5260205f20908101928215610fa0579160200282015b82811115610fa057825182546001600160a01b0319166001600160a01b03909116178255602090920191600190910190610f6b565b50610fac929150610fb0565b5090565b5b80821115610fac575f8155600101610fb1565b5f60208284031215610fd4575f80fd5b5035919050565b634e487b7160e01b5f52602160045260245ffd5b6004811061100b57634e487b7160e01b5f52602160045260245ffd5b9052565b602081525f610120820183516020840152602084015160408401526040840151606084015260608401516110466080850182610fef565b50608084015160a084015260a084015160c084015260c084015160e084015260e084015161010080850152818151808452610140860191506020830193505f92505b808310156110b4576001600160a01b038451168252602082019150602084019350600183019250611088565b5095945050505050565b5f602082840312156110ce575f80fd5b81356001600160a01b03811681146110e4575f80fd5b9392505050565b5f8083601f8401126110fb575f80fd5b50813567ffffffffffffffff811115611112575f80fd5b602083019150836020828501011115611129575f80fd5b9250929050565b5f805f805f8060808789031215611145575f80fd5b8635955060208701359450604087013567ffffffffffffffff811115611169575f80fd5b61117589828a016110eb565b909550935050606087013567ffffffffffffffff811115611194575f80fd5b6111a089828a016110eb565b979a9699509497509295939492505050565b878152602081018790526040810186905260e081016111d46060830187610fef565b8460808301528360a08301528260c083015298975050505050505050565b5f8060408385031215611203575f80fd5b50508035926020909101359150565b634e487b7160e01b5f52603260045260245ffd5b634e487b7160e01b5f52601160045260245ffd5b81810381811115610e2057610e20611226565b634e487b7160e01b5f52603160045260245ffd5b5f6001820161127257611272611226565b5060010190565b81835281816020850137505f828201602090810191909152601f909101601f19169091010190565b858152606060208201525f6112ba606083018688611279565b82810360408401526112cd818587611279565b98975050505050505050565b634e487b7160e01b5f52604160045260245ffd5b5f8151808452602084019350602083015f5b828110156113265781516001600160a01b03168652602095860195909101906001016112ff565b5093949350505050565b838152606060208201525f61134860608301856112ed565b9050826040830152949350505050565b80820180821115610e2057610e20611226565b828152604060208201525f61138360408301846112ed565b949350505050565b5f826113a557634e487b7160e01b5f52601260045260245ffd5b500490565b604081525f6113bc60408301856112ed565b82810360208401528084518083526020830191506020860192505f5b818110156113f65783518352602093840193909201916001016113d8565b5090969550505050505056fea26469706673582212208bb9a61d19f66e13d053d433e1bd7cdada05047fd506021d67225cc0b1a6447c64736f6c634300081a0033","linkReferences":{}},"methodIdentifiers":{"BASE_TASK_REWARD()":"9f00d791","activeOperators(uint256)":"45627119","createMatchingTask(bytes32,uint256)":"fc50a7a7","deregisterOperator()":"857dc190","eigenVaultHook()":"8ab3ed93","getActiveOperatorsCount()":"9241aa54","getOperatorMetrics(address)":"f3da22fa","getTask(bytes32)":"15a29035","operatorMetrics(address)":"dcc310f6","owner()":"8da5cb5b","registerOperator()":"2acde098","registeredOperators(address)":"afebf403","submitTaskResponse(bytes32,bytes32,bytes,bytes)":"c320a526","taskCounter()":"58671730","tasks(bytes32)":"e579f500","transferOwnership(address)":"f2fde38b"},"id":2}