{"abi":[{"type":"constructor","inputs":[{"name":"_eigenVaultHook","type":"address","internalType":"contract IEigenVaultHook"},{"name":"_orderVault","type":"address","internalType":"contract IOrderVault"}],"stateMutability":"nonpayable"},{"type":"function","name":"activeOperators","inputs":[{"name":"","type":"uint256","internalType":"uint256"}],"outputs":[{"name":"","type":"address","internalType":"address"}],"stateMutability":"view"},{"type":"function","name":"createTask","inputs":[{"name":"ordersSetHash","type":"bytes32","internalType":"bytes32"},{"name":"deadline","type":"uint256","internalType":"uint256"}],"outputs":[{"name":"","type":"bytes32","internalType":"bytes32"}],"stateMutability":"nonpayable"},{"type":"function","name":"eigenVaultHook","inputs":[],"outputs":[{"name":"","type":"address","internalType":"contract IEigenVaultHook"}],"stateMutability":"view"},{"type":"function","name":"getActiveOperators","inputs":[],"outputs":[{"name":"","type":"address[]","internalType":"address[]"}],"stateMutability":"view"},{"type":"function","name":"getOperatorInfo","inputs":[{"name":"operator","type":"address","internalType":"address"}],"outputs":[{"name":"isRegistered","type":"bool","internalType":"bool"},{"name":"stake","type":"uint256","internalType":"uint256"},{"name":"isSlashed","type":"bool","internalType":"bool"}],"stateMutability":"view"},{"type":"function","name":"getTask","inputs":[{"name":"taskId","type":"bytes32","internalType":"bytes32"}],"outputs":[{"name":"ordersSetHash","type":"bytes32","internalType":"bytes32"},{"name":"deadline","type":"uint256","internalType":"uint256"},{"name":"completed","type":"bool","internalType":"bool"},{"name":"assignedOperator","type":"address","internalType":"address"},{"name":"resultHash","type":"bytes32","internalType":"bytes32"}],"stateMutability":"view"},{"type":"function","name":"minimumStake","inputs":[],"outputs":[{"name":"","type":"uint256","internalType":"uint256"}],"stateMutability":"view"},{"type":"function","name":"operators","inputs":[{"name":"","type":"address","internalType":"address"}],"outputs":[{"name":"isRegistered","type":"bool","internalType":"bool"},{"name":"stake","type":"uint256","internalType":"uint256"},{"name":"isSlashed","type":"bool","internalType":"bool"},{"name":"tasksCompleted","type":"uint256","internalType":"uint256"},{"name":"registrationTime","type":"uint256","internalType":"uint256"}],"stateMutability":"view"},{"type":"function","name":"orderVault","inputs":[],"outputs":[{"name":"","type":"address","internalType":"contract IOrderVault"}],"stateMutability":"view"},{"type":"function","name":"owner","inputs":[],"outputs":[{"name":"","type":"address","internalType":"address"}],"stateMutability":"view"},{"type":"function","name":"registerOperator","inputs":[],"outputs":[],"stateMutability":"payable"},{"type":"function","name":"slashOperator","inputs":[{"name":"operator","type":"address","internalType":"address"},{"name":"amount","type":"uint256","internalType":"uint256"}],"outputs":[],"stateMutability":"nonpayable"},{"type":"function","name":"submitTaskResponse","inputs":[{"name":"taskId","type":"bytes32","internalType":"bytes32"},{"name":"response","type":"bytes","internalType":"bytes"},{"name":"resultHash","type":"bytes32","internalType":"bytes32"}],"outputs":[],"stateMutability":"nonpayable"},{"type":"function","name":"taskCounter","inputs":[],"outputs":[{"name":"","type":"uint256","internalType":"uint256"}],"stateMutability":"view"},{"type":"function","name":"tasks","inputs":[{"name":"","type":"bytes32","internalType":"bytes32"}],"outputs":[{"name":"taskId","type":"bytes32","internalType":"bytes32"},{"name":"ordersSetHash","type":"bytes32","internalType":"bytes32"},{"name":"deadline","type":"uint256","internalType":"uint256"},{"name":"status","type":"uint8","internalType":"enum EigenVaultServiceManager.TaskStatus"},{"name":"resultHash","type":"bytes32","internalType":"bytes32"},{"name":"createdAt","type":"uint256","internalType":"uint256"},{"name":"completedAt","type":"uint256","internalType":"uint256"},{"name":"assignedOperator","type":"address","internalType":"address"},{"name":"verified","type":"bool","internalType":"bool"}],"stateMutability":"view"},{"type":"event","name":"OperatorRegistered","inputs":[{"name":"operator","type":"address","indexed":true,"internalType":"address"},{"name":"stake","type":"uint256","indexed":false,"internalType":"uint256"}],"anonymous":false},{"type":"event","name":"OperatorSlashed","inputs":[{"name":"operator","type":"address","indexed":true,"internalType":"address"},{"name":"amount","type":"uint256","indexed":false,"internalType":"uint256"},{"name":"reason","type":"string","indexed":false,"internalType":"string"}],"anonymous":false},{"type":"event","name":"TaskCompleted","inputs":[{"name":"taskId","type":"bytes32","indexed":true,"internalType":"bytes32"},{"name":"resultHash","type":"bytes32","indexed":false,"internalType":"bytes32"},{"name":"operator","type":"address","indexed":false,"internalType":"address"}],"anonymous":false},{"type":"event","name":"TaskCreated","inputs":[{"name":"taskId","type":"bytes32","indexed":true,"internalType":"bytes32"},{"name":"ordersSetHash","type":"bytes32","indexed":true,"internalType":"bytes32"},{"name":"deadline","type":"uint256","indexed":false,"internalType":"uint256"},{"name":"assignedOperator","type":"address","indexed":false,"internalType":"address"}],"anonymous":false}],"bytecode":{"object":"0x60c0604052670de0b6b3a764000060015534801561001b575f80fd5b50604051612229380380612229833981810160405281019061003d9190610196565b8173ffffffffffffffffffffffffffffffffffffffff1660808173ffffffffffffffffffffffffffffffffffffffff16815250508073ffffffffffffffffffffffffffffffffffffffff1660a08173ffffffffffffffffffffffffffffffffffffffff16815250503360055f6101000a81548173ffffffffffffffffffffffffffffffffffffffff021916908373ffffffffffffffffffffffffffffffffffffffff16021790555050506101d4565b5f80fd5b5f73ffffffffffffffffffffffffffffffffffffffff82169050919050565b5f610119826100f0565b9050919050565b5f61012a8261010f565b9050919050565b61013a81610120565b8114610144575f80fd5b50565b5f8151905061015581610131565b92915050565b5f6101658261010f565b9050919050565b6101758161015b565b811461017f575f80fd5b50565b5f815190506101908161016c565b92915050565b5f80604083850312156101ac576101ab6100ec565b5b5f6101b985828601610147565b92505060206101ca85828601610182565b9150509250929050565b60805160a0516120346101f55f395f610b2201525f610ad901526120345ff3fe6080604052600436106100e7575f3560e01c80636fbb5f6211610089578063b179849611610058578063b1798496146102fd578063c6a5554a14610325578063e579f5001461034d578063ec5ffac214610391576100e7565b80636fbb5f62146102435780638ab3ed931461027f5780638da5cb5b146102a957806393845e46146102d3576100e7565b80632acde098116100c55780632acde098146101a957806345627119146101b357806358671730146101ef57806364bdc67e14610219576100e7565b806313e7c9d8146100eb57806315a290351461012b57806327d9ab5d1461016b575b5f80fd5b3480156100f6575f80fd5b50610111600480360381019061010c919061127d565b6103bb565b6040516101229594939291906112da565b60405180910390f35b348015610136575f80fd5b50610151600480360381019061014c919061135e565b610405565b6040516101629594939291906113a7565b60405180910390f35b348015610176575f80fd5b50610191600480360381019061018c919061127d565b61049d565b6040516101a0939291906113f8565b60405180910390f35b6101b1610514565b005b3480156101be575f80fd5b506101d960048036038101906101d49190611457565b61075b565b6040516101e69190611482565b60405180910390f35b3480156101fa575f80fd5b50610203610796565b604051610210919061149b565b60405180910390f35b348015610224575f80fd5b5061022d61079b565b60405161023a919061156b565b60405180910390f35b34801561024e575f80fd5b506102696004803603810190610264919061158b565b610826565b60405161027691906115c9565b60405180910390f35b34801561028a575f80fd5b50610293610ad7565b6040516102a0919061163d565b60405180910390f35b3480156102b4575f80fd5b506102bd610afb565b6040516102ca9190611482565b60405180910390f35b3480156102de575f80fd5b506102e7610b20565b6040516102f49190611676565b60405180910390f35b348015610308575f80fd5b50610323600480360381019061031e91906116f0565b610b44565b005b348015610330575f80fd5b5061034b60048036038101906103469190611761565b610ef6565b005b348015610358575f80fd5b50610373600480360381019061036e919061135e565b611193565b60405161038899989796959493929190611812565b60405180910390f35b34801561039c575f80fd5b506103a5611215565b6040516103b2919061149b565b60405180910390f35b6003602052805f5260405f205f91509050805f015f9054906101000a900460ff1690806001015490806002015f9054906101000a900460ff16908060030154908060040154905085565b5f805f805f8060025f8881526020019081526020015f209050806001015481600201546001600381111561043c5761043b61179f565b5b836003015f9054906101000a900460ff16600381111561045f5761045e61179f565b5b14836007015f9054906101000a900473ffffffffffffffffffffffffffffffffffffffff168460040154955095509550955095505091939590929450565b5f805f8060035f8673ffffffffffffffffffffffffffffffffffffffff1673ffffffffffffffffffffffffffffffffffffffff1681526020019081526020015f209050805f015f9054906101000a900460ff168160010154826002015f9054906101000a900460ff16935093509350509193909250565b600154341015610559576040517f08c379a0000000000000000000000000000000000000000000000000000000008152600401610550906118f7565b60405180910390fd5b60035f3373ffffffffffffffffffffffffffffffffffffffff1673ffffffffffffffffffffffffffffffffffffffff1681526020019081526020015f205f015f9054906101000a900460ff16156105e5576040517f08c379a00000000000000000000000000000000000000000000000000000000081526004016105dc9061195f565b60405180910390fd5b6040518060a001604052806001151581526020013481526020015f151581526020015f81526020014281525060035f3373ffffffffffffffffffffffffffffffffffffffff1673ffffffffffffffffffffffffffffffffffffffff1681526020019081526020015f205f820151815f015f6101000a81548160ff021916908315150217905550602082015181600101556040820151816002015f6101000a81548160ff0219169083151502179055506060820151816003015560808201518160040155905050600433908060018154018082558091505060019003905f5260205f20015f9091909190916101000a81548173ffffffffffffffffffffffffffffffffffffffff021916908373ffffffffffffffffffffffffffffffffffffffff1602179055503373ffffffffffffffffffffffffffffffffffffffff167fbc11617e575d658c74e921c8df22f8e48566072fa78145a6cfe18420bf8d0c4e34604051610751919061149b565b60405180910390a2565b6004818154811061076a575f80fd5b905f5260205f20015f915054906101000a900473ffffffffffffffffffffffffffffffffffffffff1681565b5f5481565b6060600480548060200260200160405190810160405280929190818152602001828054801561081c57602002820191905f5260205f20905b815f9054906101000a900473ffffffffffffffffffffffffffffffffffffffff1673ffffffffffffffffffffffffffffffffffffffff16815260200190600101908083116107d3575b5050505050905090565b5f428211610869576040517f08c379a0000000000000000000000000000000000000000000000000000000008152600401610860906119c7565b60405180910390fd5b5f600480549050116108b0576040517f08c379a00000000000000000000000000000000000000000000000000000000081526004016108a790611a2f565b60405180910390fd5b5f805f8154809291906108c290611a7a565b9190505542856040516020016108da93929190611b01565b6040516020818303038152906040528051906020012090505f600480805490505f546109069190611b6a565b8154811061091757610916611b9a565b5b905f5260205f20015f9054906101000a900473ffffffffffffffffffffffffffffffffffffffff1690506040518061012001604052808381526020018681526020018581526020015f60038111156109725761097161179f565b5b81526020015f801b81526020014281526020015f81526020018273ffffffffffffffffffffffffffffffffffffffff1681526020015f151581525060025f8481526020019081526020015f205f820151815f015560208201518160010155604082015181600201556060820151816003015f6101000a81548160ff02191690836003811115610a0457610a0361179f565b5b02179055506080820151816004015560a0820151816005015560c0820151816006015560e0820151816007015f6101000a81548173ffffffffffffffffffffffffffffffffffffffff021916908373ffffffffffffffffffffffffffffffffffffffff1602179055506101008201518160070160146101000a81548160ff02191690831515021790555090505084827f91cb3ef301b4991a8e469d3313f6ee37f2a9ec78d8617913550fb82d85127dcd8684604051610ac4929190611bc7565b60405180910390a3819250505092915050565b7f000000000000000000000000000000000000000000000000000000000000000081565b60055f9054906101000a900473ffffffffffffffffffffffffffffffffffffffff1681565b7f000000000000000000000000000000000000000000000000000000000000000081565b60035f3373ffffffffffffffffffffffffffffffffffffffff1673ffffffffffffffffffffffffffffffffffffffff1681526020019081526020015f205f015f9054906101000a900460ff16610bcf576040517f08c379a0000000000000000000000000000000000000000000000000000000008152600401610bc690611c38565b60405180910390fd5b60035f3373ffffffffffffffffffffffffffffffffffffffff1673ffffffffffffffffffffffffffffffffffffffff1681526020019081526020015f206002015f9054906101000a900460ff1615610c5c576040517f08c379a0000000000000000000000000000000000000000000000000000000008152600401610c5390611ca0565b60405180910390fd5b5f60025f8681526020019081526020015f2090505f801b815f015403610cb7576040517f08c379a0000000000000000000000000000000000000000000000000000000008152600401610cae90611d08565b60405180910390fd5b5f6003811115610cca57610cc961179f565b5b816003015f9054906101000a900460ff166003811115610ced57610cec61179f565b5b14610d2d576040517f08c379a0000000000000000000000000000000000000000000000000000000008152600401610d2490611d70565b60405180910390fd5b8060020154421115610d74576040517f08c379a0000000000000000000000000000000000000000000000000000000008152600401610d6b90611dd8565b60405180910390fd5b3373ffffffffffffffffffffffffffffffffffffffff16816007015f9054906101000a900473ffffffffffffffffffffffffffffffffffffffff1673ffffffffffffffffffffffffffffffffffffffff1614610e05576040517f08c379a0000000000000000000000000000000000000000000000000000000008152600401610dfc90611e40565b60405180910390fd5b8181600401819055506001816003015f6101000a81548160ff02191690836003811115610e3557610e3461179f565b5b021790555042816006018190555060018160070160146101000a81548160ff02191690831515021790555060035f3373ffffffffffffffffffffffffffffffffffffffff1673ffffffffffffffffffffffffffffffffffffffff1681526020019081526020015f206003015f815480929190610eb090611a7a565b9190505550847f7a94ae50ae6367cad5421254ec1d0d7b3114a52365a365000cbbac0bd3ed49118333604051610ee7929190611e5e565b60405180910390a25050505050565b60055f9054906101000a900473ffffffffffffffffffffffffffffffffffffffff1673ffffffffffffffffffffffffffffffffffffffff163373ffffffffffffffffffffffffffffffffffffffff1614610f85576040517f08c379a0000000000000000000000000000000000000000000000000000000008152600401610f7c90611ecf565b60405180910390fd5b60035f8373ffffffffffffffffffffffffffffffffffffffff1673ffffffffffffffffffffffffffffffffffffffff1681526020019081526020015f205f015f9054906101000a900460ff16611010576040517f08c379a000000000000000000000000000000000000000000000000000000000815260040161100790611c38565b60405180910390fd5b8060035f8473ffffffffffffffffffffffffffffffffffffffff1673ffffffffffffffffffffffffffffffffffffffff1681526020019081526020015f20600101541015611093576040517f08c379a000000000000000000000000000000000000000000000000000000000815260040161108a90611f37565b60405180910390fd5b8060035f8473ffffffffffffffffffffffffffffffffffffffff1673ffffffffffffffffffffffffffffffffffffffff1681526020019081526020015f206001015f8282546110e29190611f55565b92505081905550600160035f8473ffffffffffffffffffffffffffffffffffffffff1673ffffffffffffffffffffffffffffffffffffffff1681526020019081526020015f206002015f6101000a81548160ff0219169083151502179055508173ffffffffffffffffffffffffffffffffffffffff167f29c9339e1104e8bba6cfe746e41667b70938364e81e867a780080c0109efc055826040516111879190611fd2565b60405180910390a25050565b6002602052805f5260405f205f91509050805f015490806001015490806002015490806003015f9054906101000a900460ff1690806004015490806005015490806006015490806007015f9054906101000a900473ffffffffffffffffffffffffffffffffffffffff16908060070160149054906101000a900460ff16905089565b60015481565b5f80fd5b5f80fd5b5f73ffffffffffffffffffffffffffffffffffffffff82169050919050565b5f61124c82611223565b9050919050565b61125c81611242565b8114611266575f80fd5b50565b5f8135905061127781611253565b92915050565b5f602082840312156112925761129161121b565b5b5f61129f84828501611269565b91505092915050565b5f8115159050919050565b6112bc816112a8565b82525050565b5f819050919050565b6112d4816112c2565b82525050565b5f60a0820190506112ed5f8301886112b3565b6112fa60208301876112cb565b61130760408301866112b3565b61131460608301856112cb565b61132160808301846112cb565b9695505050505050565b5f819050919050565b61133d8161132b565b8114611347575f80fd5b50565b5f8135905061135881611334565b92915050565b5f602082840312156113735761137261121b565b5b5f6113808482850161134a565b91505092915050565b6113928161132b565b82525050565b6113a181611242565b82525050565b5f60a0820190506113ba5f830188611389565b6113c760208301876112cb565b6113d460408301866112b3565b6113e16060830185611398565b6113ee6080830184611389565b9695505050505050565b5f60608201905061140b5f8301866112b3565b61141860208301856112cb565b61142560408301846112b3565b949350505050565b611436816112c2565b8114611440575f80fd5b50565b5f813590506114518161142d565b92915050565b5f6020828403121561146c5761146b61121b565b5b5f61147984828501611443565b91505092915050565b5f6020820190506114955f830184611398565b92915050565b5f6020820190506114ae5f8301846112cb565b92915050565b5f81519050919050565b5f82825260208201905092915050565b5f819050602082019050919050565b6114e681611242565b82525050565b5f6114f783836114dd565b60208301905092915050565b5f602082019050919050565b5f611519826114b4565b61152381856114be565b935061152e836114ce565b805f5b8381101561155e57815161154588826114ec565b975061155083611503565b925050600181019050611531565b5085935050505092915050565b5f6020820190508181035f830152611583818461150f565b905092915050565b5f80604083850312156115a1576115a061121b565b5b5f6115ae8582860161134a565b92505060206115bf85828601611443565b9150509250929050565b5f6020820190506115dc5f830184611389565b92915050565b5f819050919050565b5f6116056116006115fb84611223565b6115e2565b611223565b9050919050565b5f611616826115eb565b9050919050565b5f6116278261160c565b9050919050565b6116378161161d565b82525050565b5f6020820190506116505f83018461162e565b92915050565b5f6116608261160c565b9050919050565b61167081611656565b82525050565b5f6020820190506116895f830184611667565b92915050565b5f80fd5b5f80fd5b5f80fd5b5f8083601f8401126116b0576116af61168f565b5b8235905067ffffffffffffffff8111156116cd576116cc611693565b5b6020830191508360018202830111156116e9576116e8611697565b5b9250929050565b5f805f80606085870312156117085761170761121b565b5b5f6117158782880161134a565b945050602085013567ffffffffffffffff8111156117365761173561121f565b5b6117428782880161169b565b935093505060406117558782880161134a565b91505092959194509250565b5f80604083850312156117775761177661121b565b5b5f61178485828601611269565b925050602061179585828601611443565b9150509250929050565b7f4e487b71000000000000000000000000000000000000000000000000000000005f52602160045260245ffd5b600481106117dd576117dc61179f565b5b50565b5f8190506117ed826117cc565b919050565b5f6117fc826117e0565b9050919050565b61180c816117f2565b82525050565b5f610120820190506118265f83018c611389565b611833602083018b611389565b611840604083018a6112cb565b61184d6060830189611803565b61185a6080830188611389565b61186760a08301876112cb565b61187460c08301866112cb565b61188160e0830185611398565b61188f6101008301846112b3565b9a9950505050505050505050565b5f82825260208201905092915050565b7f496e73756666696369656e74207374616b6500000000000000000000000000005f82015250565b5f6118e160128361189d565b91506118ec826118ad565b602082019050919050565b5f6020820190508181035f83015261190e816118d5565b9050919050565b7f416c7265616479207265676973746572656400000000000000000000000000005f82015250565b5f61194960128361189d565b915061195482611915565b602082019050919050565b5f6020820190508181035f8301526119768161193d565b9050919050565b7f496e76616c696420646561646c696e65000000000000000000000000000000005f82015250565b5f6119b160108361189d565b91506119bc8261197d565b602082019050919050565b5f6020820190508181035f8301526119de816119a5565b9050919050565b7f4e6f2072656769737465726564206f70657261746f72730000000000000000005f82015250565b5f611a1960178361189d565b9150611a24826119e5565b602082019050919050565b5f6020820190508181035f830152611a4681611a0d565b9050919050565b7f4e487b71000000000000000000000000000000000000000000000000000000005f52601160045260245ffd5b5f611a84826112c2565b91507fffffffffffffffffffffffffffffffffffffffffffffffffffffffffffffffff8203611ab657611ab5611a4d565b5b600182019050919050565b5f819050919050565b611adb611ad6826112c2565b611ac1565b82525050565b5f819050919050565b611afb611af68261132b565b611ae1565b82525050565b5f611b0c8286611aca565b602082019150611b1c8285611aca565b602082019150611b2c8284611aea565b602082019150819050949350505050565b7f4e487b71000000000000000000000000000000000000000000000000000000005f52601260045260245ffd5b5f611b74826112c2565b9150611b7f836112c2565b925082611b8f57611b8e611b3d565b5b828206905092915050565b7f4e487b71000000000000000000000000000000000000000000000000000000005f52603260045260245ffd5b5f604082019050611bda5f8301856112cb565b611be76020830184611398565b9392505050565b7f4f70657261746f72206e6f7420726567697374657265640000000000000000005f82015250565b5f611c2260178361189d565b9150611c2d82611bee565b602082019050919050565b5f6020820190508181035f830152611c4f81611c16565b9050919050565b7f4f70657261746f7220736c6173686564000000000000000000000000000000005f82015250565b5f611c8a60108361189d565b9150611c9582611c56565b602082019050919050565b5f6020820190508181035f830152611cb781611c7e565b9050919050565b7f5461736b206e6f7420666f756e640000000000000000000000000000000000005f82015250565b5f611cf2600e8361189d565b9150611cfd82611cbe565b602082019050919050565b5f6020820190508181035f830152611d1f81611ce6565b9050919050565b7f5461736b206e6f742070656e64696e67000000000000000000000000000000005f82015250565b5f611d5a60108361189d565b9150611d6582611d26565b602082019050919050565b5f6020820190508181035f830152611d8781611d4e565b9050919050565b7f5461736b20646561646c696e65207061737365640000000000000000000000005f82015250565b5f611dc260148361189d565b9150611dcd82611d8e565b602082019050919050565b5f6020820190508181035f830152611def81611db6565b9050919050565b7f4e6f742061737369676e656420746f2074686973207461736b000000000000005f82015250565b5f611e2a60198361189d565b9150611e3582611df6565b602082019050919050565b5f6020820190508181035f830152611e5781611e1e565b9050919050565b5f604082019050611e715f830185611389565b611e7e6020830184611398565b9392505050565b7f4f6e6c79206f776e6572000000000000000000000000000000000000000000005f82015250565b5f611eb9600a8361189d565b9150611ec482611e85565b602082019050919050565b5f6020820190508181035f830152611ee681611ead565b9050919050565b7f496e73756666696369656e74207374616b6520746f20736c61736800000000005f82015250565b5f611f21601b8361189d565b9150611f2c82611eed565b602082019050919050565b5f6020820190508181035f830152611f4e81611f15565b9050919050565b5f611f5f826112c2565b9150611f6a836112c2565b9250828203905081811115611f8257611f81611a4d565b5b92915050565b7f4d69736265686176696f722064657465637465640000000000000000000000005f82015250565b5f611fbc60148361189d565b9150611fc782611f88565b602082019050919050565b5f604082019050611fe55f8301846112cb565b8181036020830152611ff681611fb0565b90509291505056fea2646970667358221220f4ed23e30ef44cb0d7f20ed0f4bbe071dc09ab47ce603632d63545eadaeb801964736f6c634300081a0033","linkReferences":{}},"methodIdentifiers":{"activeOperators(uint256)":"45627119","createTask(bytes32,uint256)":"6fbb5f62","eigenVaultHook()":"8ab3ed93","getActiveOperators()":"64bdc67e","getOperatorInfo(address)":"27d9ab5d","getTask(bytes32)":"15a29035","minimumStake()":"ec5ffac2","operators(address)":"13e7c9d8","orderVault()":"93845e46","owner()":"8da5cb5b","registerOperator()":"2acde098","slashOperator(address,uint256)":"c6a5554a","submitTaskResponse(bytes32,bytes,bytes32)":"b1798496","taskCounter()":"58671730","tasks(bytes32)":"e579f500"},"id":2}