{"abi":[{"type":"function","name":"getSlot0","inputs":[{"name":"poolId","type":"bytes32","internalType":"bytes32"}],"outputs":[{"name":"sqrtPriceX96","type":"uint160","internalType":"uint160"},{"name":"tick","type":"int24","internalType":"int24"},{"name":"protocolFee","type":"uint16","internalType":"uint16"},{"name":"swapFee","type":"uint24","internalType":"uint24"}],"stateMutability":"view"},{"type":"function","name":"initialize","inputs":[{"name":"poolId","type":"bytes32","internalType":"bytes32"},{"name":"sqrtPriceX96","type":"uint160","internalType":"uint160"}],"outputs":[],"stateMutability":"nonpayable"},{"type":"function","name":"poolExists","inputs":[{"name":"","type":"bytes32","internalType":"bytes32"}],"outputs":[{"name":"","type":"bool","internalType":"bool"}],"stateMutability":"view"},{"type":"function","name":"poolLiquidity","inputs":[{"name":"","type":"bytes32","internalType":"bytes32"}],"outputs":[{"name":"","type":"uint256","internalType":"uint256"}],"stateMutability":"view"},{"type":"function","name":"swap","inputs":[{"name":"poolId","type":"bytes32","internalType":"bytes32"},{"name":"recipient","type":"address","internalType":"address"},{"name":"zeroForOne","type":"bool","internalType":"bool"},{"name":"amountSpecified","type":"int256","internalType":"int256"},{"name":"sqrtPriceLimitX96","type":"uint160","internalType":"uint160"},{"name":"hookData","type":"bytes","internalType":"bytes"}],"outputs":[{"name":"amount0","type":"int128","internalType":"int128"},{"name":"amount1","type":"int128","internalType":"int128"}],"stateMutability":"nonpayable"},{"type":"event","name":"Swap","inputs":[{"name":"poolId","type":"bytes32","indexed":true,"internalType":"bytes32"},{"name":"sender","type":"address","indexed":true,"internalType":"address"},{"name":"amount0","type":"int128","indexed":false,"internalType":"int128"},{"name":"amount1","type":"int128","indexed":false,"internalType":"int128"},{"name":"sqrtPriceX96","type":"uint160","indexed":false,"internalType":"uint160"},{"name":"liquidity","type":"uint128","indexed":false,"internalType":"uint128"},{"name":"tick","type":"int24","indexed":false,"internalType":"int24"}],"anonymous":false}],"bytecode":{"object":"0x6080604052348015600e575f80fd5b50610a118061001c5f395ff3fe608060405234801561000f575f80fd5b5060043610610055575f3560e01c806327abb84914610059578063296d85f6146100755780632a5a0c9e146100a5578063c55ed851146100d6578063c815641c14610106575b5f80fd5b610073600480360381019061006e91906103cd565b610139565b005b61008f600480360381019061008a919061040b565b610185565b60405161009c9190610450565b60405180910390f35b6100bf60048036038101906100ba9190610562565b6101a1565b6040516100cd929190610627565b60405180910390f35b6100f060048036038101906100eb919061040b565b6102b2565b6040516100fd9190610666565b60405180910390f35b610120600480360381019061011b919061040b565b6102c7565b60405161013094939291906106e2565b60405180910390f35b60015f808481526020019081526020015f205f6101000a81548160ff02191690831515021790555069d3c21bcecceda100000060015f8481526020019081526020015f20819055505050565b5f602052805f5260405f205f915054906101000a900460ff1681565b5f805f808a81526020019081526020015f205f9054906101000a900460ff166101ff576040517f08c379a00000000000000000000000000000000000000000000000000000000081526004016101f69061077f565b60405180910390fd5b8615610226578591506107088661021691906107ca565b61021f9061080b565b905061024c565b6107088661023390610851565b61023d91906108c4565b6102469061080b565b91508590505b8773ffffffffffffffffffffffffffffffffffffffff16897f9cd312f3503782cb1d29f4114896ca5405e9cf41adf9a23b76f74203d292296e848489620f42405f60405161029e95949392919061098a565b60405180910390a397509795505050505050565b6001602052805f5260405f205f915090505481565b5f805f805f808681526020019081526020015f205f9054906101000a900460ff16610327576040517f08c379a000000000000000000000000000000000000000000000000000000000815260040161031e9061077f565b60405180910390fd5b6c165c55827df1d1eba5528fb57f5f80610bb893509350935093509193509193565b5f80fd5b5f80fd5b5f819050919050565b61036381610351565b811461036d575f80fd5b50565b5f8135905061037e8161035a565b92915050565b5f73ffffffffffffffffffffffffffffffffffffffff82169050919050565b6103ac81610384565b81146103b6575f80fd5b50565b5f813590506103c7816103a3565b92915050565b5f80604083850312156103e3576103e2610349565b5b5f6103f085828601610370565b9250506020610401858286016103b9565b9150509250929050565b5f602082840312156104205761041f610349565b5b5f61042d84828501610370565b91505092915050565b5f8115159050919050565b61044a81610436565b82525050565b5f6020820190506104635f830184610441565b92915050565b5f61047382610384565b9050919050565b61048381610469565b811461048d575f80fd5b50565b5f8135905061049e8161047a565b92915050565b6104ad81610436565b81146104b7575f80fd5b50565b5f813590506104c8816104a4565b92915050565b5f819050919050565b6104e0816104ce565b81146104ea575f80fd5b50565b5f813590506104fb816104d7565b92915050565b5f80fd5b5f80fd5b5f80fd5b5f8083601f84011261052257610521610501565b5b8235905067ffffffffffffffff81111561053f5761053e610505565b5b60208301915083600182028301111561055b5761055a610509565b5b9250929050565b5f805f805f805f60c0888a03121561057d5761057c610349565b5b5f61058a8a828b01610370565b975050602061059b8a828b01610490565b96505060406105ac8a828b016104ba565b95505060606105bd8a828b016104ed565b94505060806105ce8a828b016103b9565b93505060a088013567ffffffffffffffff8111156105ef576105ee61034d565b5b6105fb8a828b0161050d565b925092505092959891949750929550565b5f81600f0b9050919050565b6106218161060c565b82525050565b5f60408201905061063a5f830185610618565b6106476020830184610618565b9392505050565b5f819050919050565b6106608161064e565b82525050565b5f6020820190506106795f830184610657565b92915050565b61068881610384565b82525050565b5f8160020b9050919050565b6106a38161068e565b82525050565b5f61ffff82169050919050565b6106bf816106a9565b82525050565b5f62ffffff82169050919050565b6106dc816106c5565b82525050565b5f6080820190506106f55f83018761067f565b610702602083018661069a565b61070f60408301856106b6565b61071c60608301846106d3565b95945050505050565b5f82825260208201905092915050565b7f506f6f6c20646f6573206e6f74206578697374000000000000000000000000005f82015250565b5f610769601383610725565b915061077482610735565b602082019050919050565b5f6020820190508181035f8301526107968161075d565b9050919050565b7f4e487b71000000000000000000000000000000000000000000000000000000005f52601160045260245ffd5b5f6107d48261064e565b91506107df8361064e565b92508282026107ed8161064e565b915082820484148315176108045761080361079d565b5b5092915050565b5f6108158261060c565b91507fffffffffffffffffffffffffffffffff8000000000000000000000000000000082036108475761084661079d565b5b815f039050919050565b5f61085b826104ce565b91507f8000000000000000000000000000000000000000000000000000000000000000820361088d5761088c61079d565b5b815f039050919050565b7f4e487b71000000000000000000000000000000000000000000000000000000005f52601260045260245ffd5b5f6108ce8261064e565b91506108d98361064e565b9250826108e9576108e8610897565b5b828204905092915050565b5f819050919050565b5f6fffffffffffffffffffffffffffffffff82169050919050565b5f819050919050565b5f61093b610936610931846108f4565b610918565b6108fd565b9050919050565b61094b81610921565b82525050565b5f819050919050565b5f61097461096f61096a84610951565b610918565b61068e565b9050919050565b6109848161095a565b82525050565b5f60a08201905061099d5f830188610618565b6109aa6020830187610618565b6109b7604083018661067f565b6109c46060830185610942565b6109d1608083018461097b565b969550505050505056fea264697066735822122080b24ceecf6faf8b757e658104faa61aee540338626784a86a4e639e11e010d664736f6c634300081a0033","linkReferences":{}},"methodIdentifiers":{"getSlot0(bytes32)":"c815641c","initialize(bytes32,uint160)":"27abb849","poolExists(bytes32)":"296d85f6","poolLiquidity(bytes32)":"c55ed851","swap(bytes32,address,bool,int256,uint160,bytes)":"2a5a0c9e"},"id":18}