{"abi":[{"type":"function","name":"avsOperatorStatus","inputs":[{"name":"avs","type":"address","internalType":"address"},{"name":"operator","type":"address","internalType":"address"}],"outputs":[{"name":"","type":"uint8","internalType":"uint8"}],"stateMutability":"view"},{"type":"function","name":"calculateOperatorAVSRegistrationDigestHash","inputs":[{"name":"operator","type":"address","internalType":"address"},{"name":"avs","type":"address","internalType":"address"},{"name":"salt","type":"bytes32","internalType":"bytes32"},{"name":"expiry","type":"uint256","internalType":"uint256"}],"outputs":[{"name":"","type":"bytes32","internalType":"bytes32"}],"stateMutability":"view"},{"type":"function","name":"deregisterOperatorFromAVS","inputs":[{"name":"operator","type":"address","internalType":"address"}],"outputs":[],"stateMutability":"nonpayable"},{"type":"function","name":"operatorAVSs","inputs":[{"name":"","type":"address","internalType":"address"},{"name":"","type":"uint256","internalType":"uint256"}],"outputs":[{"name":"","type":"address","internalType":"address"}],"stateMutability":"view"},{"type":"function","name":"operatorRegistered","inputs":[{"name":"","type":"address","internalType":"address"}],"outputs":[{"name":"","type":"bool","internalType":"bool"}],"stateMutability":"view"},{"type":"function","name":"operatorSaltIsSpent","inputs":[{"name":"operator","type":"address","internalType":"address"},{"name":"salt","type":"bytes32","internalType":"bytes32"}],"outputs":[{"name":"","type":"bool","internalType":"bool"}],"stateMutability":"view"},{"type":"function","name":"operatorStake","inputs":[{"name":"","type":"address","internalType":"address"}],"outputs":[{"name":"","type":"uint256","internalType":"uint256"}],"stateMutability":"view"},{"type":"function","name":"registerOperatorToAVS","inputs":[{"name":"operator","type":"address","internalType":"address"},{"name":"signature","type":"bytes","internalType":"bytes"}],"outputs":[],"stateMutability":"nonpayable"},{"type":"event","name":"OperatorAVSRegistrationStatusUpdated","inputs":[{"name":"operator","type":"address","indexed":true,"internalType":"address"},{"name":"avs","type":"address","indexed":true,"internalType":"address"},{"name":"status","type":"uint8","indexed":false,"internalType":"uint8"}],"anonymous":false}],"bytecode":{"object":"0x6080604052348015600e575f80fd5b50610de68061001c5f395ff3fe608060405234801561000f575f80fd5b5060043610610086575f3560e01c8063a1060c8811610059578063a1060c8814610136578063a364f4da14610166578063b39bcf3f14610182578063ec7fbb31146101b257610086565b8063023c8f8d1461008a578063374823b5146100a657806349075da3146100d6578063855b741714610106575b5f80fd5b6100a4600480360381019061009f919061086a565b6101e2565b005b6100c060048036038101906100bb91906108fa565b61033c565b6040516100cd9190610952565b60405180910390f35b6100f060048036038101906100eb919061096b565b610343565b6040516100fd91906109c4565b60405180910390f35b610120600480360381019061011b9190610a10565b610482565b60405161012d9190610a5d565b60405180910390f35b610150600480360381019061014b9190610a76565b6104ca565b60405161015d9190610ae9565b60405180910390f35b610180600480360381019061017b9190610b02565b610506565b005b61019c60048036038101906101979190610b02565b610776565b6040516101a99190610b3c565b60405180910390f35b6101cc60048036038101906101c79190610b02565b61078b565b6040516101d99190610952565b60405180910390f35b60015f808573ffffffffffffffffffffffffffffffffffffffff1673ffffffffffffffffffffffffffffffffffffffff1681526020019081526020015f205f6101000a81548160ff02191690831515021790555060025f8473ffffffffffffffffffffffffffffffffffffffff1673ffffffffffffffffffffffffffffffffffffffff1681526020019081526020015f2033908060018154018082558091505060019003905f5260205f20015f9091909190916101000a81548173ffffffffffffffffffffffffffffffffffffffff021916908373ffffffffffffffffffffffffffffffffffffffff1602179055503373ffffffffffffffffffffffffffffffffffffffff168373ffffffffffffffffffffffffffffffffffffffff167ff0952b1c65271d819d39983d2abb044b9cace59bcc4d4dd389f586ebdcb15b41600160405161032f9190610b97565b60405180910390a3505050565b5f92915050565b5f8060025f8473ffffffffffffffffffffffffffffffffffffffff1673ffffffffffffffffffffffffffffffffffffffff1681526020019081526020015f208054806020026020016040519081016040528092919081815260200182805480156103ff57602002820191905f5260205f20905b815f9054906101000a900473ffffffffffffffffffffffffffffffffffffffff1673ffffffffffffffffffffffffffffffffffffffff16815260200190600101908083116103b6575b505050505090505f5b8151811015610476578473ffffffffffffffffffffffffffffffffffffffff1682828151811061043b5761043a610bb0565b5b602002602001015173ffffffffffffffffffffffffffffffffffffffff16036104695760019250505061047c565b8080600101915050610408565b505f9150505b92915050565b6002602052815f5260405f20818154811061049b575f80fd5b905f5260205f20015f915091509054906101000a900473ffffffffffffffffffffffffffffffffffffffff1681565b5f8484848446306040516020016104e696959493929190610c62565b604051602081830303815290604052805190602001209050949350505050565b5f805f8373ffffffffffffffffffffffffffffffffffffffff1673ffffffffffffffffffffffffffffffffffffffff1681526020019081526020015f205f6101000a81548160ff0219169083151502179055505f60025f8373ffffffffffffffffffffffffffffffffffffffff1673ffffffffffffffffffffffffffffffffffffffff1681526020019081526020015f2090505f5b818054905081101561070c573373ffffffffffffffffffffffffffffffffffffffff168282815481106105d1576105d0610bb0565b5b905f5260205f20015f9054906101000a900473ffffffffffffffffffffffffffffffffffffffff1673ffffffffffffffffffffffffffffffffffffffff16036106ff5781600183805490506106269190610cfe565b8154811061063757610636610bb0565b5b905f5260205f20015f9054906101000a900473ffffffffffffffffffffffffffffffffffffffff1682828154811061067257610671610bb0565b5b905f5260205f20015f6101000a81548173ffffffffffffffffffffffffffffffffffffffff021916908373ffffffffffffffffffffffffffffffffffffffff160217905550818054806106c8576106c7610d31565b5b600190038181905f5260205f20015f6101000a81549073ffffffffffffffffffffffffffffffffffffffff0219169055905561070c565b808060010191505061059b565b503373ffffffffffffffffffffffffffffffffffffffff168273ffffffffffffffffffffffffffffffffffffffff167ff0952b1c65271d819d39983d2abb044b9cace59bcc4d4dd389f586ebdcb15b415f60405161076a9190610d97565b60405180910390a35050565b6001602052805f5260405f205f915090505481565b5f602052805f5260405f205f915054906101000a900460ff1681565b5f80fd5b5f80fd5b5f73ffffffffffffffffffffffffffffffffffffffff82169050919050565b5f6107d8826107af565b9050919050565b6107e8816107ce565b81146107f2575f80fd5b50565b5f81359050610803816107df565b92915050565b5f80fd5b5f80fd5b5f80fd5b5f8083601f84011261082a57610829610809565b5b8235905067ffffffffffffffff8111156108475761084661080d565b5b60208301915083600182028301111561086357610862610811565b5b9250929050565b5f805f60408486031215610881576108806107a7565b5b5f61088e868287016107f5565b935050602084013567ffffffffffffffff8111156108af576108ae6107ab565b5b6108bb86828701610815565b92509250509250925092565b5f819050919050565b6108d9816108c7565b81146108e3575f80fd5b50565b5f813590506108f4816108d0565b92915050565b5f80604083850312156109105761090f6107a7565b5b5f61091d858286016107f5565b925050602061092e858286016108e6565b9150509250929050565b5f8115159050919050565b61094c81610938565b82525050565b5f6020820190506109655f830184610943565b92915050565b5f8060408385031215610981576109806107a7565b5b5f61098e858286016107f5565b925050602061099f858286016107f5565b9150509250929050565b5f60ff82169050919050565b6109be816109a9565b82525050565b5f6020820190506109d75f8301846109b5565b92915050565b5f819050919050565b6109ef816109dd565b81146109f9575f80fd5b50565b5f81359050610a0a816109e6565b92915050565b5f8060408385031215610a2657610a256107a7565b5b5f610a33858286016107f5565b9250506020610a44858286016109fc565b9150509250929050565b610a57816107ce565b82525050565b5f602082019050610a705f830184610a4e565b92915050565b5f805f8060808587031215610a8e57610a8d6107a7565b5b5f610a9b878288016107f5565b9450506020610aac878288016107f5565b9350506040610abd878288016108e6565b9250506060610ace878288016109fc565b91505092959194509250565b610ae3816108c7565b82525050565b5f602082019050610afc5f830184610ada565b92915050565b5f60208284031215610b1757610b166107a7565b5b5f610b24848285016107f5565b91505092915050565b610b36816109dd565b82525050565b5f602082019050610b4f5f830184610b2d565b92915050565b5f819050919050565b5f819050919050565b5f610b81610b7c610b7784610b55565b610b5e565b6109a9565b9050919050565b610b9181610b67565b82525050565b5f602082019050610baa5f830184610b88565b92915050565b7f4e487b71000000000000000000000000000000000000000000000000000000005f52603260045260245ffd5b5f8160601b9050919050565b5f610bf382610bdd565b9050919050565b5f610c0482610be9565b9050919050565b610c1c610c17826107ce565b610bfa565b82525050565b5f819050919050565b610c3c610c37826108c7565b610c22565b82525050565b5f819050919050565b610c5c610c57826109dd565b610c42565b82525050565b5f610c6d8289610c0b565b601482019150610c7d8288610c0b565b601482019150610c8d8287610c2b565b602082019150610c9d8286610c4b565b602082019150610cad8285610c4b565b602082019150610cbd8284610c0b565b601482019150819050979650505050505050565b7f4e487b71000000000000000000000000000000000000000000000000000000005f52601160045260245ffd5b5f610d08826109dd565b9150610d13836109dd565b9250828203905081811115610d2b57610d2a610cd1565b5b92915050565b7f4e487b71000000000000000000000000000000000000000000000000000000005f52603160045260245ffd5b5f819050919050565b5f610d81610d7c610d7784610d5e565b610b5e565b6109a9565b9050919050565b610d9181610d67565b82525050565b5f602082019050610daa5f830184610d88565b9291505056fea26469706673582212203db8438d118fd22f9b816e918a78e97577d6062013c59cdf3cc93178eaa0d3f064736f6c634300081a0033","linkReferences":{}},"methodIdentifiers":{"avsOperatorStatus(address,address)":"49075da3","calculateOperatorAVSRegistrationDigestHash(address,address,bytes32,uint256)":"a1060c88","deregisterOperatorFromAVS(address)":"a364f4da","operatorAVSs(address,uint256)":"855b7417","operatorRegistered(address)":"ec7fbb31","operatorSaltIsSpent(address,bytes32)":"374823b5","operatorStake(address)":"b39bcf3f","registerOperatorToAVS(address,bytes)":"023c8f8d"},"id":16}