{"abi":[{"type":"function","name":"DYNAMIC_FEE_FLAG","inputs":[],"outputs":[{"name":"","type":"uint24","internalType":"uint24"}],"stateMutability":"view"},{"type":"function","name":"MAX_LP_FEE","inputs":[],"outputs":[{"name":"","type":"uint24","internalType":"uint24"}],"stateMutability":"view"},{"type":"function","name":"OVERRIDE_FEE_FLAG","inputs":[],"outputs":[{"name":"","type":"uint24","internalType":"uint24"}],"stateMutability":"view"},{"type":"function","name":"REMOVE_OVERRIDE_MASK","inputs":[],"outputs":[{"name":"","type":"uint24","internalType":"uint24"}],"stateMutability":"view"},{"type":"error","name":"LPFeeTooLarge","inputs":[{"name":"fee","type":"uint24","internalType":"uint24"}]}],"bytecode":{"object":"0x61015961004d600b8282823980515f1a6073146041577f4e487b71000000000000000000000000000000000000000000000000000000005f525f60045260245ffd5b305f52607381538281f3fe7300000000000000000000000000000000000000003014608060405260043610610055575f3560e01c80633b01d64d146100595780633fc48eba146100775780636f95ebcf14610095578063f26ef49d146100b3575b5f80fd5b6100616100d1565b60405161006e919061010a565b60405180910390f35b61007f6100d8565b60405161008c919061010a565b60405180910390f35b61009d6100df565b6040516100aa919061010a565b60405180910390f35b6100bb6100e6565b6040516100c8919061010a565b60405180910390f35b6240000081565b620f424081565b62bfffff81565b6280000081565b5f62ffffff82169050919050565b610104816100ed565b82525050565b5f60208201905061011d5f8301846100fb565b9291505056fea26469706673582212209fc24976c96dd99eac63df3c9d9ea9a945797510e7c836a0c3bc20d7149f75e664736f6c634300081a0033","linkReferences":{}},"methodIdentifiers":{"DYNAMIC_FEE_FLAG()":"f26ef49d","MAX_LP_FEE()":"3fc48eba","OVERRIDE_FEE_FLAG()":"3b01d64d","REMOVE_OVERRIDE_MASK()":"6f95ebcf"},"id":65}