{"abi":[{"type":"constructor","inputs":[{"name":"_poolManager","type":"address","internalType":"contract IPoolManager"},{"name":"_serviceManager","type":"address","internalType":"address"},{"name":"_orderVault","type":"address","internalType":"contract IOrderVault"}],"stateMutability":"nonpayable"},{"type":"function","name":"afterAddLiquidity","inputs":[{"name":"","type":"address","internalType":"address"},{"name":"","type":"tuple","internalType":"struct PoolKey","components":[{"name":"currency0","type":"address","internalType":"Currency"},{"name":"currency1","type":"address","internalType":"Currency"},{"name":"fee","type":"uint24","internalType":"uint24"},{"name":"tickSpacing","type":"int24","internalType":"int24"},{"name":"hooks","type":"address","internalType":"contract IHooks"}]},{"name":"","type":"tuple","internalType":"struct IPoolManager.ModifyLiquidityParams","components":[{"name":"tickLower","type":"int24","internalType":"int24"},{"name":"tickUpper","type":"int24","internalType":"int24"},{"name":"liquidityDelta","type":"int256","internalType":"int256"},{"name":"salt","type":"bytes32","internalType":"bytes32"}]},{"name":"","type":"int256","internalType":"BalanceDelta"},{"name":"","type":"int256","internalType":"BalanceDelta"},{"name":"","type":"bytes","internalType":"bytes"}],"outputs":[{"name":"","type":"bytes4","internalType":"bytes4"},{"name":"","type":"int256","internalType":"BalanceDelta"}],"stateMutability":"pure"},{"type":"function","name":"afterDonate","inputs":[{"name":"","type":"address","internalType":"address"},{"name":"","type":"tuple","internalType":"struct PoolKey","components":[{"name":"currency0","type":"address","internalType":"Currency"},{"name":"currency1","type":"address","internalType":"Currency"},{"name":"fee","type":"uint24","internalType":"uint24"},{"name":"tickSpacing","type":"int24","internalType":"int24"},{"name":"hooks","type":"address","internalType":"contract IHooks"}]},{"name":"","type":"uint256","internalType":"uint256"},{"name":"","type":"uint256","internalType":"uint256"},{"name":"","type":"bytes","internalType":"bytes"}],"outputs":[{"name":"","type":"bytes4","internalType":"bytes4"}],"stateMutability":"pure"},{"type":"function","name":"afterInitialize","inputs":[{"name":"","type":"address","internalType":"address"},{"name":"","type":"tuple","internalType":"struct PoolKey","components":[{"name":"currency0","type":"address","internalType":"Currency"},{"name":"currency1","type":"address","internalType":"Currency"},{"name":"fee","type":"uint24","internalType":"uint24"},{"name":"tickSpacing","type":"int24","internalType":"int24"},{"name":"hooks","type":"address","internalType":"contract IHooks"}]},{"name":"","type":"uint160","internalType":"uint160"},{"name":"","type":"int24","internalType":"int24"}],"outputs":[{"name":"","type":"bytes4","internalType":"bytes4"}],"stateMutability":"pure"},{"type":"function","name":"afterRemoveLiquidity","inputs":[{"name":"","type":"address","internalType":"address"},{"name":"","type":"tuple","internalType":"struct PoolKey","components":[{"name":"currency0","type":"address","internalType":"Currency"},{"name":"currency1","type":"address","internalType":"Currency"},{"name":"fee","type":"uint24","internalType":"uint24"},{"name":"tickSpacing","type":"int24","internalType":"int24"},{"name":"hooks","type":"address","internalType":"contract IHooks"}]},{"name":"","type":"tuple","internalType":"struct IPoolManager.ModifyLiquidityParams","components":[{"name":"tickLower","type":"int24","internalType":"int24"},{"name":"tickUpper","type":"int24","internalType":"int24"},{"name":"liquidityDelta","type":"int256","internalType":"int256"},{"name":"salt","type":"bytes32","internalType":"bytes32"}]},{"name":"","type":"int256","internalType":"BalanceDelta"},{"name":"","type":"int256","internalType":"BalanceDelta"},{"name":"","type":"bytes","internalType":"bytes"}],"outputs":[{"name":"","type":"bytes4","internalType":"bytes4"},{"name":"","type":"int256","internalType":"BalanceDelta"}],"stateMutability":"pure"},{"type":"function","name":"afterSwap","inputs":[{"name":"","type":"address","internalType":"address"},{"name":"","type":"tuple","internalType":"struct PoolKey","components":[{"name":"currency0","type":"address","internalType":"Currency"},{"name":"currency1","type":"address","internalType":"Currency"},{"name":"fee","type":"uint24","internalType":"uint24"},{"name":"tickSpacing","type":"int24","internalType":"int24"},{"name":"hooks","type":"address","internalType":"contract IHooks"}]},{"name":"","type":"tuple","internalType":"struct IPoolManager.SwapParams","components":[{"name":"zeroForOne","type":"bool","internalType":"bool"},{"name":"amountSpecified","type":"int256","internalType":"int256"},{"name":"sqrtPriceLimitX96","type":"uint160","internalType":"uint160"}]},{"name":"","type":"int256","internalType":"BalanceDelta"},{"name":"","type":"bytes","internalType":"bytes"}],"outputs":[{"name":"","type":"bytes4","internalType":"bytes4"},{"name":"","type":"int128","internalType":"int128"}],"stateMutability":"pure"},{"type":"function","name":"beforeAddLiquidity","inputs":[{"name":"","type":"address","internalType":"address"},{"name":"","type":"tuple","internalType":"struct PoolKey","components":[{"name":"currency0","type":"address","internalType":"Currency"},{"name":"currency1","type":"address","internalType":"Currency"},{"name":"fee","type":"uint24","internalType":"uint24"},{"name":"tickSpacing","type":"int24","internalType":"int24"},{"name":"hooks","type":"address","internalType":"contract IHooks"}]},{"name":"","type":"tuple","internalType":"struct IPoolManager.ModifyLiquidityParams","components":[{"name":"tickLower","type":"int24","internalType":"int24"},{"name":"tickUpper","type":"int24","internalType":"int24"},{"name":"liquidityDelta","type":"int256","internalType":"int256"},{"name":"salt","type":"bytes32","internalType":"bytes32"}]},{"name":"","type":"bytes","internalType":"bytes"}],"outputs":[{"name":"","type":"bytes4","internalType":"bytes4"}],"stateMutability":"pure"},{"type":"function","name":"beforeDonate","inputs":[{"name":"","type":"address","internalType":"address"},{"name":"","type":"tuple","internalType":"struct PoolKey","components":[{"name":"currency0","type":"address","internalType":"Currency"},{"name":"currency1","type":"address","internalType":"Currency"},{"name":"fee","type":"uint24","internalType":"uint24"},{"name":"tickSpacing","type":"int24","internalType":"int24"},{"name":"hooks","type":"address","internalType":"contract IHooks"}]},{"name":"","type":"uint256","internalType":"uint256"},{"name":"","type":"uint256","internalType":"uint256"},{"name":"","type":"bytes","internalType":"bytes"}],"outputs":[{"name":"","type":"bytes4","internalType":"bytes4"}],"stateMutability":"pure"},{"type":"function","name":"beforeInitialize","inputs":[{"name":"","type":"address","internalType":"address"},{"name":"","type":"tuple","internalType":"struct PoolKey","components":[{"name":"currency0","type":"address","internalType":"Currency"},{"name":"currency1","type":"address","internalType":"Currency"},{"name":"fee","type":"uint24","internalType":"uint24"},{"name":"tickSpacing","type":"int24","internalType":"int24"},{"name":"hooks","type":"address","internalType":"contract IHooks"}]},{"name":"","type":"uint160","internalType":"uint160"}],"outputs":[{"name":"","type":"bytes4","internalType":"bytes4"}],"stateMutability":"pure"},{"type":"function","name":"beforeRemoveLiquidity","inputs":[{"name":"","type":"address","internalType":"address"},{"name":"","type":"tuple","internalType":"struct PoolKey","components":[{"name":"currency0","type":"address","internalType":"Currency"},{"name":"currency1","type":"address","internalType":"Currency"},{"name":"fee","type":"uint24","internalType":"uint24"},{"name":"tickSpacing","type":"int24","internalType":"int24"},{"name":"hooks","type":"address","internalType":"contract IHooks"}]},{"name":"","type":"tuple","internalType":"struct IPoolManager.ModifyLiquidityParams","components":[{"name":"tickLower","type":"int24","internalType":"int24"},{"name":"tickUpper","type":"int24","internalType":"int24"},{"name":"liquidityDelta","type":"int256","internalType":"int256"},{"name":"salt","type":"bytes32","internalType":"bytes32"}]},{"name":"","type":"bytes","internalType":"bytes"}],"outputs":[{"name":"","type":"bytes4","internalType":"bytes4"}],"stateMutability":"pure"},{"type":"function","name":"beforeSwap","inputs":[{"name":"sender","type":"address","internalType":"address"},{"name":"key","type":"tuple","internalType":"struct PoolKey","components":[{"name":"currency0","type":"address","internalType":"Currency"},{"name":"currency1","type":"address","internalType":"Currency"},{"name":"fee","type":"uint24","internalType":"uint24"},{"name":"tickSpacing","type":"int24","internalType":"int24"},{"name":"hooks","type":"address","internalType":"contract IHooks"}]},{"name":"params","type":"tuple","internalType":"struct IPoolManager.SwapParams","components":[{"name":"zeroForOne","type":"bool","internalType":"bool"},{"name":"amountSpecified","type":"int256","internalType":"int256"},{"name":"sqrtPriceLimitX96","type":"uint160","internalType":"uint160"}]},{"name":"hookData","type":"bytes","internalType":"bytes"}],"outputs":[{"name":"","type":"bytes4","internalType":"bytes4"},{"name":"","type":"int256","internalType":"BeforeSwapDelta"},{"name":"","type":"uint24","internalType":"uint24"}],"stateMutability":"nonpayable"},{"type":"function","name":"executeVaultOrder","inputs":[{"name":"orderId","type":"bytes32","internalType":"bytes32"},{"name":"proof","type":"bytes","internalType":"bytes"},{"name":"signatures","type":"bytes","internalType":"bytes"}],"outputs":[],"stateMutability":"nonpayable"},{"type":"function","name":"fallbackToAMM","inputs":[{"name":"orderId","type":"bytes32","internalType":"bytes32"}],"outputs":[],"stateMutability":"nonpayable"},{"type":"function","name":"getOrder","inputs":[{"name":"orderId","type":"bytes32","internalType":"bytes32"}],"outputs":[{"name":"order","type":"tuple","internalType":"struct IEigenVaultHook.PrivateOrder","components":[{"name":"trader","type":"address","internalType":"address"},{"name":"poolKey","type":"tuple","internalType":"struct PoolKey","components":[{"name":"currency0","type":"address","internalType":"Currency"},{"name":"currency1","type":"address","internalType":"Currency"},{"name":"fee","type":"uint24","internalType":"uint24"},{"name":"tickSpacing","type":"int24","internalType":"int24"},{"name":"hooks","type":"address","internalType":"contract IHooks"}]},{"name":"zeroForOne","type":"bool","internalType":"bool"},{"name":"amountSpecified","type":"int256","internalType":"int256"},{"name":"commitment","type":"bytes32","internalType":"bytes32"},{"name":"deadline","type":"uint256","internalType":"uint256"},{"name":"timestamp","type":"uint256","internalType":"uint256"},{"name":"executed","type":"bool","internalType":"bool"}]}],"stateMutability":"view"},{"type":"function","name":"getVaultThreshold","inputs":[{"name":"key","type":"tuple","internalType":"struct PoolKey","components":[{"name":"currency0","type":"address","internalType":"Currency"},{"name":"currency1","type":"address","internalType":"Currency"},{"name":"fee","type":"uint24","internalType":"uint24"},{"name":"tickSpacing","type":"int24","internalType":"int24"},{"name":"hooks","type":"address","internalType":"contract IHooks"}]}],"outputs":[{"name":"threshold","type":"uint256","internalType":"uint256"}],"stateMutability":"view"},{"type":"function","name":"isLargeOrder","inputs":[{"name":"amountSpecified","type":"int256","internalType":"int256"},{"name":"key","type":"tuple","internalType":"struct PoolKey","components":[{"name":"currency0","type":"address","internalType":"Currency"},{"name":"currency1","type":"address","internalType":"Currency"},{"name":"fee","type":"uint24","internalType":"uint24"},{"name":"tickSpacing","type":"int24","internalType":"int24"},{"name":"hooks","type":"address","internalType":"contract IHooks"}]}],"outputs":[{"name":"","type":"bool","internalType":"bool"}],"stateMutability":"view"},{"type":"function","name":"orderNonce","inputs":[],"outputs":[{"name":"","type":"uint256","internalType":"uint256"}],"stateMutability":"view"},{"type":"function","name":"orderVault","inputs":[],"outputs":[{"name":"","type":"address","internalType":"contract IOrderVault"}],"stateMutability":"view"},{"type":"function","name":"orders","inputs":[{"name":"","type":"bytes32","internalType":"bytes32"}],"outputs":[{"name":"trader","type":"address","internalType":"address"},{"name":"poolKey","type":"tuple","internalType":"struct PoolKey","components":[{"name":"currency0","type":"address","internalType":"Currency"},{"name":"currency1","type":"address","internalType":"Currency"},{"name":"fee","type":"uint24","internalType":"uint24"},{"name":"tickSpacing","type":"int24","internalType":"int24"},{"name":"hooks","type":"address","internalType":"contract IHooks"}]},{"name":"zeroForOne","type":"bool","internalType":"bool"},{"name":"amountSpecified","type":"int256","internalType":"int256"},{"name":"commitment","type":"bytes32","internalType":"bytes32"},{"name":"deadline","type":"uint256","internalType":"uint256"},{"name":"timestamp","type":"uint256","internalType":"uint256"},{"name":"executed","type":"bool","internalType":"bool"}],"stateMutability":"view"},{"type":"function","name":"owner","inputs":[],"outputs":[{"name":"","type":"address","internalType":"address"}],"stateMutability":"view"},{"type":"function","name":"poolManager","inputs":[],"outputs":[{"name":"","type":"address","internalType":"contract IPoolManager"}],"stateMutability":"view"},{"type":"function","name":"poolThresholds","inputs":[{"name":"","type":"bytes32","internalType":"bytes32"}],"outputs":[{"name":"","type":"uint256","internalType":"uint256"}],"stateMutability":"view"},{"type":"function","name":"routeToVault","inputs":[{"name":"trader","type":"address","internalType":"address"},{"name":"key","type":"tuple","internalType":"struct PoolKey","components":[{"name":"currency0","type":"address","internalType":"Currency"},{"name":"currency1","type":"address","internalType":"Currency"},{"name":"fee","type":"uint24","internalType":"uint24"},{"name":"tickSpacing","type":"int24","internalType":"int24"},{"name":"hooks","type":"address","internalType":"contract IHooks"}]},{"name":"params","type":"tuple","internalType":"struct IPoolManager.SwapParams","components":[{"name":"zeroForOne","type":"bool","internalType":"bool"},{"name":"amountSpecified","type":"int256","internalType":"int256"},{"name":"sqrtPriceLimitX96","type":"uint160","internalType":"uint160"}]},{"name":"hookData","type":"bytes","internalType":"bytes"}],"outputs":[{"name":"orderId","type":"bytes32","internalType":"bytes32"}],"stateMutability":"nonpayable"},{"type":"function","name":"serviceManager","inputs":[],"outputs":[{"name":"","type":"address","internalType":"address"}],"stateMutability":"view"},{"type":"function","name":"setPoolThreshold","inputs":[{"name":"key","type":"tuple","internalType":"struct PoolKey","components":[{"name":"currency0","type":"address","internalType":"Currency"},{"name":"currency1","type":"address","internalType":"Currency"},{"name":"fee","type":"uint24","internalType":"uint24"},{"name":"tickSpacing","type":"int24","internalType":"int24"},{"name":"hooks","type":"address","internalType":"contract IHooks"}]},{"name":"threshold","type":"uint256","internalType":"uint256"}],"outputs":[],"stateMutability":"nonpayable"},{"type":"function","name":"transferOwnership","inputs":[{"name":"newOwner","type":"address","internalType":"address"}],"outputs":[],"stateMutability":"nonpayable"},{"type":"function","name":"updateVaultThreshold","inputs":[{"name":"newThreshold","type":"uint256","internalType":"uint256"}],"outputs":[],"stateMutability":"nonpayable"},{"type":"function","name":"usedCommitments","inputs":[{"name":"","type":"bytes32","internalType":"bytes32"}],"outputs":[{"name":"","type":"bool","internalType":"bool"}],"stateMutability":"view"},{"type":"function","name":"vaultThresholdBps","inputs":[],"outputs":[{"name":"","type":"uint256","internalType":"uint256"}],"stateMutability":"view"},{"type":"event","name":"OrderFallbackToAMM","inputs":[{"name":"orderId","type":"bytes32","indexed":true,"internalType":"bytes32"},{"name":"trader","type":"address","indexed":true,"internalType":"address"},{"name":"reason","type":"string","indexed":false,"internalType":"string"}],"anonymous":false},{"type":"event","name":"OrderRoutedToVault","inputs":[{"name":"trader","type":"address","indexed":true,"internalType":"address"},{"name":"orderId","type":"bytes32","indexed":true,"internalType":"bytes32"},{"name":"poolKey","type":"tuple","indexed":true,"internalType":"struct PoolKey","components":[{"name":"currency0","type":"address","internalType":"Currency"},{"name":"currency1","type":"address","internalType":"Currency"},{"name":"fee","type":"uint24","internalType":"uint24"},{"name":"tickSpacing","type":"int24","internalType":"int24"},{"name":"hooks","type":"address","internalType":"contract IHooks"}]},{"name":"zeroForOne","type":"bool","indexed":false,"internalType":"bool"},{"name":"amountSpecified","type":"uint256","indexed":false,"internalType":"uint256"},{"name":"commitment","type":"bytes32","indexed":false,"internalType":"bytes32"}],"anonymous":false},{"type":"event","name":"VaultOrderExecuted","inputs":[{"name":"orderId","type":"bytes32","indexed":true,"internalType":"bytes32"},{"name":"trader","type":"address","indexed":true,"internalType":"address"},{"name":"amountIn","type":"uint256","indexed":false,"internalType":"uint256"},{"name":"amountOut","type":"uint256","indexed":false,"internalType":"uint256"},{"name":"proofHash","type":"bytes32","indexed":false,"internalType":"bytes32"}],"anonymous":false},{"type":"event","name":"VaultThresholdUpdated","inputs":[{"name":"oldThreshold","type":"uint256","indexed":false,"internalType":"uint256"},{"name":"newThreshold","type":"uint256","indexed":false,"internalType":"uint256"}],"anonymous":false}],"bytecode":{"object":"0x60e060405260645f55348015610013575f80fd5b50604051612079380380612079833981016040819052610032916100d8565b6001600160a01b0380841660805282811660a052811660c052600580546001600160a01b03191633179055608860ff60981b301681146100b85760405162461bcd60e51b815260206004820152601460248201527f496e76616c696420686f6f6b2061646472657373000000000000000000000000604482015260640160405180910390fd5b50505050610122565b6001600160a01b03811681146100d5575f80fd5b50565b5f805f606084860312156100ea575f80fd5b83516100f5816100c1565b6020850151909350610106816100c1565b6040850151909250610117816100c1565b809150509250925092565b60805160a05160c051611f186101615f395f818161038f0152610b8901525f81816102460152610c7c01525f81816104dd0152610ec30152611f185ff3fe608060405234801561000f575f80fd5b50600436106101ba575f3560e01c806391402039116100f3578063cd9a56e811610093578063e1b4af691161006e578063e1b4af69146104ab578063f2fde38b1461050d578063f3539e8a14610520578063f57f9a7d14610533575f80fd5b8063cd9a56e8146104b9578063dc4c90d3146104d8578063dc98354e146104ff575f80fd5b80639f063efc116100ce5780639f063efc146102f15780639f66017514610472578063b47b2fb11461047a578063b6a8b0fa146104ab575f80fd5b8063914020391461035857806393845e461461038a5780639c3f1e90146103b1575f80fd5b80635004194e1161015e5780636c2bbe7e116101395780636c2bbe7e146102f15780636fe7e6eb146103245780638da5cb5b146103325780638f9316a514610345575f80fd5b80635004194e14610280578063575e24b4146102935780635778472a146102d1575f80fd5b806321d0ee701161019957806321d0ee7014610202578063259982e51461020257806328cd016b1461022e5780633998fdd314610241575f80fd5b8062e4fe01146101be57806302d9c708146101d357806316f8de89146101e6575b5f80fd5b6101d16101cc3660046113ff565b610546565b005b6101d16101e13660046113ff565b61070e565b6101ef60045481565b6040519081526020015b60405180910390f35b610215610210366004611492565b6107f5565b6040516001600160e01b031990911681526020016101f9565b6101ef61023c366004611519565b61083f565b6102687f000000000000000000000000000000000000000000000000000000000000000081565b6040516001600160a01b0390911681526020016101f9565b6101d161028e366004611573565b610c71565b6102a66102a1366004611519565b610eb5565b604080516001600160e01b03199094168452602084019290925262ffffff16908201526060016101f9565b6102e46102df3660046113ff565b610f84565b6040516101f991906115cf565b6103046102ff366004611695565b6110c2565b604080516001600160e01b031990931683526020830191909152016101f9565b610215610210366004611736565b600554610268906001600160a01b031681565b6101ef61035336600461178d565b61110e565b61037a6103663660046113ff565b60036020525f908152604090205460ff1681565b60405190151581526020016101f9565b6102687f000000000000000000000000000000000000000000000000000000000000000081565b61045e6103bf3660046113ff565b600160208181525f9283526040928390208054845160a081018652938201546001600160a01b0390811685526002808401548083169587019590955262ffffff600160a01b86041696860196909652600160b81b90930490940b606084015260038101548216608084015260048101546005820154600683015460078401546008850154600990950154959097169660ff938416959294919390921688565b6040516101f99897969594939291906117a7565b6101ef5f5481565b6104886102ff36600461184a565b604080516001600160e01b03199093168352600f9190910b6020830152016101f9565b6102156102103660046118cb565b6101ef6104c73660046113ff565b60026020525f908152604090205481565b6102687f000000000000000000000000000000000000000000000000000000000000000081565b610215610210366004611925565b6101d161051b36600461196c565b61115c565b61037a61052e366004611987565b611227565b6101d16105413660046119b2565b6112ae565b5f81815260016020526040902080546001600160a01b03166105a15760405162461bcd60e51b815260206004820152600f60248201526e13dc99195c881b9bdd08199bdd5b99608a1b60448201526064015b60405180910390fd5b600981015460ff16156105f65760405162461bcd60e51b815260206004820152601660248201527f4f7264657220616c7265616479206578656375746564000000000000000000006044820152606401610598565b8060070154421180610611575080546001600160a01b031633145b61065d5760405162461bcd60e51b815260206004820152601360248201527f43616e6e6f742066616c6c6261636b20796574000000000000000000000000006044820152606401610598565b60098101805460ff1916600117905580546040516001600160a01b039091169083907faf3e26e641eb50ac4b7b95141c3a0592d0d8c104214a1309c355ed68836b4e31906107029060208082526025908201527f446561646c696e65206578636565646564206f7220747261646572207265717560408201527f6573746564000000000000000000000000000000000000000000000000000000606082015260800190565b60405180910390a35050565b6005546001600160a01b031633146107545760405162461bcd60e51b81526020600482015260096024820152682737ba1037bbb732b960b91b6044820152606401610598565b5f8111801561076557506103e88111155b6107b15760405162461bcd60e51b815260206004820152601160248201527f496e76616c6964207468726573686f6c640000000000000000000000000000006044820152606401610598565b5f80549082905560408051828152602081018490527f5c09043b34023bb9c9c41465d990a9d64199df3969bf28f4b23c1a3e5f3ff886910160405180910390a15050565b60405162461bcd60e51b815260206004820152601460248201527f486f6f6b206e6f7420696d706c656d656e74656400000000000000000000000060448201525f90606401610598565b5f6001600160a01b0386166108965760405162461bcd60e51b815260206004820152600e60248201527f496e76616c6964207472616465720000000000000000000000000000000000006044820152606401610598565b5f80806108a585870187611a20565b919450925090506108b84261012c611ada565b821180156108d257506108ce4262015180611ada565b8211155b61091e5760405162461bcd60e51b815260206004820152601060248201527f496e76616c696420646561646c696e65000000000000000000000000000000006044820152606401610598565b5f8381526003602052604090205460ff161561097c5760405162461bcd60e51b815260206004820152601760248201527f436f6d6d69746d656e7420616c726561647920757365640000000000000000006044820152606401610598565b5f838152600360205260409020805460ff191660011790556109ce896109a7368b90038b018b611aff565b6109b6368b90038b018b611ba2565b60045f81546109c490611c09565b9182905550611383565b93505f6040518061010001604052808b6001600160a01b031681526020018a8036038101906109fd9190611aff565b8152602090810190610a11908b018b611c21565b1515815260208a8101358183015260408083018890526060808401889052426080808601919091525f60a09586018190528b81526001808652908490208751815473ffffffffffffffffffffffffffffffffffffffff199081166001600160a01b0392831617835589880151805194840180548316958416959095179094559683015160028301805485890151868901519385167fffffffffffffffffff000000000000000000000000000000000000000000000090921691909117600160a01b62ffffff92831602177fffffffffffff000000ffffffffffffffffffffffffffffffffffffffffffffff16600160b81b91909316029190911790559183015160038201805490971690831617909555868401516004808701805460ff1990811693151593909317905593880151600587015591870151600686015594860151600785015560c0860151600885015560e0860151600990940180549091169315159390931790925551631cd8551f60e31b81529293507f00000000000000000000000000000000000000000000000000000000000000009091169163e6c2a8f891610bc49189918f9188918a9101611c3a565b5f604051808303815f87803b158015610bdb575f80fd5b505af1158015610bed573d5f803e3d5ffd5b5050505088604051610bff9190611c8d565b604051908190039020856001600160a01b038c167f7a58014263307c9f8bbcf46b5f9c4fa91cbb8f9abbf080a1b94d0864427b4bfa610c4160208d018d611c21565b6040805191151582526020808f013590830152810189905260600160405180910390a45050505095945050505050565b336001600160a01b037f00000000000000000000000000000000000000000000000000000000000000001614610ce95760405162461bcd60e51b815260206004820152601360248201527f4e6f742073657276696365206d616e61676572000000000000000000000000006044820152606401610598565b5f85815260016020526040902080546001600160a01b0316610d3f5760405162461bcd60e51b815260206004820152600f60248201526e13dc99195c881b9bdd08199bdd5b99608a1b6044820152606401610598565b600981015460ff1615610d945760405162461bcd60e51b815260206004820152601660248201527f4f7264657220616c7265616479206578656375746564000000000000000000006044820152606401610598565b8060070154421115610de85760405162461bcd60e51b815260206004820152600d60248201527f4f726465722065787069726564000000000000000000000000000000000000006044820152606401610598565b60098101805460ff1916600117905560058101545f908112610e17578160050154610e1290611d1b565b610e1d565b81600501545b90505f6064610e2d836063611d35565b610e379190611d4c565b83546040519192506001600160a01b03169089907ff65ab2e2fde11ff86822c29f476e8ccf4c230c011ef6f5ba62b96db8607d0cb99085908590610e7e908d908d90611d6b565b604051908190038120610ea39392919283526020830191909152604082015260600190565b60405180910390a35050505050505050565b5f8080336001600160a01b037f00000000000000000000000000000000000000000000000000000000000000001614610f305760405162461bcd60e51b815260206004820152601060248201527f4e6f7420706f6f6c206d616e61676572000000000000000000000000000000006044820152606401610598565b610f3e866020013588611227565b15610f69575f610f51898989898961083f565b506315d7892d60e21b93505f9250829150610f799050565b506315d7892d60e21b91505f9050805b955095509592505050565b610ff260408051610100810182525f808252825160a0810184528181526020818101839052938101829052606081018290526080810191909152909182019081525f6020820181905260408201819052606082018190526080820181905260a0820181905260c09091015290565b505f9081526001602081815260409283902083516101008101855281546001600160a01b039081168252855160a0808201885295840154821681526002808501548084168388015262ffffff600160a01b820416838a0152600160b81b9004900b606080830191909152600385015490921660808083019190915294830152600483015460ff908116151596830196909652600583015490820152600682015492810192909252600781015492820192909252600882015460c0820152600990910154909116151560e082015290565b60405162461bcd60e51b815260206004820152601460248201527f486f6f6b206e6f7420696d706c656d656e74656400000000000000000000000060448201525f908190606401610598565b5f80826040516020016111219190611d7a565b60408051601f1981840301815291815281516020928301205f81815260029093529082205493509150829003611156575f5491505b50919050565b6005546001600160a01b031633146111a25760405162461bcd60e51b81526020600482015260096024820152682737ba1037bbb732b960b91b6044820152606401610598565b6001600160a01b0381166111f85760405162461bcd60e51b815260206004820152600f60248201527f496e76616c6964206164647265737300000000000000000000000000000000006044820152606401610598565b6005805473ffffffffffffffffffffffffffffffffffffffff19166001600160a01b0392909216919091179055565b5f805f8412611236578361123f565b61123f84611d1b565b90505f836040516020016112539190611d7a565b60408051601f1981840301815291815281516020928301205f8181526002909352908220549092509081900361128757505f545b69d3c21bcecceda10000005f61129d82846113e0565b909410159450505050505b92915050565b6005546001600160a01b031633146112f45760405162461bcd60e51b81526020600482015260096024820152682737ba1037bbb732b960b91b6044820152606401610598565b6103e88111156113465760405162461bcd60e51b815260206004820152601160248201527f496e76616c6964207468726573686f6c640000000000000000000000000000006044820152606401610598565b5f826040516020016113589190611d7a565b60408051601f1981840301815291815281516020928301205f90815260029092529020919091555050565b8251602080850151604080870151606088015160808901518851898701518a86015195515f996113c0998f999198919796959493928d9101611dfe565b604051602081830303815290604052805190602001209050949350505050565b5f6127106113ee8385611d35565b6113f89190611d4c565b9392505050565b5f6020828403121561140f575f80fd5b5035919050565b6001600160a01b038116811461142a575f80fd5b50565b5f60a08284031215611156575f80fd5b5f60808284031215611156575f80fd5b5f8083601f84011261145d575f80fd5b50813567ffffffffffffffff811115611474575f80fd5b60208301915083602082850101111561148b575f80fd5b9250929050565b5f805f805f61016086880312156114a7575f80fd5b85356114b281611416565b94506114c1876020880161142d565b93506114d08760c0880161143d565b925061014086013567ffffffffffffffff8111156114ec575f80fd5b6114f88882890161144d565b969995985093965092949392505050565b5f60608284031215611156575f80fd5b5f805f805f610140868803121561152e575f80fd5b853561153981611416565b9450611548876020880161142d565b93506115578760c08801611509565b925061012086013567ffffffffffffffff8111156114ec575f80fd5b5f805f805f60608688031215611587575f80fd5b85359450602086013567ffffffffffffffff8111156115a4575f80fd5b6115b08882890161144d565b909550935050604086013567ffffffffffffffff8111156114ec575f80fd5b81516001600160a01b03168152602080830151610180830191611642908401826001600160a01b0381511682526001600160a01b03602082015116602083015262ffffff6040820151166040830152606081015160020b60608301526001600160a01b0360808201511660808301525050565b506040830151151560c0830152606083015160e0830152608083015161010083015260a083015161012083015260c083015161014083015260e083015161168e61016084018215159052565b5092915050565b5f805f805f805f6101a0888a0312156116ac575f80fd5b87356116b781611416565b96506116c68960208a0161142d565b95506116d58960c08a0161143d565b94506101408801359350610160880135925061018088013567ffffffffffffffff811115611701575f80fd5b61170d8a828b0161144d565b989b979a50959850939692959293505050565b8035600281900b8114611731575f80fd5b919050565b5f805f80610100858703121561174a575f80fd5b843561175581611416565b9350611764866020870161142d565b925060c085013561177481611416565b915061178260e08601611720565b905092959194509250565b5f60a0828403121561179d575f80fd5b6113f8838361142d565b6001600160a01b03891681526101808101611813602083018a6001600160a01b0381511682526001600160a01b03602082015116602083015262ffffff6040820151166040830152606081015160020b60608301526001600160a01b0360808201511660808301525050565b96151560c082015260e081019590955261010085019390935261012084019190915261014083015215156101609091015292915050565b5f805f805f806101608789031215611860575f80fd5b863561186b81611416565b955061187a886020890161142d565b94506118898860c08901611509565b9350610120870135925061014087013567ffffffffffffffff8111156118ad575f80fd5b6118b989828a0161144d565b979a9699509497509295939492505050565b5f805f805f8061012087890312156118e1575f80fd5b86356118ec81611416565b95506118fb886020890161142d565b945060c0870135935060e0870135925061010087013567ffffffffffffffff8111156118ad575f80fd5b5f805f60e08486031215611937575f80fd5b833561194281611416565b9250611951856020860161142d565b915060c084013561196181611416565b809150509250925092565b5f6020828403121561197c575f80fd5b81356113f881611416565b5f8060c08385031215611998575f80fd5b823591506119a9846020850161142d565b90509250929050565b5f8060c083850312156119c3575f80fd5b6119cd848461142d565b9460a0939093013593505050565b634e487b7160e01b5f52604160045260245ffd5b604051601f8201601f1916810167ffffffffffffffff81118282101715611a1857611a186119db565b604052919050565b5f805f60608486031215611a32575f80fd5b8335925060208401359150604084013567ffffffffffffffff811115611a56575f80fd5b8401601f81018613611a66575f80fd5b803567ffffffffffffffff811115611a8057611a806119db565b611a93601f8201601f19166020016119ef565b818152876020838501011115611aa7575f80fd5b816020840160208301375f602083830101528093505050509250925092565b634e487b7160e01b5f52601160045260245ffd5b808201808211156112a8576112a8611ac6565b803562ffffff81168114611731575f80fd5b5f60a0828403128015611b10575f80fd5b5060405160a0810167ffffffffffffffff81118282101715611b3457611b346119db565b6040528235611b4281611416565b81526020830135611b5281611416565b6020820152611b6360408401611aed565b6040820152611b7460608401611720565b60608201526080830135611b8781611416565b60808201529392505050565b80358015158114611731575f80fd5b5f6060828403128015611bb3575f80fd5b506040516060810167ffffffffffffffff81118282101715611bd757611bd76119db565b604052611be383611b93565b8152602083810135908201526040830135611bfd81611416565b60408201529392505050565b5f60018201611c1a57611c1a611ac6565b5060010190565b5f60208284031215611c31575f80fd5b6113f882611b93565b8481526001600160a01b0384166020820152608060408201525f8351806080840152806020860160a085015e5f60a0828501015260a0601f19601f83011684010191505082606083015295945050505050565b5f8235611c9981611416565b6001600160a01b03168252602083810135908301611cb682611416565b6001600160a01b03821681526020810162ffffff611cd660408801611aed565b168152611ce560608701611720565b60020b602082015260808601359250611cfd83611416565b6001600160a01b038316604082015250505060a08201905092915050565b5f600160ff1b8201611d2f57611d2f611ac6565b505f0390565b80820281158282048414176112a8576112a8611ac6565b5f82611d6657634e487b7160e01b5f52601260045260245ffd5b500490565b818382375f9101908152919050565b60a081018235611d8981611416565b6001600160a01b031682526020830135611da281611416565b6001600160a01b0316602083015262ffffff611dc060408501611aed565b166040830152611dd260608401611720565b60020b60608301526080830135611de881611416565b6001600160a01b03811660808401525092915050565b6bffffffffffffffffffffffff198b60601b1681526bffffffffffffffffffffffff198a60601b166014820152611e49602882018a60601b6bffffffffffffffffffffffff19169052565b60e888811b7fffffff000000000000000000000000000000000000000000000000000000000016603c83015287901b603f820152611e9b604282018760601b6bffffffffffffffffffffffff19169052565b84151560f81b6056820152836057820152611eca607782018460601b6bffffffffffffffffffffffff19169052565b608b81019190915260ab01999850505050505050505056fea2646970667358221220a01d6de450ea92e9543a74a7068519d9d8a46f683e9a5e0cf414893346f66c1a64736f6c634300081a0033","linkReferences":{}},"methodIdentifiers":{"afterAddLiquidity(address,(address,address,uint24,int24,address),(int24,int24,int256,bytes32),int256,int256,bytes)":"9f063efc","afterDonate(address,(address,address,uint24,int24,address),uint256,uint256,bytes)":"e1b4af69","afterInitialize(address,(address,address,uint24,int24,address),uint160,int24)":"6fe7e6eb","afterRemoveLiquidity(address,(address,address,uint24,int24,address),(int24,int24,int256,bytes32),int256,int256,bytes)":"6c2bbe7e","afterSwap(address,(address,address,uint24,int24,address),(bool,int256,uint160),int256,bytes)":"b47b2fb1","beforeAddLiquidity(address,(address,address,uint24,int24,address),(int24,int24,int256,bytes32),bytes)":"259982e5","beforeDonate(address,(address,address,uint24,int24,address),uint256,uint256,bytes)":"b6a8b0fa","beforeInitialize(address,(address,address,uint24,int24,address),uint160)":"dc98354e","beforeRemoveLiquidity(address,(address,address,uint24,int24,address),(int24,int24,int256,bytes32),bytes)":"21d0ee70","beforeSwap(address,(address,address,uint24,int24,address),(bool,int256,uint160),bytes)":"575e24b4","executeVaultOrder(bytes32,bytes,bytes)":"5004194e","fallbackToAMM(bytes32)":"00e4fe01","getOrder(bytes32)":"5778472a","getVaultThreshold((address,address,uint24,int24,address))":"8f9316a5","isLargeOrder(int256,(address,address,uint24,int24,address))":"f3539e8a","orderNonce()":"16f8de89","orderVault()":"93845e46","orders(bytes32)":"9c3f1e90","owner()":"8da5cb5b","poolManager()":"dc4c90d3","poolThresholds(bytes32)":"cd9a56e8","routeToVault(address,(address,address,uint24,int24,address),(bool,int256,uint160),bytes)":"28cd016b","serviceManager()":"3998fdd3","setPoolThreshold((address,address,uint24,int24,address),uint256)":"f57f9a7d","transferOwnership(address)":"f2fde38b","updateVaultThreshold(uint256)":"02d9c708","usedCommitments(bytes32)":"91402039","vaultThresholdBps()":"9f660175"},"id":0}