{"abi":[{"type":"function","name":"deregisterOperator","inputs":[{"name":"operator","type":"address","internalType":"address"}],"outputs":[],"stateMutability":"nonpayable"},{"type":"function","name":"getCurrentStake","inputs":[{"name":"operator","type":"address","internalType":"address"},{"name":"quorumNumber","type":"uint8","internalType":"uint8"}],"outputs":[{"name":"","type":"uint96","internalType":"uint96"}],"stateMutability":"view"},{"type":"function","name":"getOperatorFromIndex","inputs":[{"name":"quorumNumber","type":"uint8","internalType":"uint8"},{"name":"index","type":"uint256","internalType":"uint256"}],"outputs":[{"name":"","type":"address","internalType":"address"}],"stateMutability":"pure"},{"type":"function","name":"getOperatorIndex","inputs":[{"name":"quorumNumber","type":"uint8","internalType":"uint8"},{"name":"operator","type":"address","internalType":"address"}],"outputs":[{"name":"","type":"uint32","internalType":"uint32"}],"stateMutability":"pure"},{"type":"function","name":"getStakeAtBlockNumber","inputs":[{"name":"operator","type":"address","internalType":"address"},{"name":"quorumNumber","type":"uint8","internalType":"uint8"},{"name":"blockNumber","type":"uint32","internalType":"uint32"}],"outputs":[{"name":"","type":"uint96","internalType":"uint96"}],"stateMutability":"view"},{"type":"function","name":"isOperatorRegistered","inputs":[{"name":"","type":"address","internalType":"address"}],"outputs":[{"name":"","type":"bool","internalType":"bool"}],"stateMutability":"view"},{"type":"function","name":"minimumStakeForQuorum","inputs":[{"name":"quorumNumber","type":"uint8","internalType":"uint8"}],"outputs":[{"name":"","type":"uint96","internalType":"uint96"}],"stateMutability":"pure"},{"type":"function","name":"operatorStake","inputs":[{"name":"","type":"address","internalType":"address"}],"outputs":[{"name":"","type":"uint256","internalType":"uint256"}],"stateMutability":"view"},{"type":"function","name":"quorumBitmaps","inputs":[{"name":"","type":"address","internalType":"address"}],"outputs":[{"name":"","type":"uint256","internalType":"uint256"}],"stateMutability":"view"},{"type":"function","name":"quorumExists","inputs":[{"name":"quorumNumber","type":"uint8","internalType":"uint8"}],"outputs":[{"name":"","type":"bool","internalType":"bool"}],"stateMutability":"pure"},{"type":"function","name":"registerOperator","inputs":[{"name":"operator","type":"address","internalType":"address"},{"name":"quorumBitmap","type":"uint256","internalType":"uint256"},{"name":"signature","type":"bytes","internalType":"bytes"}],"outputs":[],"stateMutability":"nonpayable"},{"type":"function","name":"setOperatorStake","inputs":[{"name":"operator","type":"address","internalType":"address"},{"name":"stake","type":"uint256","internalType":"uint256"}],"outputs":[],"stateMutability":"nonpayable"},{"type":"event","name":"OperatorRegistered","inputs":[{"name":"operator","type":"address","indexed":true,"internalType":"address"},{"name":"quorumBitmap","type":"uint256","indexed":false,"internalType":"uint256"}],"anonymous":false},{"type":"event","name":"OperatorStakeUpdate","inputs":[{"name":"operator","type":"address","indexed":true,"internalType":"address"},{"name":"quorumNumber","type":"uint8","indexed":false,"internalType":"uint8"},{"name":"stake","type":"uint256","indexed":false,"internalType":"uint256"}],"anonymous":false}],"bytecode":{"object":"0x6080604052348015600e575f80fd5b50610b128061001c5f395ff3fe608060405234801561000f575f80fd5b50600436106100b2575f3560e01c8063b39bcf3f1161006f578063b39bcf3f146101c2578063c46778a5146101f2578063d8cf98ca14610222578063ecd237771461023e578063fe5f682d1461026e578063ff5142a61461029e576100b2565b8063197cfc6e146100b6578063659e3744146100e65780636b1906f8146101025780636b7bee8a14610132578063701ca6c7146101625780637a64b51614610192575b5f80fd5b6100d060048036038101906100cb91906106ad565b6102ba565b6040516100dd9190610711565b60405180910390f35b61010060048036038101906100fb919061075d565b610300565b005b61011c6004803603810190610117919061079b565b610395565b60405161012991906107e0565b60405180910390f35b61014c600480360381019061014791906107f9565b6103b2565b60405161015991906107e0565b60405180910390f35b61017c60048036038101906101779190610824565b6103c1565b6040516101899190610871565b60405180910390f35b6101ac60048036038101906101a791906108c3565b6103c8565b6040516101b99190610711565b60405180910390f35b6101dc60048036038101906101d7919061079b565b61040f565b6040516101e99190610922565b60405180910390f35b61020c600480360381019061020791906107f9565b610423565b6040516102199190610711565b60405180910390f35b61023c6004803603810190610237919061079b565b610435565b005b6102586004803603810190610253919061079b565b61050f565b6040516102659190610922565b60405180910390f35b6102886004803603810190610283919061093b565b610524565b6040516102959190610988565b60405180910390f35b6102b860048036038101906102b39190610a02565b61052b565b005b5f805f8473ffffffffffffffffffffffffffffffffffffffff1673ffffffffffffffffffffffffffffffffffffffff1681526020019081526020015f2054905092915050565b805f808473ffffffffffffffffffffffffffffffffffffffff1673ffffffffffffffffffffffffffffffffffffffff1681526020019081526020015f20819055508173ffffffffffffffffffffffffffffffffffffffff167f1bd391bb589c08117a9abd7c8ffd3db49d9b26c69a3e3a6f09be3c21a34415e55f83604051610389929190610ab5565b60405180910390a25050565b6001602052805f5260405f205f915054906101000a900460ff1681565b5f60c08260ff16109050919050565b5f92915050565b5f805f8573ffffffffffffffffffffffffffffffffffffffff1673ffffffffffffffffffffffffffffffffffffffff1681526020019081526020015f205490509392505050565b5f602052805f5260405f205f915090505481565b5f6801bc16d674ec8000009050919050565b5f60015f8373ffffffffffffffffffffffffffffffffffffffff1673ffffffffffffffffffffffffffffffffffffffff1681526020019081526020015f205f6101000a81548160ff0219169083151502179055505f805f8373ffffffffffffffffffffffffffffffffffffffff1673ffffffffffffffffffffffffffffffffffffffff1681526020019081526020015f20819055505f60025f8373ffffffffffffffffffffffffffffffffffffffff1673ffffffffffffffffffffffffffffffffffffffff1681526020019081526020015f208190555050565b6002602052805f5260405f205f915090505481565b5f92915050565b6001805f8673ffffffffffffffffffffffffffffffffffffffff1673ffffffffffffffffffffffffffffffffffffffff1681526020019081526020015f205f6101000a81548160ff0219169083151502179055508260025f8673ffffffffffffffffffffffffffffffffffffffff1673ffffffffffffffffffffffffffffffffffffffff1681526020019081526020015f20819055508373ffffffffffffffffffffffffffffffffffffffff167fbc11617e575d658c74e921c8df22f8e48566072fa78145a6cfe18420bf8d0c4e846040516106079190610922565b60405180910390a250505050565b5f80fd5b5f80fd5b5f73ffffffffffffffffffffffffffffffffffffffff82169050919050565b5f6106468261061d565b9050919050565b6106568161063c565b8114610660575f80fd5b50565b5f813590506106718161064d565b92915050565b5f60ff82169050919050565b61068c81610677565b8114610696575f80fd5b50565b5f813590506106a781610683565b92915050565b5f80604083850312156106c3576106c2610615565b5b5f6106d085828601610663565b92505060206106e185828601610699565b9150509250929050565b5f6bffffffffffffffffffffffff82169050919050565b61070b816106eb565b82525050565b5f6020820190506107245f830184610702565b92915050565b5f819050919050565b61073c8161072a565b8114610746575f80fd5b50565b5f8135905061075781610733565b92915050565b5f806040838503121561077357610772610615565b5b5f61078085828601610663565b925050602061079185828601610749565b9150509250929050565b5f602082840312156107b0576107af610615565b5b5f6107bd84828501610663565b91505092915050565b5f8115159050919050565b6107da816107c6565b82525050565b5f6020820190506107f35f8301846107d1565b92915050565b5f6020828403121561080e5761080d610615565b5b5f61081b84828501610699565b91505092915050565b5f806040838503121561083a57610839610615565b5b5f61084785828601610699565b925050602061085885828601610749565b9150509250929050565b61086b8161063c565b82525050565b5f6020820190506108845f830184610862565b92915050565b5f63ffffffff82169050919050565b6108a28161088a565b81146108ac575f80fd5b50565b5f813590506108bd81610899565b92915050565b5f805f606084860312156108da576108d9610615565b5b5f6108e786828701610663565b93505060206108f886828701610699565b9250506040610909868287016108af565b9150509250925092565b61091c8161072a565b82525050565b5f6020820190506109355f830184610913565b92915050565b5f806040838503121561095157610950610615565b5b5f61095e85828601610699565b925050602061096f85828601610663565b9150509250929050565b6109828161088a565b82525050565b5f60208201905061099b5f830184610979565b92915050565b5f80fd5b5f80fd5b5f80fd5b5f8083601f8401126109c2576109c16109a1565b5b8235905067ffffffffffffffff8111156109df576109de6109a5565b5b6020830191508360018202830111156109fb576109fa6109a9565b5b9250929050565b5f805f8060608587031215610a1a57610a19610615565b5b5f610a2787828801610663565b9450506020610a3887828801610749565b935050604085013567ffffffffffffffff811115610a5957610a58610619565b5b610a65878288016109ad565b925092505092959194509250565b5f819050919050565b5f819050919050565b5f610a9f610a9a610a9584610a73565b610a7c565b610677565b9050919050565b610aaf81610a85565b82525050565b5f604082019050610ac85f830185610aa6565b610ad56020830184610913565b939250505056fea2646970667358221220cb745a17f9117bd7bbce99c875962bf5406b0d5fce31d1403b27bb4a1a469e5464736f6c634300081a0033","linkReferences":{}},"methodIdentifiers":{"deregisterOperator(address)":"d8cf98ca","getCurrentStake(address,uint8)":"197cfc6e","getOperatorFromIndex(uint8,uint256)":"701ca6c7","getOperatorIndex(uint8,address)":"fe5f682d","getStakeAtBlockNumber(address,uint8,uint32)":"7a64b516","isOperatorRegistered(address)":"6b1906f8","minimumStakeForQuorum(uint8)":"c46778a5","operatorStake(address)":"b39bcf3f","quorumBitmaps(address)":"ecd23777","quorumExists(uint8)":"6b7bee8a","registerOperator(address,uint256,bytes)":"ff5142a6","setOperatorStake(address,uint256)":"659e3744"},"id":19}